{
  "contractName": "MockPenduel",
  "abi": [
    {
      "anonymous": false,
      "inputs": [
        {
          "indexed": false,
          "internalType": "uint256",
          "name": "idSession",
          "type": "uint256"
        },
        {
          "indexed": false,
          "internalType": "address",
          "name": "player",
          "type": "address"
        }
      ],
      "name": "HasPlayed",
      "type": "event"
    },
    {
      "anonymous": false,
      "inputs": [
        {
          "indexed": true,
          "internalType": "address",
          "name": "previousOwner",
          "type": "address"
        },
        {
          "indexed": true,
          "internalType": "address",
          "name": "newOwner",
          "type": "address"
        }
      ],
      "name": "OwnershipTransferred",
      "type": "event"
    },
    {
      "anonymous": false,
      "inputs": [
        {
          "indexed": false,
          "internalType": "address",
          "name": "player",
          "type": "address"
        },
        {
          "indexed": false,
          "internalType": "uint256",
          "name": "amount",
          "type": "uint256"
        }
      ],
      "name": "PlayerWithdraw",
      "type": "event"
    },
    {
      "anonymous": false,
      "inputs": [
        {
          "indexed": false,
          "internalType": "uint256",
          "name": "idSession",
          "type": "uint256"
        },
        {
          "indexed": false,
          "internalType": "address",
          "name": "playerOne",
          "type": "address"
        },
        {
          "indexed": false,
          "internalType": "uint256",
          "name": "betSize",
          "type": "uint256"
        }
      ],
      "name": "SessionCreated",
      "type": "event"
    },
    {
      "anonymous": false,
      "inputs": [
        {
          "indexed": false,
          "internalType": "uint256",
          "name": "idSession",
          "type": "uint256"
        },
        {
          "indexed": false,
          "internalType": "address",
          "name": "playerTwo",
          "type": "address"
        }
      ],
      "name": "SessionJoined",
      "type": "event"
    },
    {
      "anonymous": false,
      "inputs": [],
      "name": "WordAdded",
      "type": "event"
    },
    {
      "anonymous": false,
      "inputs": [
        {
          "indexed": false,
          "internalType": "bool",
          "name": "paused",
          "type": "bool"
        }
      ],
      "name": "joinSessionFctPaused",
      "type": "event"
    },
    {
      "inputs": [
        {
          "internalType": "address",
          "name": "",
          "type": "address"
        }
      ],
      "name": "balance",
      "outputs": [
        {
          "internalType": "uint256",
          "name": "",
          "type": "uint256"
        }
      ],
      "stateMutability": "view",
      "type": "function"
    },
    {
      "inputs": [],
      "name": "joinSessionFctOpen",
      "outputs": [
        {
          "internalType": "bool",
          "name": "",
          "type": "bool"
        }
      ],
      "stateMutability": "view",
      "type": "function"
    },
    {
      "inputs": [],
      "name": "owner",
      "outputs": [
        {
          "internalType": "address",
          "name": "",
          "type": "address"
        }
      ],
      "stateMutability": "view",
      "type": "function"
    },
    {
      "inputs": [],
      "name": "renounceOwnership",
      "outputs": [],
      "stateMutability": "nonpayable",
      "type": "function"
    },
    {
      "inputs": [
        {
          "internalType": "uint256",
          "name": "",
          "type": "uint256"
        }
      ],
      "name": "sessionPublic",
      "outputs": [
        {
          "internalType": "address payable",
          "name": "playerOne",
          "type": "address"
        },
        {
          "internalType": "address payable",
          "name": "playerTwo",
          "type": "address"
        },
        {
          "internalType": "address",
          "name": "mustPlay",
          "type": "address"
        },
        {
          "internalType": "uint8",
          "name": "wordLegth",
          "type": "uint8"
        },
        {
          "internalType": "uint256",
          "name": "idSession",
          "type": "uint256"
        },
        {
          "internalType": "uint256",
          "name": "betSize",
          "type": "uint256"
        },
        {
          "internalType": "bytes32",
          "name": "playerOneGuess",
          "type": "bytes32"
        },
        {
          "internalType": "bytes32",
          "name": "playerTwoGuess",
          "type": "bytes32"
        },
        {
          "internalType": "enum MockPenduel.StateSession",
          "name": "state",
          "type": "uint8"
        }
      ],
      "stateMutability": "view",
      "type": "function"
    },
    {
      "inputs": [],
      "name": "timeOut",
      "outputs": [
        {
          "internalType": "uint256",
          "name": "",
          "type": "uint256"
        }
      ],
      "stateMutability": "view",
      "type": "function"
    },
    {
      "inputs": [],
      "name": "totalCreatedSessions",
      "outputs": [
        {
          "internalType": "uint256",
          "name": "",
          "type": "uint256"
        }
      ],
      "stateMutability": "view",
      "type": "function"
    },
    {
      "inputs": [
        {
          "internalType": "address",
          "name": "newOwner",
          "type": "address"
        }
      ],
      "name": "transferOwnership",
      "outputs": [],
      "stateMutability": "nonpayable",
      "type": "function"
    },
    {
      "inputs": [],
      "name": "playerWithdraw",
      "outputs": [],
      "stateMutability": "nonpayable",
      "type": "function"
    },
    {
      "inputs": [
        {
          "internalType": "uint256",
          "name": "idSession",
          "type": "uint256"
        }
      ],
      "name": "requestWinTimeout",
      "outputs": [],
      "stateMutability": "nonpayable",
      "type": "function"
    },
    {
      "inputs": [
        {
          "internalType": "uint256",
          "name": "idSession",
          "type": "uint256"
        }
      ],
      "name": "requestCancelGame",
      "outputs": [],
      "stateMutability": "nonpayable",
      "type": "function"
    },
    {
      "inputs": [
        {
          "internalType": "bytes32",
          "name": "word",
          "type": "bytes32"
        }
      ],
      "name": "addWord",
      "outputs": [],
      "stateMutability": "nonpayable",
      "type": "function"
    },
    {
      "inputs": [],
      "name": "openJoinSessionFct",
      "outputs": [],
      "stateMutability": "nonpayable",
      "type": "function"
    },
    {
      "inputs": [],
      "name": "pausedJoinSessionFct",
      "outputs": [],
      "stateMutability": "nonpayable",
      "type": "function"
    },
    {
      "inputs": [],
      "name": "createSession",
      "outputs": [],
      "stateMutability": "payable",
      "type": "function"
    },
    {
      "inputs": [
        {
          "internalType": "uint256",
          "name": "idSession",
          "type": "uint256"
        }
      ],
      "name": "joinSession",
      "outputs": [],
      "stateMutability": "payable",
      "type": "function"
    },
    {
      "inputs": [
        {
          "internalType": "bytes1",
          "name": "letter",
          "type": "bytes1"
        },
        {
          "internalType": "uint256",
          "name": "idSession",
          "type": "uint256"
        }
      ],
      "name": "play",
      "outputs": [],
      "stateMutability": "nonpayable",
      "type": "function"
    },
    {
      "inputs": [
        {
          "internalType": "address",
          "name": "player",
          "type": "address"
        }
      ],
      "name": "getPlayerGames",
      "outputs": [
        {
          "internalType": "uint256[]",
          "name": "",
          "type": "uint256[]"
        }
      ],
      "stateMutability": "view",
      "type": "function"
    }
  ],
  "bytecode": "0x60a06040526239bab760e91b60809081526200001f906001908162000096565b50620151806004553480156200003457600080fd5b50620000403362000046565b620000fd565b600080546001600160a01b038381166001600160a01b0319831681178455604051919092169283917f8be0079c531659141344cd1fd0a4f28419497f9722a3daafe3b4186f6b6457e09190a35050565b828054828255906000526020600020908101928215620000d4579160200282015b82811115620000d4578251825591602001919060010190620000b7565b50620000e2929150620000e6565b5090565b5b80821115620000e25760008155600101620000e7565b611e7c806200010d6000396000f3fe6080604052600436106101095760003560e01c806388b8c48711610095578063e3d670d711610064578063e3d670d714610308578063ed8f75ca14610335578063f1c8e98f14610355578063f2fde38b1461036b578063ff2c22781461038b57600080fd5b806388b8c4871461028b5780638da5cb5b146102a05780639a176dd8146102c8578063cac6875b146102e857600080fd5b8063587e2d67116100dc578063587e2d6714610181578063609dbc3f14610196578063614d85e114610228578063715018a61461024c57806387d010021461026157600080fd5b806305991eba1461010e578063129daf84146101235780631cbf1b02146101595780632855a6b014610161575b600080fd5b61012161011c366004611c10565b6103a0565b005b34801561012f57600080fd5b5061014361013e366004611c29565b610785565b6040516101509190611c59565b60405180910390f35b6101216107f1565b34801561016d57600080fd5b5061012161017c366004611c10565b61098b565b34801561018d57600080fd5b50610121610a4a565b3480156101a257600080fd5b506102136101b1366004611c10565b6006602081905260009182526040909120805460018201546002830154600384015460048501546005860154968601546007909601546001600160a01b0395861697948616969584169560ff600160a01b909504851695939492939290911689565b60405161015099989796959493929190611cb3565b34801561023457600080fd5b5061023e60045481565b604051908152602001610150565b34801561025857600080fd5b50610121610adc565b34801561026d57600080fd5b5060025461027b9060ff1681565b6040519015158152602001610150565b34801561029757600080fd5b50610121610af0565b3480156102ac57600080fd5b506000546040516001600160a01b039091168152602001610150565b3480156102d457600080fd5b506101216102e3366004611d2c565b610bfe565b3480156102f457600080fd5b50610121610303366004611c10565b611160565b34801561031457600080fd5b5061023e610323366004611c29565b60076020526000908152604090205481565b34801561034157600080fd5b50610121610350366004611c10565b611306565b34801561036157600080fd5b5061023e60035481565b34801561037757600080fd5b50610121610386366004611c29565b6115f2565b34801561039757600080fd5b50610121611668565b60025460ff1615156001146104065760405162461bcd60e51b815260206004820152602160248201527f6a6f696e20612073657373696f6e2066756e6374696f6e2069732070617573656044820152601960fa1b60648201526084015b60405180910390fd5b6000818152600660205260409020546001600160a01b0316330361046c5760405162461bcd60e51b815260206004820152601e60248201527f4572726f722c20616c726561647920696e20746869732073657373696f6e000060448201526064016103fd565b34333110156104bd5760405162461bcd60e51b815260206004820181905260248201527f4572726f722c20696e737566666963656e74207661756c742062616c616e636560448201526064016103fd565b60008181526006602052604090206004015434101561051e5760405162461bcd60e51b815260206004820152601e60248201527f4572726f722c20696e737566666963656e7420616d6f756e742073656e74000060448201526064016103fd565b600160008281526006602052604090206007015460ff16600881111561054657610546611c9d565b146105935760405162461bcd60e51b815260206004820152601a60248201527f4572726f722c2073657373696f6e20756e726561636861626c6500000000000060448201526064016103fd565b600081815260066020908152604080832060078101805460ff1916600217905533808552600884528285208054600181810183559187528587200187905586865290910180546001600160a01b031916909117905560059091528120426003909101558061060081611d7b565b6001805460408051426020820152449181019190915260608101849052929450909250906080016040516020818303038152906040528051906020012060001c61064a9190611d94565b8154811061065a5761065a611db6565b60009182526020808320909101548483526005909152604090912060040155610682826116f7565b600083815260066020908152604091829020600201805460ff94909416600160a01b0260ff60a01b1990941693909317909255805184815233928101929092527fa80783b53d1b2057a0c31627ae91183cba1ed5e26a4b1cc8074a90f89c92fa85910160405180910390a160008281526005602052604081205462010000900460ff161515900361074d5760008281526005602052604081206004015461072f9181901a60f81b84611823565b6000828152600560205260409020805462ff00001916620100001790555b5060009081526006602052604090206001810154600290910180546001600160a01b0319166001600160a01b03909216919091179055565b6001600160a01b0381166000908152600860209081526040918290208054835181840281018401909452808452606093928301828280156107e557602002820191906000526020600020905b8154815260200190600101908083116107d1575b50505050509050919050565b34333110156108425760405162461bcd60e51b815260206004820181905260248201527f4572726f722c20696e737566666963656e74207661756c742062616c616e636560448201526064016103fd565b600034116108895760405162461bcd60e51b81526020600482015260146024820152734572726f722c206d696e696d756d20312057454960601b60448201526064016103fd565b6003805490600061089983611d7b565b909155505033600081815260086020908152604080832060038054825460018181018555938752858720015580548552600680855283862080546001600160a01b0319908116891790915582548088526005808852868920860182905583885286892080860192909255815490921690981790975581548652838620346004909101558154865295845282852042600290910155548452939091529020600701805460ff1916828002179055506003546040805191825233602083015234908201527f658891ce811ff307aab5be445fb05fffbcd9a125b10915b1aba719e376c53771906060015b60405180910390a1565b6109936118b5565b61099c8161190f565b15156001146109ed5760405162461bcd60e51b815260206004820152601d60248201527f4572726f722c206c6f77657263617365206c657474657273206f6e6c7900000060448201526064016103fd565b60018054808201825560009182527fb10e2d527612073b26eecdfd717e6a320cf44b4afac2b0732d9fcbe2b7fa0cf6018290556040517f50f2e462284e93994cad5dff94a7ec49bd0c2ecc0e1760f97ab4119f94088e969190a150565b610a526118b5565b60025460ff161515600114610aa15760405162461bcd60e51b8152602060048201526015602482015274115c9c9bdc8b08105b1c9958591e481c185d5cd959605a1b60448201526064016103fd565b6002805460ff19169055604051600181527faf166ad2efafa5c1ed3693ccef8cdbcb4a5ae4e275bf8d6058c8e552dd8e1b7c90602001610981565b610ae46118b5565b610aee600061199a565b565b33600081815260076020526040808220805490839055905190929083908381818185875af1925050503d8060008114610b45576040519150601f19603f3d011682016040523d82523d6000602084013e610b4a565b606091505b5050905080610bc15760405162461bcd60e51b815260206004820152603a60248201527f416464726573733a20756e61626c6520746f2073656e642076616c75652c207260448201527f6563697069656e74206d6179206861766520726576657274656400000000000060648201526084016103fd565b60408051338152602081018490527f13b46ae1da3b476d0302ec781f7dd6982727671bc7bc07411d908daeb468751e910160405180910390a15050565b60008181526006602052604090206002015481906001600160a01b03163314610c5c5760405162461bcd60e51b815260206004820152601060248201526f34b9903737ba103cb7bab9103a3ab93760811b60448201526064016103fd565b610c65836119ea565b1515600114610cb65760405162461bcd60e51b815260206004820152601c60248201527f4572726f722c206f6e6c79206c6f77657263617365206c65747465720000000060448201526064016103fd565b600260008381526006602052604090206007015460ff166008811115610cde57610cde611c9d565b14610d2b5760405162461bcd60e51b815260206004820152601e60248201527f4572726f722c2073657373696f6e206e6f7420696e2070726f6772657373000060448201526064016103fd565b6000828152600660205260409020600101546001600160a01b0316610d925760405162461bcd60e51b815260206004820181905260248201527f4572726f722c20617761697420666f722061207365636f6e6420706c6179657260448201526064016103fd565b6000828152600660205260409020546001600160a01b0316330361105d57600082815260056020526040902060040154610dcd908484611823565b600082815260066020818152604080842060018101546002820180546001600160a01b0319166001600160a01b03928316179055600584529482902042600390910155928252915482518681529316908301527faf25da1bf081dfe4bee184c74033eef31f84dd5dd5ec20e84da603183c21c7ef910160405180910390a1600082815260066020908152604080832060059081015492529091206004015403610fb6576000828152600560205260409020805460ff191660019081179182905561010090910460ff1615159003610f315760008281526006602090815260408083206007808201805460ff19166005179055600482015491546001600160a01b031685529092528220805491929091610ee7908490611dcc565b9091555050600082815260066020908152604080832060048101546001909101546001600160a01b0316845260079092528220805491929091610f2b908490611dcc565b90915550505b600082815260056020526040812054610100900460ff1615159003610fb657600082815260066020526040902060078101805460ff1916600317905560040154610f7c906002611ddf565b6000838152600660209081526040808320546001600160a01b03168352600790915281208054909190610fb0908490611dcc565b90915550505b60008281526005602052604090205460ff6101009091041615156001148015610fee575060008281526005602052604090205460ff16155b1561105d57600082815260066020526040902060078101805460ff191660049081179091550154611020906002611ddf565b6000838152600660209081526040808320600101546001600160a01b03168352600790915281208054909190611057908490611dcc565b90915550505b6000828152600660205260409020600101546001600160a01b0316330361115b5760008281526005602052604090206004015461109b908484611823565b600082815260066020818152604080842080546002820180546001600160a01b0319166001600160a01b0392831617905560058452948290204260039091015592825260019092015482518681529316908301527faf25da1bf081dfe4bee184c74033eef31f84dd5dd5ec20e84da603183c21c7ef910160405180910390a160008281526006602081815260408084209092015460059091529120600401540361115b576000828152600560205260409020805461ff0019166101001790555b505050565b6000818152600660205260409020546001600160a01b031633146111c65760405162461bcd60e51b815260206004820152601760248201527f4572726f722c206e6f7420796f75722073657373696f6e00000000000000000060448201526064016103fd565b600160008281526006602052604090206007015460ff1660088111156111ee576111ee611c9d565b146112465760405162461bcd60e51b815260206004820152602260248201527f73657373696f6e206973206e6f7420696e20726561636861626c652073746174604482015261032960f51b60648201526084016103fd565b6004546000828152600560205260409020600201546112659190611dcc565b42116112b35760405162461bcd60e51b815260206004820152601a60248201527f4572726f722c2054696d654f7574204e6f74205265616368656400000000000060448201526064016103fd565b60008181526006602081815260408084206007808201805460ff1916909517909455600481015490546001600160a01b031685529290915282208054919290916112fe908490611dcc565b909155505050565b6000818152600560205260409020600301546004546113259190611dcc565b42116113735760405162461bcd60e51b815260206004820152601a60248201527f4572726f722c2054696d654f7574204e6f74205265616368656400000000000060448201526064016103fd565b6000818152600660205260409020546001600160a01b0316331480156113bc5750600081815260066020526040902060018101546002909101546001600160a01b039081169116145b8061140b57506000818152600660205260409020600101546001600160a01b03163314801561140b5750600081815260066020526040902080546002909101546001600160a01b039081169116145b6114675760405162461bcd60e51b815260206004820152602760248201527f6f70706f6e656e742068617320706c61796564204f52206e6f7420796f75722060448201526639b2b9b9b4b7b760c91b60648201526084016103fd565b600260008281526006602052604090206007015460ff16600881111561148f5761148f611c9d565b146114e65760405162461bcd60e51b815260206004820152602160248201527f4572726f722c2073657373696f6e206973206e6f7420696e2070726f677265736044820152607360f81b60648201526084016103fd565b6000818152600660205260409020546001600160a01b0316330361156b5760008181526006602052604090206007808201805460ff1916909117905560040154611531906002611ddf565b6000828152600660209081526040808320546001600160a01b03168352600790915281208054909190611565908490611dcc565b90915550505b6000818152600660205260409020600101546001600160a01b031633036115ef57600081815260066020526040902060078101805460ff19166008179055600401546115b8906002611ddf565b6000828152600660209081526040808320600101546001600160a01b031683526007909152812080549091906112fe908490611dcc565b50565b6115fa6118b5565b6001600160a01b03811661165f5760405162461bcd60e51b815260206004820152602660248201527f4f776e61626c653a206e6577206f776e657220697320746865207a65726f206160448201526564647265737360d01b60648201526084016103fd565b6115ef8161199a565b6116706118b5565b60025460ff16156116b95760405162461bcd60e51b815260206004820152601360248201527222b93937b9161020b63932b0b23c9037b832b760691b60448201526064016103fd565b6002805460ff19166001179055604051600081527faf166ad2efafa5c1ed3693ccef8cdbcb4a5ae4e275bf8d6058c8e552dd8e1b7c90602001610981565b60008060008381526006602052604090206007015460ff16600881111561172057611720611c9d565b141580156117545750600160008381526006602052604090206007015460ff16600881111561175157611751611c9d565b14155b6117b95760405162461bcd60e51b815260206004820152603060248201527f4572726f722c20546869732073657373696f6e20646f6573206e6f742068617660448201526f1948185b1c9958591e4818481ddbdc9960821b60648201526084016103fd565b60005b60208160ff16108015611806575060056000848152602001908152602001600020600401548160ff16602081106117f5576117f5611db6565b1a60f81b6001600160f81b03191615155b1561181d578061181581611dfe565b9150506117bc565b92915050565b60005b60208160ff1610801561185a5750838160ff166020811061184957611849611db6565b1a60f81b6001600160f81b03191615155b156118af576001600160f81b031983168460ff83166020811061187f5761187f611db6565b1a60f81b6001600160f81b0319160361189d5761189d818484611a2c565b806118a781611dfe565b915050611826565b50505050565b6000546001600160a01b03163314610aee5760405162461bcd60e51b815260206004820181905260248201527f4f776e61626c653a2063616c6c6572206973206e6f7420746865206f776e657260448201526064016103fd565b6000805b60208160ff161080156119475750828160ff166020811061193657611936611db6565b1a60f81b6001600160f81b03191615155b156119915761196d838260ff166020811061196457611964611db6565b1a60f81b6119ea565b151560000361197f5750600092915050565b8061198981611dfe565b915050611913565b50600192915050565b600080546001600160a01b038381166001600160a01b0319831681178455604051919092169283917f8be0079c531659141344cd1fd0a4f28419497f9722a3daafe3b4186f6b6457e09190a35050565b6000606160f81b6001600160f81b0319831610801590611a185750603d60f91b6001600160f81b0319831611155b611a2457506000919050565b506001919050565b6001600160f81b03196000611a42856008611e1d565b6000848152600560205260408120546001600160f81b0319851660ff9384161c935062010000900490911615159003611aef57611a80856008611e1d565b600084815260066020526040902060050180548319166001600160f81b0319871660ff939093169290921c919091179055611abc856008611e1d565b60008481526006602081905260409091200180548319166001600160f81b0319871660ff939093169290921c9190911790555b600083815260066020526040902080546002909101546001600160a01b039081169116148015611b38575060008381526005602052604090205462010000900460ff1615156001145b15611b7a57611b48856008611e1d565b600084815260066020526040902060050180548319166001600160f81b0319871660ff939093169290921c9190911790555b600083815260066020526040902060018101546002909101546001600160a01b039081169116148015611bc6575060008381526005602052604090205462010000900460ff1615156001145b15611c0957611bd6856008611e1d565b60008481526006602081905260409091200180548319166001600160f81b0319871660ff939093169290921c9190911790555b5050505050565b600060208284031215611c2257600080fd5b5035919050565b600060208284031215611c3b57600080fd5b81356001600160a01b0381168114611c5257600080fd5b9392505050565b6020808252825182820181905260009190848201906040850190845b81811015611c9157835183529284019291840191600101611c75565b50909695505050505050565b634e487b7160e01b600052602160045260246000fd5b6001600160a01b038a8116825289811660208301528816604082015260ff871660608201526080810186905260a0810185905260c0810184905260e08101839052610120810160098310611d1757634e487b7160e01b600052602160045260246000fd5b826101008301529a9950505050505050505050565b60008060408385031215611d3f57600080fd5b82356001600160f81b031981168114611d5757600080fd5b946020939093013593505050565b634e487b7160e01b600052601160045260246000fd5b600060018201611d8d57611d8d611d65565b5060010190565b600082611db157634e487b7160e01b600052601260045260246000fd5b500690565b634e487b7160e01b600052603260045260246000fd5b8082018082111561181d5761181d611d65565b6000816000190483118215151615611df957611df9611d65565b500290565b600060ff821660ff8103611e1457611e14611d65565b60010192915050565b600060ff821660ff84168160ff0481118215151615611e3e57611e3e611d65565b02939250505056fea2646970667358221220c3a584b58b24102cfd0e5f503f3db3c1c5bd8cff3669134078bba358c8d6cf8f64736f6c63430008100033",
  "immutableReferences": {},
  "source": "/// SPDX-License-Identifier: MIT\r\n\r\npragma solidity 0.8.16;\r\n\r\nimport \"../node_modules/@openzeppelin/contracts/access/Ownable.sol\";\r\n\r\n/// @title Penduel\r\n/// @author jw418\r\n/// @notice Versus hangman's game  for test without CHAINLINK vrf v2\r\n/// @dev This contract can cointains exploit, deploy this contract on tesnet only!!\r\ncontract MockPenduel is Ownable {\r\n    bytes32[] _words = [\r\n        bytes32(\"sun\")                            \r\n    ];\r\n    bool public joinSessionFctOpen;\r\n    uint256 public totalCreatedSessions;\r\n    uint256 public timeOut = 24 hours;\r\n\r\n    /* Mapping*/\r\n    mapping(uint256 => Sessions) private session; //  mapping an uint(idSession) with a session\r\n    mapping(uint256 => SessionPublic) public sessionPublic;\r\n    mapping(address => uint256) public balance; //  gamers balances\r\n    mapping(address => Player) playerGames; //  attached a gamer addres with his sessions\r\n\r\n    struct Sessions {\r\n        bool playerOneFoundWord;\r\n        bool playerTwoFoundWord;\r\n        bool firstLetterRemplaced;\r\n        uint256 idSession;\r\n        uint256 requestDate;\r\n        uint256 lastMoveDate;\r\n        bytes32 word;\r\n    }\r\n\r\n    struct SessionPublic {\r\n        address payable playerOne;\r\n        address payable playerTwo;\r\n        address mustPlay;\r\n        uint8 wordLegth;\r\n        uint256 idSession;\r\n        uint256 betSize;\r\n        bytes32 playerOneGuess;\r\n        bytes32 playerTwoGuess;\r\n        StateSession state;\r\n    }\r\n\r\n    struct Player {\r\n        uint256[] games;\r\n    }\r\n\r\n    enum StateSession {\r\n        NotCreated,\r\n        Reachable,\r\n        InProgress,\r\n        PlayerOneWin,\r\n        PlayerTwoWin,\r\n        Draw,\r\n        Cancelled,\r\n        POneWinByTimeout,\r\n        PTwoWinByTimeout\r\n    }\r\n\r\n    modifier onlyPlayer(uint256 idSession) {\r\n        require(\r\n            msg.sender == sessionPublic[idSession].mustPlay,\r\n            \"is not your turn\"\r\n        );\r\n        _;\r\n    }\r\n\r\n    /* Events */\r\n    event PlayerWithdraw(address player, uint256 amount);   \r\n    event SessionCreated(uint256 idSession, address playerOne, uint256 betSize);\r\n    event SessionJoined(uint256 idSession, address playerTwo);\r\n    event WordAdded();\r\n    event HasPlayed(uint256 idSession, address player);\r\n    event joinSessionFctPaused(bool paused);\r\n\r\n    \r\n    /// @notice a withdraw function for players\r\n    function playerWithdraw() external {\r\n        uint256 toSend = balance[msg.sender];\r\n        balance[msg.sender] = 0;\r\n        (bool success, ) = msg.sender.call{value: toSend}(\"\");\r\n        require(\r\n            success,\r\n            \"Address: unable to send value, recipient may have reverted\"\r\n        );\r\n        emit PlayerWithdraw(msg.sender, toSend);\r\n    }\r\n\r\n    /// @param idSession uint256 for identify the session\r\n    /// @notice if the opponent player took too many times for playing you can ask for a win by TimeOut\r\n    function requestWinTimeout(uint256 idSession) external {\r\n        require(\r\n            block.timestamp > (timeOut + session[idSession].lastMoveDate),\r\n            \"Error, TimeOut Not Reached\"\r\n        );\r\n        require(\r\n            (msg.sender == sessionPublic[idSession].playerOne &&\r\n                sessionPublic[idSession].mustPlay ==\r\n                sessionPublic[idSession].playerTwo) ||\r\n                (msg.sender == sessionPublic[idSession].playerTwo &&\r\n                    sessionPublic[idSession].mustPlay ==\r\n                    sessionPublic[idSession].playerOne),\r\n            \"opponent has played OR not your session\"\r\n        );\r\n        require(\r\n            sessionPublic[idSession].state == StateSession.InProgress,\r\n            \"Error, session is not in progress\"\r\n        );\r\n\r\n        if (msg.sender == sessionPublic[idSession].playerOne) {\r\n            sessionPublic[idSession].state = StateSession.POneWinByTimeout;\r\n            balance[sessionPublic[idSession].playerOne] +=\r\n                sessionPublic[idSession].betSize *\r\n                2;\r\n        }\r\n        if (msg.sender == sessionPublic[idSession].playerTwo) {\r\n            sessionPublic[idSession].state = StateSession.PTwoWinByTimeout;\r\n            balance[sessionPublic[idSession].playerTwo] +=\r\n                sessionPublic[idSession].betSize *\r\n                2;\r\n        }\r\n    }\r\n\r\n    /// @param idSession uint256 for identify the session\r\n    /// @notice 24hours after the creation of the game the creator can cancel it if no one join it\r\n    function requestCancelGame(uint256 idSession) external {\r\n        require(\r\n            msg.sender == sessionPublic[idSession].playerOne,\r\n            \"Error, not your session\"\r\n        );\r\n        require(\r\n            sessionPublic[idSession].state == StateSession.Reachable,\r\n            \"session is not in reachable state \"\r\n        );\r\n        require(\r\n            block.timestamp > (session[idSession].requestDate + timeOut),\r\n            \"Error, TimeOut Not Reached\"\r\n        );\r\n\r\n        sessionPublic[idSession].state = StateSession.Cancelled;\r\n        balance[sessionPublic[idSession].playerOne] += sessionPublic[idSession]\r\n            .betSize;\r\n    }\r\n\r\n    /// @param word it is a bytes32\r\n    /// @notice allows the owner to add words to the list for the game\r\n    function addWord(bytes32 word) external onlyOwner {\r\n        require(isLowerCaseWord(word) == true, \"Error, lowercase letters only\");\r\n        _words.push(word);\r\n        emit WordAdded();\r\n    }\r\n\r\n    /// @notice autorised players to use the joinSession Function\r\n    function openJoinSessionFct() external onlyOwner {\r\n        require(joinSessionFctOpen == false, \"Error, Already open\");\r\n        joinSessionFctOpen = true;\r\n        emit joinSessionFctPaused(false);\r\n    }\r\n\r\n    /// @notice unautorised players to use the joinSession Function\r\n    function pausedJoinSessionFct() external onlyOwner {\r\n        require(joinSessionFctOpen == true, \"Error, Already paused\");\r\n        joinSessionFctOpen = false;\r\n        emit joinSessionFctPaused(true);\r\n    }\r\n\r\n    /// @notice for create a new game session\r\n    function createSession() external payable {\r\n        require(\r\n            msg.sender.balance >= msg.value,\r\n            \"Error, insufficent vault balance\"\r\n        );\r\n        require(msg.value > 0, \"Error, minimum 1 WEI\");\r\n        totalCreatedSessions++;\r\n        playerGames[msg.sender].games.push(totalCreatedSessions);\r\n        sessionPublic[totalCreatedSessions].playerOne = payable(msg.sender);\r\n        session[totalCreatedSessions].idSession = totalCreatedSessions;\r\n        sessionPublic[totalCreatedSessions].idSession = totalCreatedSessions;\r\n        sessionPublic[totalCreatedSessions].playerOne = payable(msg.sender);\r\n        sessionPublic[totalCreatedSessions].betSize = msg.value;\r\n        session[totalCreatedSessions].requestDate = block.timestamp;\r\n        sessionPublic[totalCreatedSessions].state = StateSession.Reachable;\r\n\r\n        emit SessionCreated(totalCreatedSessions, msg.sender, msg.value);\r\n    }\r\n\r\n    /// @dev this function request for randomness\r\n    /// @notice for join a session already created\r\n    function joinSession(uint256 idSession) public payable {\r\n        require(joinSessionFctOpen == true, \"join a session function is paused\");\r\n        require(\r\n            msg.sender != sessionPublic[idSession].playerOne,\r\n            \"Error, already in this session\"\r\n        );\r\n        require(\r\n            msg.sender.balance >= msg.value,\r\n            \"Error, insufficent vault balance\"\r\n        );\r\n        require(\r\n            msg.value >= sessionPublic[idSession].betSize,\r\n            \"Error, insufficent amount sent\"\r\n        );\r\n        require(\r\n            sessionPublic[idSession].state == StateSession.Reachable,\r\n            \"Error, session unreachable\"\r\n        );\r\n\r\n        sessionPublic[idSession].state = StateSession.InProgress;\r\n        playerGames[msg.sender].games.push(idSession);\r\n        sessionPublic[idSession].playerTwo = payable(msg.sender);\r\n        session[idSession].lastMoveDate = block.timestamp; // start timeout counter     \r\n\r\n        uint256 randNonce = 0;\r\n        randNonce++;\r\n        session[idSession].word = _words[\r\n            uint256(\r\n                keccak256(\r\n                    abi.encodePacked(\r\n                        block.timestamp,\r\n                        block.difficulty,\r\n                        randNonce\r\n                    )\r\n                )\r\n            ) % _words.length\r\n        ];\r\n        sessionPublic[idSession].wordLegth = getSessionWordLength(idSession);\r\n        emit SessionJoined(idSession, msg.sender);\r\n\r\n        if (session[idSession].firstLetterRemplaced == false) {\r\n            compareAndCopy(\r\n                session[idSession].word,\r\n                session[idSession].word[0],\r\n                idSession\r\n            );\r\n            session[idSession].firstLetterRemplaced = true;\r\n        }\r\n        sessionPublic[idSession].mustPlay = sessionPublic[idSession].playerTwo;\r\n    }\r\n\r\n    /// @param idSession uint256 for identify the session\r\n    /// @param letter played in bytes1\r\n    /// @notice the playing function of this dapp\r\n    function play(bytes1 letter, uint256 idSession)\r\n        external\r\n        onlyPlayer(idSession)\r\n    {\r\n        require(isLetter(letter) == true, \"Error, only lowercase letter\");\r\n        require(\r\n            sessionPublic[idSession].state == StateSession.InProgress,\r\n            \"Error, session not in progress\"\r\n        );\r\n        require(\r\n            sessionPublic[idSession].playerTwo != address(0x0),\r\n            \"Error, await for a second player\"\r\n        );\r\n\r\n        // when Player One plays\r\n        if (msg.sender == sessionPublic[idSession].playerOne) {\r\n            compareAndCopy(session[idSession].word, letter, idSession);\r\n            sessionPublic[idSession].mustPlay = sessionPublic[idSession]\r\n                .playerTwo;\r\n            session[idSession].lastMoveDate = block.timestamp;\r\n            emit HasPlayed(idSession, sessionPublic[idSession].playerOne);\r\n\r\n            // Player one Find the word\r\n            if (\r\n                session[idSession].word ==\r\n                sessionPublic[idSession].playerOneGuess\r\n            ) {\r\n                session[idSession].playerOneFoundWord = true;\r\n                // Draw\r\n                if (session[idSession].playerTwoFoundWord == true) {\r\n                    sessionPublic[idSession].state = StateSession.Draw;\r\n                    balance[\r\n                        sessionPublic[idSession].playerOne\r\n                    ] += sessionPublic[idSession].betSize;\r\n                    balance[\r\n                        sessionPublic[idSession].playerTwo\r\n                    ] += sessionPublic[idSession].betSize;\r\n                }\r\n                // Player one Win\r\n                if (session[idSession].playerTwoFoundWord == false) {\r\n                    sessionPublic[idSession].state = StateSession.PlayerOneWin;\r\n                    balance[sessionPublic[idSession].playerOne] +=\r\n                        sessionPublic[idSession].betSize *\r\n                        2;\r\n                }\r\n            }\r\n            // Player Two Win: Player Two find the word and player not found it\r\n            if (\r\n                session[idSession].playerTwoFoundWord == true &&\r\n                (session[idSession].playerOneFoundWord == false)\r\n            ) {\r\n                sessionPublic[idSession].state = StateSession.PlayerTwoWin;\r\n                balance[sessionPublic[idSession].playerTwo] +=\r\n                    sessionPublic[idSession].betSize *\r\n                    2;\r\n            }\r\n        }\r\n\r\n        // when Player two plays\r\n        if (msg.sender == sessionPublic[idSession].playerTwo) {\r\n            compareAndCopy(session[idSession].word, letter, idSession);\r\n            sessionPublic[idSession].mustPlay = sessionPublic[idSession]\r\n                .playerOne;\r\n            session[idSession].lastMoveDate = block.timestamp;\r\n            emit HasPlayed(idSession, sessionPublic[idSession].playerTwo);\r\n\r\n            // Player Two find the world\r\n            if (\r\n                session[idSession].word ==\r\n                sessionPublic[idSession].playerTwoGuess\r\n            ) {\r\n                session[idSession].playerTwoFoundWord = true;\r\n            }\r\n        }\r\n    }\r\n\r\n    /// @param position of the letter to change\r\n    /// @param toInsert letter to copy in bytes1\r\n    /// @param idSession uint256 for identify the session\r\n    /// @notice replaceBytesAtIndex\r\n    function replaceBytesAtIndex(\r\n        uint8 position,\r\n        bytes1 toInsert,\r\n        uint256 idSession\r\n    ) private {\r\n        bytes1 maskBytes = 0xff;\r\n        bytes32 mask = bytes32(maskBytes) >> (position * 8);\r\n\r\n        if (session[idSession].firstLetterRemplaced == false) {\r\n            sessionPublic[idSession].playerOneGuess =\r\n                (~mask & sessionPublic[idSession].playerOneGuess) |\r\n                (bytes32(toInsert) >> (position * 8));\r\n            sessionPublic[idSession].playerTwoGuess =\r\n                (~mask & sessionPublic[idSession].playerTwoGuess) |\r\n                (bytes32(toInsert) >> (position * 8));\r\n        }\r\n\r\n        if (\r\n            sessionPublic[idSession].mustPlay ==\r\n            sessionPublic[idSession].playerOne &&\r\n            session[idSession].firstLetterRemplaced == true\r\n        ) {\r\n            sessionPublic[idSession].playerOneGuess =\r\n                (~mask & sessionPublic[idSession].playerOneGuess) |\r\n                (bytes32(toInsert) >> (position * 8));\r\n        }\r\n        if (\r\n            sessionPublic[idSession].mustPlay ==\r\n            sessionPublic[idSession].playerTwo &&\r\n            session[idSession].firstLetterRemplaced == true\r\n        ) {\r\n            sessionPublic[idSession].playerTwoGuess =\r\n                (~mask & sessionPublic[idSession].playerTwoGuess) |\r\n                (bytes32(toInsert) >> (position * 8));\r\n        }\r\n    }\r\n\r\n    /// @param word to compare\r\n    /// @param letter to check\r\n    /// @param idSession uint256 for identify the session\r\n    /// @notice compare and copy identical letter\r\n    function compareAndCopy(\r\n        bytes32 word,\r\n        bytes1 letter,\r\n        uint256 idSession\r\n    ) private {\r\n        for (uint8 i = 0; i < 32 && word[i] != 0; i++) {\r\n            if (word[i] == letter) {\r\n                replaceBytesAtIndex(i, letter, idSession);\r\n            }\r\n        }\r\n    }\r\n\r\n    /// @param player address of the player\r\n    /// @notice get the lit of the games for a given player address\r\n    function getPlayerGames(address player)\r\n        external\r\n        view\r\n        returns (uint256[] memory)\r\n    {\r\n        return playerGames[player].games;\r\n    }\r\n\r\n    /// @param idSession uint256 for identify the sesFsion\r\n    /// @notice get the word legth for a given session\r\n    function getSessionWordLength(uint256 idSession)\r\n        private\r\n        view\r\n        returns (uint8)\r\n    {\r\n        require(\r\n            sessionPublic[idSession].state != StateSession.NotCreated &&\r\n                sessionPublic[idSession].state != StateSession.Reachable,\r\n            \"Error, This session does not have already a word\"\r\n        );\r\n        uint8 i = 0;\r\n        while (i < 32 && session[idSession].word[i] != 0) {\r\n            i++;\r\n        }\r\n        return i;\r\n    }\r\n\r\n    /// @param b bytes1 to check if is letter or not\r\n    /// @notice check if is a letter\r\n    function isLetter(bytes1 b) private pure returns (bool) {\r\n        if (!(b >= 0x61 && b <= 0x7A)) {\r\n            //a-z\r\n            return false;\r\n        }\r\n        return true;\r\n    }\r\n\r\n    /// @param word bytes32 check if word is composed of lower case letters\r\n    /// @notice check if is a letter\r\n    function isLowerCaseWord(bytes32 word) private pure returns (bool) {\r\n        for (uint8 i = 0; i < 32 && word[i] != 0; i++) {\r\n            if (isLetter(word[i]) == false) {\r\n                return false;\r\n            }\r\n        }\r\n        return true;\r\n    }\r\n}\r\n",
  "sourcePath": "C:\\Users\\juwol\\Desktop\\DEV\\Penduel_certif\\Penduel\\contracts\\MockPenduel.sol",
  "compiler": {
    "name": "solc",
    "version": "0.8.16+commit.07a7930e.Emscripten.clang"
  },
  "schemaVersion": "3.4.6",
  "updatedAt": "2022-09-03T15:42:05.252Z",
  "devdoc": {
    "author": "jw418",
    "details": "This contract can cointains exploit, deploy this contract on tesnet only!!",
    "kind": "dev",
    "methods": {
      "addWord(bytes32)": {
        "params": {
          "word": "it is a bytes32"
        }
      },
      "getPlayerGames(address)": {
        "params": {
          "player": "address of the player"
        }
      },
      "joinSession(uint256)": {
        "details": "this function request for randomness"
      },
      "owner()": {
        "details": "Returns the address of the current owner."
      },
      "play(bytes1,uint256)": {
        "params": {
          "idSession": "uint256 for identify the session",
          "letter": "played in bytes1"
        }
      },
      "renounceOwnership()": {
        "details": "Leaves the contract without owner. It will not be possible to call `onlyOwner` functions anymore. Can only be called by the current owner. NOTE: Renouncing ownership will leave the contract without an owner, thereby removing any functionality that is only available to the owner."
      },
      "requestCancelGame(uint256)": {
        "params": {
          "idSession": "uint256 for identify the session"
        }
      },
      "requestWinTimeout(uint256)": {
        "params": {
          "idSession": "uint256 for identify the session"
        }
      },
      "transferOwnership(address)": {
        "details": "Transfers ownership of the contract to a new account (`newOwner`). Can only be called by the current owner."
      }
    },
    "title": "Penduel",
    "version": 1
  },
  "userdoc": {
    "kind": "user",
    "methods": {
      "addWord(bytes32)": {
        "notice": "allows the owner to add words to the list for the game"
      },
      "createSession()": {
        "notice": "for create a new game session"
      },
      "getPlayerGames(address)": {
        "notice": "get the lit of the games for a given player address"
      },
      "joinSession(uint256)": {
        "notice": "for join a session already created"
      },
      "openJoinSessionFct()": {
        "notice": "autorised players to use the joinSession Function"
      },
      "pausedJoinSessionFct()": {
        "notice": "unautorised players to use the joinSession Function"
      },
      "play(bytes1,uint256)": {
        "notice": "the playing function of this dapp"
      },
      "playerWithdraw()": {
        "notice": "a withdraw function for players"
      },
      "requestCancelGame(uint256)": {
        "notice": "24hours after the creation of the game the creator can cancel it if no one join it"
      },
      "requestWinTimeout(uint256)": {
        "notice": "if the opponent player took too many times for playing you can ask for a win by TimeOut"
      }
    },
    "notice": "Versus hangman's game  for test without CHAINLINK vrf v2",
    "version": 1
  }
}