{
  "contractName": "Penduel",
  "abi": [
    {
      "inputs": [
        {
          "internalType": "uint64",
          "name": "subscriptionId",
          "type": "uint64"
        }
      ],
      "stateMutability": "nonpayable",
      "type": "constructor"
    },
    {
      "inputs": [
        {
          "internalType": "address",
          "name": "have",
          "type": "address"
        },
        {
          "internalType": "address",
          "name": "want",
          "type": "address"
        }
      ],
      "name": "OnlyCoordinatorCanFulfill",
      "type": "error"
    },
    {
      "anonymous": false,
      "inputs": [
        {
          "indexed": true,
          "internalType": "address",
          "name": "previousOwner",
          "type": "address"
        },
        {
          "indexed": true,
          "internalType": "address",
          "name": "newOwner",
          "type": "address"
        }
      ],
      "name": "OwnershipTransferred",
      "type": "event"
    },
    {
      "anonymous": false,
      "inputs": [
        {
          "indexed": true,
          "internalType": "uint256",
          "name": "requestId",
          "type": "uint256"
        }
      ],
      "name": "RNGFound",
      "type": "event"
    },
    {
      "anonymous": false,
      "inputs": [
        {
          "indexed": true,
          "internalType": "uint256",
          "name": "requestId",
          "type": "uint256"
        },
        {
          "indexed": true,
          "internalType": "uint256",
          "name": "idSession",
          "type": "uint256"
        }
      ],
      "name": "RNGRequested",
      "type": "event"
    },
    {
      "anonymous": false,
      "inputs": [
        {
          "indexed": false,
          "internalType": "uint256[]",
          "name": "randomWords",
          "type": "uint256[]"
        }
      ],
      "name": "RandomWordsTaken",
      "type": "event"
    },
    {
      "anonymous": false,
      "inputs": [
        {
          "indexed": true,
          "internalType": "address",
          "name": "sender",
          "type": "address"
        },
        {
          "indexed": false,
          "internalType": "uint256",
          "name": "amount",
          "type": "uint256"
        }
      ],
      "name": "Received",
      "type": "event"
    },
    {
      "anonymous": false,
      "inputs": [
        {
          "indexed": false,
          "internalType": "uint256",
          "name": "idSession",
          "type": "uint256"
        },
        {
          "indexed": false,
          "internalType": "address",
          "name": "playerOne",
          "type": "address"
        },
        {
          "indexed": false,
          "internalType": "uint256",
          "name": "betSize",
          "type": "uint256"
        }
      ],
      "name": "SessionCreated",
      "type": "event"
    },
    {
      "anonymous": false,
      "inputs": [
        {
          "indexed": false,
          "internalType": "uint256",
          "name": "idSession",
          "type": "uint256"
        },
        {
          "indexed": false,
          "internalType": "address",
          "name": "playerTwo",
          "type": "address"
        }
      ],
      "name": "SessionJoined",
      "type": "event"
    },
    {
      "anonymous": false,
      "inputs": [
        {
          "indexed": false,
          "internalType": "address",
          "name": "admin",
          "type": "address"
        },
        {
          "indexed": false,
          "internalType": "uint256",
          "name": "amount",
          "type": "uint256"
        }
      ],
      "name": "Withdraw",
      "type": "event"
    },
    {
      "inputs": [
        {
          "internalType": "address",
          "name": "",
          "type": "address"
        }
      ],
      "name": "balance",
      "outputs": [
        {
          "internalType": "uint256",
          "name": "",
          "type": "uint256"
        }
      ],
      "stateMutability": "view",
      "type": "function",
      "constant": true
    },
    {
      "inputs": [],
      "name": "joinSessionFctOpen",
      "outputs": [
        {
          "internalType": "bool",
          "name": "",
          "type": "bool"
        }
      ],
      "stateMutability": "view",
      "type": "function",
      "constant": true
    },
    {
      "inputs": [],
      "name": "owner",
      "outputs": [
        {
          "internalType": "address",
          "name": "",
          "type": "address"
        }
      ],
      "stateMutability": "view",
      "type": "function",
      "constant": true
    },
    {
      "inputs": [
        {
          "internalType": "uint256",
          "name": "requestId",
          "type": "uint256"
        },
        {
          "internalType": "uint256[]",
          "name": "randomWords",
          "type": "uint256[]"
        }
      ],
      "name": "rawFulfillRandomWords",
      "outputs": [],
      "stateMutability": "nonpayable",
      "type": "function"
    },
    {
      "inputs": [],
      "name": "renounceOwnership",
      "outputs": [],
      "stateMutability": "nonpayable",
      "type": "function"
    },
    {
      "inputs": [
        {
          "internalType": "uint256",
          "name": "",
          "type": "uint256"
        }
      ],
      "name": "s_randomWords",
      "outputs": [
        {
          "internalType": "uint256",
          "name": "",
          "type": "uint256"
        }
      ],
      "stateMutability": "view",
      "type": "function",
      "constant": true
    },
    {
      "inputs": [],
      "name": "s_subscriptionId",
      "outputs": [
        {
          "internalType": "uint64",
          "name": "",
          "type": "uint64"
        }
      ],
      "stateMutability": "view",
      "type": "function",
      "constant": true
    },
    {
      "inputs": [
        {
          "internalType": "uint256",
          "name": "",
          "type": "uint256"
        }
      ],
      "name": "sessionPublic",
      "outputs": [
        {
          "internalType": "address payable",
          "name": "playerOne",
          "type": "address"
        },
        {
          "internalType": "address payable",
          "name": "playerTwo",
          "type": "address"
        },
        {
          "internalType": "address",
          "name": "mustPlay",
          "type": "address"
        },
        {
          "internalType": "uint8",
          "name": "wordLegth",
          "type": "uint8"
        },
        {
          "internalType": "uint256",
          "name": "idSession",
          "type": "uint256"
        },
        {
          "internalType": "uint256",
          "name": "betSize",
          "type": "uint256"
        },
        {
          "internalType": "bytes32",
          "name": "playerOneGuess",
          "type": "bytes32"
        },
        {
          "internalType": "bytes32",
          "name": "playerTwoGuess",
          "type": "bytes32"
        },
        {
          "internalType": "enum Penduel.StateSession",
          "name": "state",
          "type": "uint8"
        }
      ],
      "stateMutability": "view",
      "type": "function",
      "constant": true
    },
    {
      "inputs": [],
      "name": "totalCreatedSessions",
      "outputs": [
        {
          "internalType": "uint256",
          "name": "",
          "type": "uint256"
        }
      ],
      "stateMutability": "view",
      "type": "function",
      "constant": true
    },
    {
      "inputs": [
        {
          "internalType": "address",
          "name": "newOwner",
          "type": "address"
        }
      ],
      "name": "transferOwnership",
      "outputs": [],
      "stateMutability": "nonpayable",
      "type": "function"
    },
    {
      "stateMutability": "payable",
      "type": "receive",
      "payable": true
    },
    {
      "inputs": [],
      "name": "playerWithdraw",
      "outputs": [],
      "stateMutability": "nonpayable",
      "type": "function"
    },
    {
      "inputs": [
        {
          "internalType": "uint256",
          "name": "idSession",
          "type": "uint256"
        }
      ],
      "name": "refundRNGnotFound",
      "outputs": [],
      "stateMutability": "nonpayable",
      "type": "function"
    },
    {
      "inputs": [
        {
          "internalType": "uint256",
          "name": "idSession",
          "type": "uint256"
        }
      ],
      "name": "requestWinTimeout",
      "outputs": [],
      "stateMutability": "nonpayable",
      "type": "function"
    },
    {
      "inputs": [
        {
          "internalType": "bytes32",
          "name": "word",
          "type": "bytes32"
        }
      ],
      "name": "addWord",
      "outputs": [],
      "stateMutability": "nonpayable",
      "type": "function"
    },
    {
      "inputs": [],
      "name": "openJoinSessionFct",
      "outputs": [],
      "stateMutability": "nonpayable",
      "type": "function"
    },
    {
      "inputs": [],
      "name": "createSession",
      "outputs": [],
      "stateMutability": "payable",
      "type": "function",
      "payable": true
    },
    {
      "inputs": [
        {
          "internalType": "uint256",
          "name": "idSession",
          "type": "uint256"
        }
      ],
      "name": "joinSession",
      "outputs": [
        {
          "internalType": "uint256",
          "name": "requestId",
          "type": "uint256"
        }
      ],
      "stateMutability": "payable",
      "type": "function",
      "payable": true
    },
    {
      "inputs": [
        {
          "internalType": "bytes1",
          "name": "letter",
          "type": "bytes1"
        },
        {
          "internalType": "uint256",
          "name": "idSession",
          "type": "uint256"
        }
      ],
      "name": "play",
      "outputs": [],
      "stateMutability": "nonpayable",
      "type": "function"
    },
    {
      "inputs": [
        {
          "internalType": "address",
          "name": "player",
          "type": "address"
        }
      ],
      "name": "getPlayerGames",
      "outputs": [
        {
          "internalType": "uint256[]",
          "name": "",
          "type": "uint256[]"
        }
      ],
      "stateMutability": "view",
      "type": "function",
      "constant": true
    }
  ],
  "bytecode": "0x60018054660100030d40000360a01b600160a01b600160f01b0319909116179055600480546001600160a01b031916736168499c0cffcacd319c818142124b7a15e857ab1790557fd89b2bf150e3b9e13446986e571fb9cab24b13cea0a43ea20a6049a85cc807cc600555620151806008556101806040526468656c6c6f60d81b60a090815266676f6f6462796560c81b60c0526239bab760e91b60e05267686f6c6c6964617960c01b61010052656265666f726560d01b610120526430b33a32b960d91b61014052661cdc1958da585b60ca1b61016052620000e7906009906007620001cb565b50348015620000f557600080fd5b50604051620021cf380380620021cf833981016040819052620001189162000232565b6004546001600160a01b031660805262000132336200017b565b600454600180546001600160a01b0319166001600160a01b03909216919091179055600280546001600160401b039092166001600160401b031990921691909117905562000264565b600080546001600160a01b038381166001600160a01b0319831681178455604051919092169283917f8be0079c531659141344cd1fd0a4f28419497f9722a3daafe3b4186f6b6457e09190a35050565b82805482825590600052602060002090810192821562000209579160200282015b8281111562000209578251825591602001919060010190620001ec565b50620002179291506200021b565b5090565b5b808211156200021757600081556001016200021c565b6000602082840312156200024557600080fd5b81516001600160401b03811681146200025d57600080fd5b9392505050565b608051611f48620002876000396000818161097101526109b30152611f486000f3fe6080604052600436106101185760003560e01c80638ac00021116100a0578063eea0e1a911610064578063eea0e1a9146103a3578063f1c8e98f146103c3578063f2fde38b146103d9578063f6eaffc8146103f9578063ff2c22781461041957600080fd5b80638ac00021146102d45780638da5cb5b1461030e5780639a176dd814610336578063e3d670d714610356578063ed8f75ca1461038357600080fd5b80632855a6b0116100e75780632855a6b0146101d6578063609dbc3f146101f6578063715018a61461028057806387d010021461029557806388b8c487146102bf57600080fd5b806305991eba14610159578063129daf841461017f5780631cbf1b02146101ac5780631fe543e3146101b657600080fd5b366101545760405134815233907f88a5966d370b9919b20f3e2c13ff65706f196a4e32cc2c12bf57088f885258749060200160405180910390a2005b600080fd5b61016c610167366004611bae565b61042e565b6040519081526020015b60405180910390f35b34801561018b57600080fd5b5061019f61019a366004611bc7565b6107ab565b6040516101769190611bf7565b6101b4610817565b005b3480156101c257600080fd5b506101b46101d1366004611c51565b610966565b3480156101e257600080fd5b506101b46101f1366004611bae565b6109ee565b34801561020257600080fd5b5061026b610211366004611bae565b600e60205260009081526040902080546001820154600283015460038401546004850154600586015460068701546007909701546001600160a01b03968716979587169685169560ff600160a01b90960486169590911689565b60405161017699989796959493929190611d31565b34801561028c57600080fd5b506101b4610a2b565b3480156102a157600080fd5b506006546102af9060ff1681565b6040519015158152602001610176565b3480156102cb57600080fd5b506101b4610a3f565b3480156102e057600080fd5b506002546102f59067ffffffffffffffff1681565b60405167ffffffffffffffff9091168152602001610176565b34801561031a57600080fd5b506000546040516001600160a01b039091168152602001610176565b34801561034257600080fd5b506101b4610351366004611daa565b610a9f565b34801561036257600080fd5b5061016c610371366004611bc7565b600f6020526000908152604090205481565b34801561038f57600080fd5b506101b461039e366004611bae565b610fd3565b3480156103af57600080fd5b506101b46103be366004611bae565b6112b1565b3480156103cf57600080fd5b5061016c60075481565b3480156103e557600080fd5b506101b46103f4366004611bc7565b61149f565b34801561040557600080fd5b5061016c610414366004611bae565b611515565b34801561042557600080fd5b506101b4611536565b60065460009060ff16151560011461048d5760405162461bcd60e51b815260206004820181905260248201527f4572726f722c207061737420524e4772657175657374206e6f7420666f756e6460448201526064015b60405180910390fd5b6000828152600e60205260409020546001600160a01b031633036104f35760405162461bcd60e51b815260206004820152601e60248201527f4572726f722c20616c726561647920696e20746869732073657373696f6e00006044820152606401610484565b34333110156105145760405162461bcd60e51b815260040161048490611de3565b6000828152600e60205260409020600401543410156105455760405162461bcd60e51b815260040161048490611de3565b60016000838152600e602052604090206007015460ff16600381111561056d5761056d611d1b565b146105ba5760405162461bcd60e51b815260206004820152601a60248201527f4572726f722c2073657373696f6e20756e726561636861626c650000000000006044820152606401610484565b6000828152600e60205260409020600180820180546001600160a01b031916331790556007909101805460029260ff19909116908302179055506006805460ff191690556001546005546002546040516305d3b1d360e41b8152600481019290925267ffffffffffffffff166024820152600160a01b820461ffff166044820152600160b01b820463ffffffff9081166064830152600160d01b83041660848201526001600160a01b0390911690635d3b1d309060a4016020604051808303816000875af1158015610690573d6000803e3d6000fd5b505050506040513d601f19601f820116820180604052508101906106b49190611e18565b6000838152600d6020908152604080832060010154848452600b8352818420819055600c9092528083209190915551919250839183917fa6a4b9afd6bd5d3a182e6808e1e19cf6552989ef205ca02279bce85472b4f85e91a36000828152600d6020908152604080832042600291820155600e83528184206001808201549190920180546001600160a01b0319166001600160a01b03909216919091179055338085526010845282852080549283018155855293839020018590558051858152918201929092527fa80783b53d1b2057a0c31627ae91183cba1ed5e26a4b1cc8074a90f89c92fa85910160405180910390a1919050565b6001600160a01b03811660009081526010602090815260409182902080548351818402810184019094528084526060939283018282801561080b57602002820191906000526020600020905b8154815260200190600101908083116107f7575b50505050509050919050565b34333110156108385760405162461bcd60e51b815260040161048490611de3565b6000341161087f5760405162461bcd60e51b81526020600482015260146024820152734572726f722c206d696e696d756d20312057454960601b6044820152606401610484565b6007805490600061088f83611e47565b909155505033600081815260106020908152604080832060078054825460018082018555938752858720015580548552600e80855283862080546001600160a01b031990811689179091558254808852600d875285882085018190559186528487206003810192909255815416871790558054855282852034600490910181905581548652948390208101805460ff191690921790915554815190815291820193909352918201527f658891ce811ff307aab5be445fb05fffbcd9a125b10915b1aba719e376c537719060600160405180910390a1565b336001600160a01b037f000000000000000000000000000000000000000000000000000000000000000016146109e05760405163073e64fd60e21b81523360048201526001600160a01b037f0000000000000000000000000000000000000000000000000000000000000000166024820152604401610484565b6109ea828261154d565b5050565b6109f661172a565b600980546001810182556000919091527f6e1540171b6c0c960b71a7020d9f60077f6af931a8bbf590da0223dacf75c7af0155565b610a3361172a565b610a3d6000611784565b565b336000818152600f6020526040808220805490839055905190929183919081818185875af1925050503d8060008114610a94576040519150601f19603f3d011682016040523d82523d6000602084013e610a99565b606091505b50505050565b6000818152600e602052604090206002015481906001600160a01b03163314610afd5760405162461bcd60e51b815260206004820152601060248201526f34b9903737ba103cb7bab9103a3ab93760811b6044820152606401610484565b610b06836117d4565b1515600114610b575760405162461bcd60e51b815260206004820152601c60248201527f4572726f722c206f6e6c79206c6f77657263617365206c6574746572000000006044820152606401610484565b60026000838152600e602052604090206007015460ff166003811115610b7f57610b7f611d1b565b14610bcc5760405162461bcd60e51b815260206004820152601e60248201527f4572726f722c2073657373696f6e206e6f7420696e2070726f677265737300006044820152606401610484565b6000828152600e60205260409020600101546001600160a01b0316610c335760405162461bcd60e51b815260206004820181905260248201527f4572726f722c20617761697420666f722061207365636f6e6420706c617965726044820152606401610484565b6000828152600d6020526040812060040154901a60f81b6001600160f81b031916600003610ca35760405162461bcd60e51b815260206004820152601a60248201527f524e4720776f7264206e6f7420616c726561647920666f756e640000000000006044820152606401610484565b6000828152600e60205260409020546001600160a01b03163303610f21576000828152600d6020526040902060040154610cde908484611816565b6000828152600e6020908152604080832060018101546002820180546001600160a01b0319166001600160a01b03909216919091179055600d90925290912042600382015560059091015460049091015403610e7b576000828152600d60205260409020805460ff191660019081179182905561010090910460ff1615159003610df6576000828152600e6020908152604080832060078101805460ff19166003179055600481015490546001600160a01b03168452600f9092528220805491929091610dac908490611e76565b90915550506000828152600e6020908152604080832060048101546001909101546001600160a01b03168452600f9092528220805491929091610df0908490611e76565b90915550505b6000828152600d6020526040812054610100900460ff1615159003610e7b576000828152600e6020526040902060078101805460ff1916600317905560040154610e41906002611e89565b6000838152600e60209081526040808320546001600160a01b03168352600f90915281208054909190610e75908490611e76565b90915550505b6000828152600d602052604090205460ff6101009091041615156001148015610eb357506000828152600d602052604090205460ff16155b15610f21576000828152600e6020526040902060078101805460ff1916600317905560040154610ee4906002611e89565b6000838152600e60209081526040808320600101546001600160a01b03168352600f90915281208054909190610f1b908490611e76565b90915550505b6000828152600e60205260409020600101546001600160a01b03163303610fce576000828152600d6020526040902060040154610f5f908484611816565b6000828152600e6020908152604080832080546002820180546001600160a01b0319166001600160a01b03909216919091179055600d90925290912042600382015560069091015460049091015403610fce576000828152600d60205260409020805461ff0019166101001790555b505050565b6000818152600d6020526040902060030154600854610ff29190611e76565b42116110405760405162461bcd60e51b815260206004820152601a60248201527f4572726f722c2054696d654f7574204e6f7420526561636865640000000000006044820152606401610484565b6000818152600e60205260409020546001600160a01b031633148061107e57506000818152600e60205260409020600101546001600160a01b031633145b6110c45760405162461bcd60e51b815260206004820152601760248201527622b93937b916102737ba103cb7bab91039b2b9b9b4b7b760491b6044820152606401610484565b60026000828152600e602052604090206007015460ff1660038111156110ec576110ec611d1b565b146111435760405162461bcd60e51b815260206004820152602160248201527f4572726f722c2073657373696f6e206973206e6f7420696e2070726f677265736044820152607360f81b6064820152608401610484565b6000818152600e6020526040902060018101546002909101546001600160a01b03908116911614801561118c57506000818152600e60205260409020546001600160a01b031633145b156111f7576000818152600e6020526040902060078101805460ff19166003179055600401546111bd906002611e89565b6000828152600e60209081526040808320546001600160a01b03168352600f909152812080549091906111f1908490611e76565b90915550505b6000818152600e6020526040902080546002909101546001600160a01b03908116911614801561124057506000818152600e60205260409020600101546001600160a01b031633145b156112ae576000818152600e6020526040902060078101805460ff1916600317905560040154611271906002611e89565b6000828152600e60209081526040808320600101546001600160a01b03168352600f909152812080549091906112a8908490611e76565b90915550505b50565b6000818152600e60205260409020546001600160a01b03163314806112ef57506000818152600e60205260409020600101546001600160a01b031633145b6113355760405162461bcd60e51b815260206004820152601760248201527622b93937b916102737ba103cb7bab91039b2b9b9b4b7b760491b6044820152606401610484565b6000818152600d6020526040812060040154901a60f81b6001600160f81b0319166000036113a55760405162461bcd60e51b815260206004820152601d60248201527f4572726f722c20524e4720776f726420616c726561647920666f756e640000006044820152606401610484565b6000818152600d60205260409020600201546113c390612a30611e76565b42116114115760405162461bcd60e51b815260206004820152601a60248201527f4572726f722c2054696d654f7574204e6f7420526561636865640000000000006044820152606401610484565b6000818152600e6020908152604080832060078101805460ff19166003179055600481015490546001600160a01b03168452600f909252822080549192909161145b908490611e76565b90915550506000818152600e6020908152604080832060048101546001909101546001600160a01b03168452600f90925282208054919290916112a8908490611e76565b6114a761172a565b6001600160a01b03811661150c5760405162461bcd60e51b815260206004820152602660248201527f4f776e61626c653a206e6577206f776e657220697320746865207a65726f206160448201526564647265737360d01b6064820152608401610484565b6112ae81611784565b6003818154811061152557600080fd5b600091825260209091200154905081565b61153e61172a565b6006805460ff19166001179055565b60006009805490508260008151811061156857611568611e60565b602002602001015161157a9190611ea8565b90506009818154811061158f5761158f611e60565b6000918252602080832090910154858352600b808352604080852080548652600d85529085206004019290925592869052919052546115cd906118a2565b6000848152600c60209081526040808320548352600e909152808220600201805460ff94909416600160a01b0260ff60a01b1990941693909317909255905184917fa8e40739d15b1a795084e7aceb618f6570b720eff3825b72abcfcc948cf6509c91a27fe11a34280e4fe3f36870e1b808058087c13155acaecd91f00f88ea0fdd3fff74826040516116609190611bf7565b60405180910390a16006805460ff191660011790556000838152600b60209081526040808320548352600d90915281205462010000900460ff1615159003611704576000838152600b6020818152604080842054808552600d835290842060040154878552929091526116d99282901a60f81b90611816565b6000838152600b60209081526040808320548352600d9091529020805462ff00001916620100001790555b50506000908152600b60209081526040808320548352600d909152902042600390910155565b6000546001600160a01b03163314610a3d5760405162461bcd60e51b815260206004820181905260248201527f4f776e61626c653a2063616c6c6572206973206e6f7420746865206f776e65726044820152606401610484565b600080546001600160a01b038381166001600160a01b0319831681178455604051919092169283917f8be0079c531659141344cd1fd0a4f28419497f9722a3daafe3b4186f6b6457e09190a35050565b6000606160f81b6001600160f81b03198316108015906118025750603d60f91b6001600160f81b0319831611155b61180e57506000919050565b506001919050565b60005b60208160ff1610801561184d5750838160ff166020811061183c5761183c611e60565b1a60f81b6001600160f81b03191615155b15610a99576001600160f81b031983168460ff83166020811061187257611872611e60565b1a60f81b6001600160f81b03191603611890576118908184846119cc565b8061189a81611eca565b915050611819565b600060026000838152600e602052604090206007015460ff1660038111156118cc576118cc611d1b565b14806118fd575060036000838152600e602052604090206007015460ff1660038111156118fb576118fb611d1b565b145b6119625760405162461bcd60e51b815260206004820152603060248201527f4572726f722c20546869732073657373696f6e20646f6573206e6f742068617660448201526f1948185b1c9958591e4818481ddbdc9960821b6064820152608401610484565b60005b60208160ff161080156119af5750600d6000848152602001908152602001600020600401548160ff166020811061199e5761199e611e60565b1a60f81b6001600160f81b03191615155b156119c657806119be81611eca565b915050611965565b92915050565b6001600160f81b031960006119e2856008611ee9565b6000848152600d60205260408120546001600160f81b0319851660ff9384161c935062010000900490911615159003611a8e57611a20856008611ee9565b6000848152600e6020526040902060050180548319166001600160f81b0319871660ff939093169290921c919091179055611a5c856008611ee9565b6000848152600e6020526040902060060180548319166001600160f81b0319871660ff939093169290921c9190911790555b6000838152600e6020526040902080546002909101546001600160a01b039081169116148015611ad757506000838152600d602052604090205462010000900460ff1615156001145b15611b1957611ae7856008611ee9565b6000848152600e6020526040902060050180548319166001600160f81b0319871660ff939093169290921c9190911790555b6000838152600e6020526040902060018101546002909101546001600160a01b039081169116148015611b6557506000838152600d602052604090205462010000900460ff1615156001145b15611ba757611b75856008611ee9565b6000848152600e6020526040902060060180548319166001600160f81b0319871660ff939093169290921c9190911790555b5050505050565b600060208284031215611bc057600080fd5b5035919050565b600060208284031215611bd957600080fd5b81356001600160a01b0381168114611bf057600080fd5b9392505050565b6020808252825182820181905260009190848201906040850190845b81811015611c2f57835183529284019291840191600101611c13565b50909695505050505050565b634e487b7160e01b600052604160045260246000fd5b60008060408385031215611c6457600080fd5b8235915060208084013567ffffffffffffffff80821115611c8457600080fd5b818601915086601f830112611c9857600080fd5b813581811115611caa57611caa611c3b565b8060051b604051601f19603f83011681018181108582111715611ccf57611ccf611c3b565b604052918252848201925083810185019189831115611ced57600080fd5b938501935b82851015611d0b57843584529385019392850192611cf2565b8096505050505050509250929050565b634e487b7160e01b600052602160045260246000fd5b6001600160a01b038a8116825289811660208301528816604082015260ff871660608201526080810186905260a0810185905260c0810184905260e08101839052610120810160048310611d9557634e487b7160e01b600052602160045260246000fd5b826101008301529a9950505050505050505050565b60008060408385031215611dbd57600080fd5b82356001600160f81b031981168114611dd557600080fd5b946020939093013593505050565b6020808252818101527f4572726f722c20696e737566666963656e74207661756c742062616c616e6365604082015260600190565b600060208284031215611e2a57600080fd5b5051919050565b634e487b7160e01b600052601160045260246000fd5b600060018201611e5957611e59611e31565b5060010190565b634e487b7160e01b600052603260045260246000fd5b808201808211156119c6576119c6611e31565b6000816000190483118215151615611ea357611ea3611e31565b500290565b600082611ec557634e487b7160e01b600052601260045260246000fd5b500690565b600060ff821660ff8103611ee057611ee0611e31565b60010192915050565b600060ff821660ff84168160ff0481118215151615611f0a57611f0a611e31565b02939250505056fea264697066735822122083ed93a2e5fe477c4cb49ee25c6525976c3e6e9b380bd45ea68c4ef3cd0c027064736f6c63430008100033",
  "immutableReferences": {
    "1481": [
      {
        "length": 32,
        "start": 2417
      },
      {
        "length": 32,
        "start": 2483
      }
    ]
  },
  "source": "/// SPDX-License-Identifier: MIT\r\n\r\npragma solidity 0.8.16;\r\n\r\nimport \"../node_modules/@openzeppelin/contracts/access/Ownable.sol\";\r\nimport \"../node_modules/@chainlink/contracts/src/v0.8/interfaces/VRFCoordinatorV2Interface.sol\";\r\nimport \"../node_modules/@chainlink/contracts/src/v0.8/VRFConsumerBaseV2.sol\";\r\n\r\n\r\n/// @title Penduel\r\n/// @author jw418\r\n/// @notice Versus hangman's game \r\n/// @dev This contract can cointains exploit, deploy this contract on tesnet only!!\r\ncontract Penduel is VRFConsumerBaseV2, Ownable {\r\n    VRFCoordinatorV2Interface COORDINATOR;\r\n\r\n    /* Chainlink's VRF V2  variables */\r\n    \r\n    uint16 requestConfirmations = 3;        // The default is 3, but you can set this higher.\r\n    uint32 callbackGasLimit = 200000;       \r\n    uint32 numWords =  1;                   // Number of random number at each request.\r\n    uint64  public s_subscriptionId;                // Your subscription ID for CHAINLINK   // 8023  \r\n    uint256[] public s_randomWords;         // For the FullFill Fct                   \r\n    address vrfCoordinator = 0x6168499c0cFfCaCD319c818142124B7A15E857ab;   // Rinkeby coordinator 30 gwei Key Hash\r\n    bytes32 s_keyHash = 0xd89b2bf150e3b9e13446986e571fb9cab24b13cea0a43ea20a6049a85cc807cc; // 30 gwei Key Hash\r\n     \r\n    bool public joinSessionFctOpen;\r\n    uint256 public totalCreatedSessions;\r\n    uint timeOut = 24 hours;     \r\n    bytes32[] _words = [\r\n        bytes32(\"hello\"),bytes32(\"goodbye\"),bytes32(\"sun\"),\r\n        bytes32(\"holliday\"),bytes32(\"before\"),bytes32(\"after\"),\r\n        bytes32(\"special\")\r\n    ];      \r\n      \r\n\r\n    Sessions[] games;\r\n\r\n    /* Mapping*/\r\n    mapping(uint256 => uint256) private reqId;                  //  associate a request with a game session\r\n    mapping(uint256 => uint256) private reqIdPublic; \r\n    mapping(uint256 => Sessions) private session;               //  mapping an uint(idSession) with a session \r\n    mapping(uint256 => SessionPublic) public sessionPublic;  \r\n    mapping(address => uint256) public balance;                 //  gamers balances\r\n    mapping(address => Player) playerGames;                     //  attached a gamer addres with his sessions\r\n\r\n    \r\n    struct Sessions {\r\n        bool playerOneFoundWord;\r\n        bool playerTwoFoundWord;\r\n        bool firstLetterRemplaced;\r\n        uint256 idSession;   \r\n        uint rngRequestDate; \r\n        uint lastMoveDate;                         \r\n        bytes32 word;        \r\n    }\r\n\r\n    struct SessionPublic{\r\n        address payable playerOne;\r\n        address payable playerTwo;\r\n        address mustPlay;   \r\n        uint8 wordLegth;\r\n        uint256 idSession; \r\n        uint256 betSize;\r\n        bytes32 playerOneGuess;\r\n        bytes32 playerTwoGuess;\r\n        StateSession  state;        \r\n    }\r\n\r\n    struct Player{\r\n        uint256[] games;\r\n    }\r\n\r\n    enum StateSession {\r\n        NotCreated,\r\n        Reachable,\r\n        InProgress,\r\n        Finished\r\n    } \r\n\r\n    modifier onlyPlayer(uint256 idSession) {\r\n        require(msg.sender == sessionPublic[idSession].mustPlay, \"is not your turn\");\r\n        _;\r\n    }\r\n\r\n    /* Events */\r\n    event Withdraw(address admin, uint256 amount);\r\n    event Received(address indexed sender, uint256 amount);\r\n    event SessionCreated(uint idSession, address playerOne, uint256 betSize);\r\n    event SessionJoined(uint idSession, address playerTwo);\r\n    event RNGRequested(uint256 indexed requestId, uint256 indexed idSession);\r\n    event RNGFound(uint256 indexed requestId);\r\n    event RandomWordsTaken(uint256[] randomWords);\r\n    \r\n\r\n  /* Constructor*/\r\n    /// @dev go to your chainlink account to see your subcription ID \r\n    /// @dev when the contract is deployed do not forget to add this contract to your consumer\r\n    constructor(uint64 subscriptionId) VRFConsumerBaseV2(vrfCoordinator) {    \r\n        COORDINATOR = VRFCoordinatorV2Interface(vrfCoordinator);       \r\n        s_subscriptionId = subscriptionId;\r\n    }\r\n\r\n    /* Allows this contract to receive payments */\r\n    receive() external payable {\r\n        emit Received(msg.sender, msg.value);\r\n    }    \r\n\r\n    /// @notice a withdraw function for players\r\n    function playerWithdraw() external {  \r\n        uint toSend = balance[msg.sender];\r\n        balance[msg.sender]=0;\r\n\t\tmsg.sender.call{ value: toSend }(\"\");             \r\n    }\r\n\r\n    /// @param idSession uint256 for identify the session\r\n    /// @notice if chainlink took too many times for given a rng the player can ask for a refund \r\n    function refundRNGnotFound(uint256 idSession) external {\r\n        require(msg.sender == sessionPublic[idSession].playerOne || msg.sender == sessionPublic[idSession].playerTwo, \"Error, Not your session\");\r\n        require(session[idSession].word[0] != \"\",\"Error, RNG word already found\");\r\n        require(block.timestamp > (session[idSession].rngRequestDate + 3 hours), \"Error, TimeOut Not Reached\");        \r\n        sessionPublic[idSession].state = StateSession.Finished;\r\n        balance[sessionPublic[idSession].playerOne] += sessionPublic[idSession].betSize;\r\n        balance[sessionPublic[idSession].playerTwo] += sessionPublic[idSession].betSize;\r\n    }\r\n\r\n    /// @param idSession uint256 for identify the session\r\n    /// @notice if the opponent player took too many times for playing you can ask for a win by TimeOut\r\n    function requestWinTimeout(uint256 idSession) external {\r\n        require(block.timestamp > (timeOut + session[idSession].lastMoveDate), \"Error, TimeOut Not Reached\");\r\n        require(msg.sender == sessionPublic[idSession].playerOne || msg.sender == sessionPublic[idSession].playerTwo, \"Error, Not your session\");\r\n        require(sessionPublic[idSession].state == StateSession.InProgress,\"Error, session is not in progress\");\r\n\r\n        if(sessionPublic[idSession].mustPlay == sessionPublic[idSession].playerTwo && msg.sender == sessionPublic[idSession].playerOne) {\r\n            sessionPublic[idSession].state = StateSession.Finished;\r\n            balance[sessionPublic[idSession].playerOne] += sessionPublic[idSession].betSize*2;\r\n        }\r\n        if(sessionPublic[idSession].mustPlay == sessionPublic[idSession].playerOne && msg.sender == sessionPublic[idSession].playerTwo) {\r\n            sessionPublic[idSession].state = StateSession.Finished;\r\n            balance[sessionPublic[idSession].playerTwo] += sessionPublic[idSession].betSize*2;\r\n        }\r\n    }\r\n\r\n    /// @param word it is a bytes32\r\n    /// @notice allows the owner to add words to the list for the game\r\n    function addWord(bytes32 word) external onlyOwner {\r\n        _words.push(word);  \r\n    }  \r\n\r\n    /// @dev first make sure that the contract has been added to the consumers on your chainlik subscription management page\r\n    /// @notice autorised players to use the joinSession Function     \r\n    function openJoinSessionFct() external onlyOwner {\r\n        joinSessionFctOpen = true;  \r\n    }    \r\n   \r\n    /// @notice for create a new game session\r\n    function createSession() external payable {\r\n        require(msg.sender.balance>=msg.value, 'Error, insufficent vault balance');\r\n        require(msg.value > 0, 'Error, minimum 1 WEI');\r\n        totalCreatedSessions++;\r\n        playerGames[msg.sender].games.push(totalCreatedSessions);\r\n        sessionPublic[totalCreatedSessions].playerOne = payable(msg.sender); \r\n        session[totalCreatedSessions].idSession = totalCreatedSessions;\r\n        sessionPublic[totalCreatedSessions].idSession = totalCreatedSessions;\r\n        sessionPublic[totalCreatedSessions].playerOne = payable(msg.sender);\r\n        sessionPublic[totalCreatedSessions].betSize = msg.value;        \r\n        sessionPublic[totalCreatedSessions].state = StateSession.Reachable;\r\n\r\n        emit SessionCreated(totalCreatedSessions, msg.sender, msg.value);\r\n    }\r\n\r\n    /// @dev this function request for randomness\r\n    /// @notice for join a session already created\r\n    function joinSession(uint256 idSession) external payable  returns (uint256 requestId){\r\n        require(joinSessionFctOpen == true, 'Error, past RNGrequest not found');\r\n        require(msg.sender != sessionPublic[idSession].playerOne, 'Error, already in this session');\r\n        require(msg.sender.balance >= msg.value, 'Error, insufficent vault balance');\r\n        require(msg.value >= sessionPublic[idSession].betSize, 'Error, insufficent vault balance');\r\n        require(sessionPublic[idSession].state == StateSession.Reachable, 'Error, session unreachable');     \r\n        \r\n        sessionPublic[idSession].playerTwo = payable(msg.sender);\r\n        sessionPublic[idSession].state = StateSession.InProgress;\r\n        joinSessionFctOpen = false;\r\n        requestId = COORDINATOR.requestRandomWords(\r\n            s_keyHash,\r\n            s_subscriptionId,\r\n            requestConfirmations,\r\n            callbackGasLimit,\r\n            numWords\r\n        );\r\n        reqId[requestId] = session[idSession].idSession;                // here we mapping request id with a session\r\n        reqIdPublic[requestId] = session[idSession].idSession;    // same here with the public part for the front-end \r\n        emit RNGRequested(requestId, idSession);\r\n        session[idSession].rngRequestDate = block.timestamp;        \r\n        sessionPublic[idSession].mustPlay = sessionPublic[idSession].playerTwo;\r\n        playerGames[msg.sender].games.push(idSession);\r\n        emit SessionJoined(idSession, msg.sender);\r\n    }\r\n\r\n    /// @param requestId uint256 for identify the rng request\r\n    /// @param randomWords is a mandatory arry for this chainlink function\r\n    /// @dev The fulfillRandomWords function must not revert\r\n    /// @notice this function is call by the vrf coordinator and permit to attribute a rng word to the session\r\n    function fulfillRandomWords(uint256 requestId, uint256[] memory randomWords) internal  override{\r\n        uint256 value = randomWords[0] % _words.length;\r\n        session[reqId[requestId]].word = _words[value];        \r\n        sessionPublic[reqIdPublic[requestId]].wordLegth = getSessionWordLength(reqId[requestId]); \r\n        // emitting event to signal rng was founded\r\n        emit RNGFound(requestId);\r\n        emit RandomWordsTaken(randomWords);        \r\n        joinSessionFctOpen = true;\r\n\r\n        // here we remplaced the first letter     \r\n        if(session[reqId[requestId]].firstLetterRemplaced == false){\r\n            compareAndCopy(session[reqId[requestId]].word, session[reqId[requestId]].word[0], reqId[requestId]);\r\n            session[reqId[requestId]].firstLetterRemplaced = true;\r\n        }\r\n        session[reqId[requestId]].lastMoveDate = block.timestamp;   // start timeout counter\r\n          // rng was founded so we can open the session       \r\n    }    \r\n\r\n    /// @param idSession uint256 for identify the session\r\n    /// @param letter played in bytes1      \r\n    /// @notice the playing function of this dapp\r\n    function play(bytes1 letter, uint256 idSession) external  onlyPlayer(idSession) {        \r\n        require(isLetter(letter) == true, \"Error, only lowercase letter\"); \r\n        require(sessionPublic[idSession].state == StateSession.InProgress,\"Error, session not in progress\");\r\n        require(sessionPublic[idSession].playerTwo != address(0x0), \"Error, await for a second player\");\r\n        require(session[idSession].word[0] != \"\", \"RNG word not already found\");      \r\n      \r\n        // when Player One plays\r\n        if (msg.sender == sessionPublic[idSession].playerOne) {             \r\n            compareAndCopy(session[idSession].word, letter, idSession);            \r\n            sessionPublic[idSession].mustPlay = sessionPublic[idSession].playerTwo;\r\n            session[idSession].lastMoveDate = block.timestamp;\r\n           \r\n            // Player one Find the word\r\n            if(session[idSession].word == sessionPublic[idSession].playerOneGuess) {\r\n                session[idSession].playerOneFoundWord = true;\r\n                // Draw\r\n                if(session[idSession].playerTwoFoundWord == true){\r\n                    sessionPublic[idSession].state = StateSession.Finished;\r\n                    balance[sessionPublic[idSession].playerOne] += sessionPublic[idSession].betSize;\r\n                    balance[sessionPublic[idSession].playerTwo] += sessionPublic[idSession].betSize;\r\n                }                \r\n                // Player one Win\r\n                if(session[idSession].playerTwoFoundWord == false) {                \r\n                sessionPublic[idSession].state = StateSession.Finished;\r\n                balance[sessionPublic[idSession].playerOne] += sessionPublic[idSession].betSize*2;\r\n                }\r\n            }\r\n            // Player Two Win: Player Two find the word and player not found it\r\n            if(session[idSession].playerTwoFoundWord == true && (session[idSession].playerOneFoundWord == false)){\r\n                sessionPublic[idSession].state = StateSession.Finished;\r\n                balance[sessionPublic[idSession].playerTwo] += sessionPublic[idSession].betSize*2;\r\n            }\r\n        }\r\n        \r\n         // when Player One plays\r\n        if (msg.sender == sessionPublic[idSession].playerTwo){\r\n            compareAndCopy(session[idSession].word, letter, idSession);            \r\n            sessionPublic[idSession].mustPlay = sessionPublic[idSession].playerOne;\r\n            session[idSession].lastMoveDate = block.timestamp;\r\n\r\n            // Player Two find the world \r\n            if(session[idSession].word == sessionPublic[idSession].playerTwoGuess) {\r\n                session[idSession].playerTwoFoundWord = true;\r\n            } \r\n        }        \r\n    }\r\n\r\n    /// @param position of the letter to change\r\n    /// @param toInsert letter to copy in bytes1 \r\n    /// @param idSession uint256 for identify the session \r\n    /// @notice replaceBytesAtIndex\r\n    function replaceBytesAtIndex(uint8 position, bytes1 toInsert, uint256 idSession) private {\r\n        bytes1 maskBytes = 0xff;\r\n        bytes32 mask = bytes32(maskBytes) >> (position * 8);\r\n\r\n        if(session[idSession].firstLetterRemplaced == false){\r\n            sessionPublic[idSession].playerOneGuess = (~mask & sessionPublic[idSession].playerOneGuess) | (bytes32(toInsert) >> (position * 8));\r\n            sessionPublic[idSession].playerTwoGuess = (~mask & sessionPublic[idSession].playerTwoGuess) | (bytes32(toInsert) >> (position * 8));\r\n        }  \r\n            \r\n        if(sessionPublic[idSession].mustPlay == sessionPublic[idSession].playerOne && session[idSession].firstLetterRemplaced == true){\r\n            sessionPublic[idSession].playerOneGuess = (~mask & sessionPublic[idSession].playerOneGuess) | (bytes32(toInsert) >> (position * 8));         \r\n        }\r\n        if(sessionPublic[idSession].mustPlay == sessionPublic[idSession].playerTwo && session[idSession].firstLetterRemplaced == true){\r\n           sessionPublic[idSession].playerTwoGuess = (~mask & sessionPublic[idSession].playerTwoGuess) | (bytes32(toInsert) >> (position * 8));\r\n        }        \r\n    }\r\n\r\n    /// @param word to compare\r\n    /// @param letter to check \r\n    /// @param idSession uint256 for identify the session \r\n    /// @notice compare and copy identical letter  \r\n    function compareAndCopy(bytes32 word, bytes1 letter, uint256 idSession) private {\r\n        for(uint8 i=0; i < 32 && word[i] != 0; i++){\r\n            if(word[i] == letter) {                \r\n                replaceBytesAtIndex(i, letter, idSession);                                 \r\n            }\r\n        }       \r\n    }\r\n\r\n    /// @param player address of the player\r\n    /// @notice get the lit of the games for a given player address\r\n    function getPlayerGames(address player) external view returns (uint256[] memory) {\r\n        return playerGames[player].games;\r\n    }\r\n\r\n    /// @param idSession uint256 for identify the sesFsion\r\n    /// @notice get the word legth for a given session\r\n    function getSessionWordLength(uint256 idSession) private view returns (uint8){\r\n        require(sessionPublic[idSession].state == StateSession.InProgress || sessionPublic[idSession].state == StateSession.Finished, \"Error, This session does not have already a word\");\r\n        uint8 i = 0;\r\n        while(i < 32 && session[idSession].word[i] != 0) {\r\n            i++;\r\n        }\r\n        return i;\r\n    }\r\n\r\n    /// @param b bytes1 to check if is letter or not\r\n    /// @notice check if is a letter\r\n    function isLetter(bytes1 b) private pure returns (bool) {        \r\n        if(!(b >= 0x61 && b<= 0x7A)) {  //a-z              \r\n                return false;\r\n        }                \r\n        return true;\r\n    }  \r\n}",
  "sourcePath": "C:\\Users\\juwol\\Desktop\\DEV\\Penduel_certif\\Penduel\\contracts\\Penduel.sol",
  "compiler": {
    "name": "solc",
    "version": "0.8.16+commit.07a7930e.Emscripten.clang"
  },
  "schemaVersion": "3.4.6",
  "updatedAt": "2022-08-13T12:35:49.777Z",
  "networkType": "ethereum",
  "devdoc": {
    "author": "jw418",
    "details": "This contract can cointains exploit, deploy this contract on tesnet only!!",
    "kind": "dev",
    "methods": {
      "addWord(bytes32)": {
        "params": {
          "word": "it is a bytes32"
        }
      },
      "constructor": {
        "details": "go to your chainlink account to see your subcription ID when the contract is deployed do not forget to add this contract to your consumer"
      },
      "getPlayerGames(address)": {
        "params": {
          "player": "address of the player"
        }
      },
      "joinSession(uint256)": {
        "details": "this function request for randomness"
      },
      "openJoinSessionFct()": {
        "details": "first make sure that the contract has been added to the consumers on your chainlik subscription management page"
      },
      "owner()": {
        "details": "Returns the address of the current owner."
      },
      "play(bytes1,uint256)": {
        "params": {
          "idSession": "uint256 for identify the session",
          "letter": "played in bytes1      "
        }
      },
      "refundRNGnotFound(uint256)": {
        "params": {
          "idSession": "uint256 for identify the session"
        }
      },
      "renounceOwnership()": {
        "details": "Leaves the contract without owner. It will not be possible to call `onlyOwner` functions anymore. Can only be called by the current owner. NOTE: Renouncing ownership will leave the contract without an owner, thereby removing any functionality that is only available to the owner."
      },
      "requestWinTimeout(uint256)": {
        "params": {
          "idSession": "uint256 for identify the session"
        }
      },
      "transferOwnership(address)": {
        "details": "Transfers ownership of the contract to a new account (`newOwner`). Can only be called by the current owner."
      }
    },
    "title": "Penduel",
    "version": 1
  },
  "userdoc": {
    "kind": "user",
    "methods": {
      "addWord(bytes32)": {
        "notice": "allows the owner to add words to the list for the game"
      },
      "createSession()": {
        "notice": "for create a new game session"
      },
      "getPlayerGames(address)": {
        "notice": "get the lit of the games for a given player address"
      },
      "joinSession(uint256)": {
        "notice": "for join a session already created"
      },
      "openJoinSessionFct()": {
        "notice": "autorised players to use the joinSession Function     "
      },
      "play(bytes1,uint256)": {
        "notice": "the playing function of this dapp"
      },
      "playerWithdraw()": {
        "notice": "a withdraw function for players"
      },
      "refundRNGnotFound(uint256)": {
        "notice": "if chainlink took too many times for given a rng the player can ask for a refund "
      },
      "requestWinTimeout(uint256)": {
        "notice": "if the opponent player took too many times for playing you can ask for a win by TimeOut"
      }
    },
    "notice": "Versus hangman's game ",
    "version": 1
  }
}