{
  "contractName": "Penduel",
  "abi": [
    {
      "inputs": [
        {
          "internalType": "uint64",
          "name": "subscriptionId",
          "type": "uint64"
        }
      ],
      "stateMutability": "nonpayable",
      "type": "constructor"
    },
    {
      "inputs": [
        {
          "internalType": "address",
          "name": "have",
          "type": "address"
        },
        {
          "internalType": "address",
          "name": "want",
          "type": "address"
        }
      ],
      "name": "OnlyCoordinatorCanFulfill",
      "type": "error"
    },
    {
      "anonymous": false,
      "inputs": [
        {
          "indexed": true,
          "internalType": "uint256",
          "name": "requestId",
          "type": "uint256"
        }
      ],
      "name": "RNGFound",
      "type": "event"
    },
    {
      "anonymous": false,
      "inputs": [
        {
          "indexed": true,
          "internalType": "uint256",
          "name": "requestId",
          "type": "uint256"
        },
        {
          "indexed": true,
          "internalType": "uint256",
          "name": "idSession",
          "type": "uint256"
        }
      ],
      "name": "RNGRequested",
      "type": "event"
    },
    {
      "anonymous": false,
      "inputs": [
        {
          "indexed": true,
          "internalType": "address",
          "name": "sender",
          "type": "address"
        },
        {
          "indexed": false,
          "internalType": "uint256",
          "name": "amount",
          "type": "uint256"
        }
      ],
      "name": "Received",
      "type": "event"
    },
    {
      "anonymous": false,
      "inputs": [
        {
          "indexed": false,
          "internalType": "uint256",
          "name": "idSession",
          "type": "uint256"
        },
        {
          "indexed": false,
          "internalType": "address",
          "name": "playerOne",
          "type": "address"
        },
        {
          "indexed": false,
          "internalType": "uint256",
          "name": "betSize",
          "type": "uint256"
        }
      ],
      "name": "SessionCreated",
      "type": "event"
    },
    {
      "anonymous": false,
      "inputs": [
        {
          "indexed": false,
          "internalType": "uint256",
          "name": "idSession",
          "type": "uint256"
        },
        {
          "indexed": false,
          "internalType": "address",
          "name": "playerTwo",
          "type": "address"
        }
      ],
      "name": "SessionJoined",
      "type": "event"
    },
    {
      "anonymous": false,
      "inputs": [
        {
          "indexed": false,
          "internalType": "address",
          "name": "admin",
          "type": "address"
        },
        {
          "indexed": false,
          "internalType": "uint256",
          "name": "amount",
          "type": "uint256"
        }
      ],
      "name": "Withdraw",
      "type": "event"
    },
    {
      "inputs": [],
      "name": "admin",
      "outputs": [
        {
          "internalType": "address payable",
          "name": "",
          "type": "address"
        }
      ],
      "stateMutability": "view",
      "type": "function",
      "constant": true
    },
    {
      "inputs": [
        {
          "internalType": "address",
          "name": "",
          "type": "address"
        }
      ],
      "name": "balance",
      "outputs": [
        {
          "internalType": "uint256",
          "name": "",
          "type": "uint256"
        }
      ],
      "stateMutability": "view",
      "type": "function",
      "constant": true
    },
    {
      "inputs": [
        {
          "internalType": "uint256",
          "name": "requestId",
          "type": "uint256"
        },
        {
          "internalType": "uint256[]",
          "name": "randomWords",
          "type": "uint256[]"
        }
      ],
      "name": "rawFulfillRandomWords",
      "outputs": [],
      "stateMutability": "nonpayable",
      "type": "function"
    },
    {
      "inputs": [
        {
          "internalType": "uint256",
          "name": "",
          "type": "uint256"
        }
      ],
      "name": "s_randomWords",
      "outputs": [
        {
          "internalType": "uint256",
          "name": "",
          "type": "uint256"
        }
      ],
      "stateMutability": "view",
      "type": "function",
      "constant": true
    },
    {
      "inputs": [],
      "name": "totalCreatedSessions",
      "outputs": [
        {
          "internalType": "uint256",
          "name": "",
          "type": "uint256"
        }
      ],
      "stateMutability": "view",
      "type": "function",
      "constant": true
    },
    {
      "stateMutability": "payable",
      "type": "receive",
      "payable": true
    },
    {
      "inputs": [],
      "name": "playerWithdraw",
      "outputs": [],
      "stateMutability": "nonpayable",
      "type": "function"
    },
    {
      "inputs": [
        {
          "internalType": "uint256",
          "name": "idSession",
          "type": "uint256"
        }
      ],
      "name": "refundRNGnotFound",
      "outputs": [],
      "stateMutability": "nonpayable",
      "type": "function"
    },
    {
      "inputs": [
        {
          "internalType": "uint256",
          "name": "idSession",
          "type": "uint256"
        }
      ],
      "name": "requestWinTimeout",
      "outputs": [],
      "stateMutability": "nonpayable",
      "type": "function"
    },
    {
      "inputs": [
        {
          "internalType": "bytes32",
          "name": "word",
          "type": "bytes32"
        }
      ],
      "name": "addWord",
      "outputs": [],
      "stateMutability": "nonpayable",
      "type": "function"
    },
    {
      "inputs": [],
      "name": "openJoinSessionFct",
      "outputs": [],
      "stateMutability": "nonpayable",
      "type": "function"
    },
    {
      "inputs": [],
      "name": "createSession",
      "outputs": [],
      "stateMutability": "payable",
      "type": "function",
      "payable": true
    },
    {
      "inputs": [
        {
          "internalType": "uint256",
          "name": "idSession",
          "type": "uint256"
        }
      ],
      "name": "joinSession",
      "outputs": [
        {
          "internalType": "uint256",
          "name": "requestId",
          "type": "uint256"
        }
      ],
      "stateMutability": "payable",
      "type": "function",
      "payable": true
    },
    {
      "inputs": [
        {
          "internalType": "bytes1",
          "name": "letter",
          "type": "bytes1"
        },
        {
          "internalType": "uint256",
          "name": "idSession",
          "type": "uint256"
        }
      ],
      "name": "play",
      "outputs": [],
      "stateMutability": "nonpayable",
      "type": "function"
    },
    {
      "inputs": [
        {
          "internalType": "uint8",
          "name": "position",
          "type": "uint8"
        },
        {
          "internalType": "bytes1",
          "name": "toInsert",
          "type": "bytes1"
        },
        {
          "internalType": "uint256",
          "name": "idSession",
          "type": "uint256"
        }
      ],
      "name": "replaceBytesAtIndex",
      "outputs": [],
      "stateMutability": "nonpayable",
      "type": "function"
    },
    {
      "inputs": [
        {
          "internalType": "bytes32",
          "name": "word",
          "type": "bytes32"
        },
        {
          "internalType": "bytes1",
          "name": "letter",
          "type": "bytes1"
        },
        {
          "internalType": "uint256",
          "name": "idSession",
          "type": "uint256"
        }
      ],
      "name": "compareAndCopy",
      "outputs": [],
      "stateMutability": "nonpayable",
      "type": "function"
    },
    {
      "inputs": [
        {
          "internalType": "address",
          "name": "player",
          "type": "address"
        }
      ],
      "name": "getPlayerGames",
      "outputs": [
        {
          "internalType": "uint256[]",
          "name": "",
          "type": "uint256[]"
        }
      ],
      "stateMutability": "view",
      "type": "function",
      "constant": true
    },
    {
      "inputs": [
        {
          "internalType": "uint256",
          "name": "idSession",
          "type": "uint256"
        }
      ],
      "name": "getSessionWordLength",
      "outputs": [
        {
          "internalType": "uint8",
          "name": "",
          "type": "uint8"
        }
      ],
      "stateMutability": "view",
      "type": "function",
      "constant": true
    },
    {
      "inputs": [
        {
          "internalType": "bytes1",
          "name": "b",
          "type": "bytes1"
        }
      ],
      "name": "isLetter",
      "outputs": [
        {
          "internalType": "bool",
          "name": "",
          "type": "bool"
        }
      ],
      "stateMutability": "pure",
      "type": "function",
      "constant": true
    },
    {
      "inputs": [],
      "name": "getRandomWords",
      "outputs": [
        {
          "internalType": "uint256[]",
          "name": "",
          "type": "uint256[]"
        }
      ],
      "stateMutability": "view",
      "type": "function",
      "constant": true
    },
    {
      "inputs": [
        {
          "internalType": "uint256",
          "name": "id",
          "type": "uint256"
        }
      ],
      "name": "getStructPartOne",
      "outputs": [
        {
          "internalType": "bool",
          "name": "pOneFoundWord",
          "type": "bool"
        },
        {
          "internalType": "bool",
          "name": "ptwoWin",
          "type": "bool"
        },
        {
          "internalType": "uint256",
          "name": "idSession",
          "type": "uint256"
        },
        {
          "internalType": "address payable",
          "name": "playerOne",
          "type": "address"
        },
        {
          "internalType": "address payable",
          "name": "playerTwo",
          "type": "address"
        },
        {
          "internalType": "uint256",
          "name": "betSize",
          "type": "uint256"
        },
        {
          "internalType": "bytes32",
          "name": "word",
          "type": "bytes32"
        }
      ],
      "stateMutability": "view",
      "type": "function",
      "constant": true
    },
    {
      "inputs": [
        {
          "internalType": "uint256",
          "name": "id",
          "type": "uint256"
        }
      ],
      "name": "getStructPartTwo",
      "outputs": [
        {
          "internalType": "bool",
          "name": "firstLetterRemplaced",
          "type": "bool"
        },
        {
          "internalType": "enum Penduel.StateSession",
          "name": "state",
          "type": "uint8"
        },
        {
          "internalType": "address",
          "name": "mustPlay",
          "type": "address"
        },
        {
          "internalType": "bytes32",
          "name": "playerOneGuess",
          "type": "bytes32"
        },
        {
          "internalType": "bytes32",
          "name": "playerTwoGuess",
          "type": "bytes32"
        }
      ],
      "stateMutability": "view",
      "type": "function",
      "constant": true
    }
  ],
  "bytecode": "0x60008054660100030d40000360a81b600160a81b600160f81b0319909116179055600380546001600160a01b031916736168499c0cffcacd319c818142124b7a15e857ab1790557fd89b2bf150e3b9e13446986e571fb9cab24b13cea0a43ea20a6049a85cc807cc600455620151806005556101806040526468656c6c6f60d81b60a090815266676f6f6462796560c81b60c0526239bab760e91b60e05267686f6c6c6964617960c01b61010052656265666f726560d01b610120526430b33a32b960d91b61014052661cdc1958da585b60ca1b61016052620000e790600690600762000170565b50348015620000f557600080fd5b50604051620022e2380380620022e28339810160408190526200011891620001d7565b6003546001600160a01b03166080819052600080546001600160a01b031990811690921790556008805490911633179055600180546001600160401b039092166001600160401b031990921691909117905562000209565b828054828255906000526020600020908101928215620001ae579160200282015b82811115620001ae57825182559160200191906001019062000191565b50620001bc929150620001c0565b5090565b5b80821115620001bc5760008155600101620001c1565b600060208284031215620001ea57600080fd5b81516001600160401b03811681146200020257600080fd5b9392505050565b6080516120b66200022c60003960008181610c0a0152610c4c01526120b66000f3fe60806040526004361061012e5760003560e01c80639a176dd8116100ab578063ed8f75ca1161006f578063ed8f75ca14610442578063eea0e1a914610462578063f1c8e98f14610482578063f6eaffc814610498578063f851a440146104b8578063ff2c2278146104f057600080fd5b80639a176dd8146102c3578063ce10b1fb146102e3578063dfd3579f146102f8578063e1dd95a4146103a1578063e3d670d71461041557600080fd5b80631fe543e3116100f25780631fe543e31461022e5780632855a6b01461024e57806341fab6c11461026e578063839ecd641461028e57806388b8c487146102ae57600080fd5b8063040d1ed91461016f57806305991eba146101a45780630bcb95aa146101c5578063129daf84146101f75780631cbf1b021461022457600080fd5b3661016a5760405134815233907f88a5966d370b9919b20f3e2c13ff65706f196a4e32cc2c12bf57088f885258749060200160405180910390a2005b600080fd5b34801561017b57600080fd5b5061018f61018a366004611cc8565b610505565b60405190151581526020015b60405180910390f35b6101b76101b2366004611cea565b610547565b60405190815260200161019b565b3480156101d157600080fd5b506101e56101e0366004611cea565b61090b565b60405160ff909116815260200161019b565b34801561020357600080fd5b50610217610212366004611d03565b610a45565b60405161019b9190611d2c565b61022c610ab1565b005b34801561023a57600080fd5b5061022c610249366004611d86565b610bff565b34801561025a57600080fd5b5061022c610269366004611cea565b610c87565b34801561027a57600080fd5b5061022c610289366004611e50565b610d10565b34801561029a57600080fd5b5061022c6102a9366004611e94565b610ef5565b3480156102ba57600080fd5b5061022c610f87565b3480156102cf57600080fd5b5061022c6102de366004611eb9565b610fdc565b3480156102ef57600080fd5b5061021761155b565b34801561030457600080fd5b50610361610313366004611cea565b6000908152600a602052604090208054600182015460088301546009840154600285015460059095015460ff80861697610100909604169593946001600160a01b0393841694939092169291565b6040805197151588529515156020880152948601939093526001600160a01b03918216606086015216608084015260a083015260c082015260e00161019b565b3480156103ad57600080fd5b506104046103bc366004611cea565b6000908152600a60208190526040909120805491810154600682015460079092015460ff62010000909404841694600160a01b8304909416936001600160a01b039092169291565b60405161019b959493929190611ef9565b34801561042157600080fd5b506101b7610430366004611d03565b600b6020526000908152604090205481565b34801561044e57600080fd5b5061022c61045d366004611cea565b6115b3565b34801561046e57600080fd5b5061022c61047d366004611cea565b6118b5565b34801561048e57600080fd5b506101b760075481565b3480156104a457600080fd5b506101b76104b3366004611cea565b611aaf565b3480156104c457600080fd5b506008546104d8906001600160a01b031681565b6040516001600160a01b03909116815260200161019b565b3480156104fc57600080fd5b5061022c611ad0565b6000606160f81b6001600160f81b03198316108015906105335750603d60f91b6001600160f81b0319831611155b61053f57506000919050565b506001919050565b60008054600160a01b900460ff1615156001146105d15760405162461bcd60e51b815260206004820152603a60248201527f4572726f722c207061737420524e4720726571756574206e6f7420616c72656160448201527f647920666f756e642c20706c6561736520747279206c6174657200000000000060648201526084015b60405180910390fd5b6000828152600a60205260409020600801546001600160a01b0316330361064a5760405162461bcd60e51b815260206004820152602760248201527f4572726f722c20796f75722061726520616c726561647920696e20746869732060448201526639b2b9b9b4b7b760c91b60648201526084016105c8565b343331101561066b5760405162461bcd60e51b81526004016105c890611f4c565b6000828152600a602052604090206002015434101561069c5760405162461bcd60e51b81526004016105c890611f4c565b60016000838152600a602081905260409091200154600160a01b900460ff1660038111156106cc576106cc611ee3565b1461073f5760405162461bcd60e51b815260206004820152603860248201527f4572726f722c2073657373696f6e20616c72656164792066756c6c2c2066696e60448201527f6973686564206f7220646f6573206e6f7420657873697374000000000000000060648201526084016105c8565b6000828152600a602052604080822060090180546001600160a01b03191633179055815460ff60a01b198116928390556004805460015493516305d3b1d360e41b81529182015267ffffffffffffffff909216602483015261ffff600160a81b840416604483015263ffffffff600160b81b840481166064840152600160d81b90930490921660848201526001600160a01b0390911690635d3b1d309060a4016020604051808303816000875af11580156107fe573d6000803e3d6000fd5b505050506040513d601f19601f820116820180604052508101906108229190611f81565b6000838152600a602090815260408083206001015484845260099092528083209190915551919250839183917fa6a4b9afd6bd5d3a182e6808e1e19cf6552989ef205ca02279bce85472b4f85e91a36000828152600a602081815260408084204260038201556009810154930180546001600160a01b0319166001600160a01b039094169390931790925533808452600c825282842060075481546001810183559186529483902001939093558151858152908101929092527fa80783b53d1b2057a0c31627ae91183cba1ed5e26a4b1cc8074a90f89c92fa85910160405180910390a1919050565b600060026000838152600a602081905260409091200154600160a01b900460ff16600381111561093d5761093d611ee3565b1480610976575060036000838152600a602081905260409091200154600160a01b900460ff16600381111561097457610974611ee3565b145b6109db5760405162461bcd60e51b815260206004820152603060248201527f4572726f722c20546869732073657373696f6e20646f6573206e6f742068617660448201526f1948185b1c9958591e4818481ddbdc9960821b60648201526084016105c8565b60005b60208160ff16108015610a285750600a6000848152602001908152602001600020600501548160ff1660208110610a1757610a17611f9a565b1a60f81b6001600160f81b03191615155b15610a3f5780610a3781611fc6565b9150506109de565b92915050565b6001600160a01b0381166000908152600c6020908152604091829020805483518184028101840190945280845260609392830182828015610aa557602002820191906000526020600020905b815481526020019060010190808311610a91575b50505050509050919050565b3433311015610ad25760405162461bcd60e51b81526004016105c890611f4c565b60003411610b195760405162461bcd60e51b81526020600482015260146024820152734572726f722c206d696e696d756d20312057454960601b60448201526064016105c8565b60078054906000610b2983611fe5565b9091555050336000818152600c6020908152604080832060078054825460018082018555938752858720015580548552600a808552838620600890810180546001600160a01b03199081168a179091558354808952868920958601559301805490931687179092558054855282852034600290910181905581548652948390209091018054600160a01b60ff60a01b1990911617905554815190815291820193909352918201527f658891ce811ff307aab5be445fb05fffbcd9a125b10915b1aba719e376c537719060600160405180910390a1565b336001600160a01b037f00000000000000000000000000000000000000000000000000000000000000001614610c795760405163073e64fd60e21b81523360048201526001600160a01b037f00000000000000000000000000000000000000000000000000000000000000001660248201526044016105c8565b610c838282611b39565b5050565b6008546001600160a01b03163314610cdb5760405162461bcd60e51b815260206004820152601760248201527631b0b63632b91034b9903737ba103a34329030b236b4b760491b60448201526064016105c8565b600680546001810182556000919091527ff652222313e28459528d920b65115c16c04f3efc82aaedc97be59f3f377c0d3f0155565b6001600160f81b03196000610d26856008611ffe565b6000848152600a60205260408120546001600160f81b0319851660ff9384161c935062010000900490911615159003610dd257610d64856008611ffe565b6000848152600a6020526040902060060180548319166001600160f81b0319871660ff939093169290921c919091179055610da0856008611ffe565b6000848152600a6020526040902060070180548319166001600160f81b0319871660ff939093169290921c9190911790555b6000838152600a6020819052604090912060088101549101546001600160a01b039081169116148015610e1e57506000838152600a602052604090205462010000900460ff1615156001145b15610e6057610e2e856008611ffe565b6000848152600a6020526040902060060180548319166001600160f81b0319871660ff939093169290921c9190911790555b6000838152600a6020819052604090912060098101549101546001600160a01b039081169116148015610eac57506000838152600a602052604090205462010000900460ff1615156001145b15610eee57610ebc856008611ffe565b6000848152600a6020526040902060070180548319166001600160f81b0319871660ff939093169290921c9190911790555b5050505050565b60005b60208160ff16108015610f2c5750838160ff1660208110610f1b57610f1b611f9a565b1a60f81b6001600160f81b03191615155b15610f81576001600160f81b031983168460ff831660208110610f5157610f51611f9a565b1a60f81b6001600160f81b03191603610f6f57610f6f818484610d10565b80610f7981611fc6565b915050610ef8565b50505050565b336000818152600b6020526040808220805490839055905190929183919081818185875af1925050503d8060008114610f81576040519150601f19603f3d011682016040523d82523d6000602084013e610f81565b6000818152600a60208190526040909120015481906001600160a01b0316331461103b5760405162461bcd60e51b815260206004820152601060248201526f34b9903737ba103cb7bab9103a3ab93760811b60448201526064016105c8565b61104483610505565b15156001146110a35760405162461bcd60e51b815260206004820152602560248201527f4572726f722c206f6e6c79206c6f77657263617365206c657474657220616363604482015264195c1d195960da1b60648201526084016105c8565b60026000838152600a602081905260409091200154600160a01b900460ff1660038111156110d3576110d3611ee3565b146111345760405162461bcd60e51b815260206004820152602b60248201527f4572726f722c20746869732067616d652073657373696f6e206973206e6f742060448201526a696e2070726f677265737360a81b60648201526084016105c8565b6000828152600a60205260409020600901546001600160a01b031661119b5760405162461bcd60e51b815260206004820181905260248201527f4572726f722c20617761697420666f722061207365636f6e6420706c6179657260448201526064016105c8565b6000828152600a6020526040812060050154901a60f81b6001600160f81b03191660000361121b5760405162461bcd60e51b815260206004820152602760248201527f524e4720776f7264206e6f7420616c726561647920666f756e642c20706c65616044820152661cd9481dd85a5d60ca1b60648201526084016105c8565b6000828152600a60205260409020600801546001600160a01b031633036114af576000828152600a6020526040902060050154611259908484610ef5565b6000828152600a60208190526040909120600981015491810180546001600160a01b0319166001600160a01b0390931692909217909155426004820155600681015460059091015403611401576000828152600a60205260409020805460ff191660019081179182905561010090910460ff1615159003611371576000828152600a60208181526040808420928301805460ff60a01b1916600360a01b17905560028301546008909301546001600160a01b03168452600b9091528220805491929091611327908490612027565b90915550506000828152600a6020908152604080832060028101546009909101546001600160a01b03168452600b909252822080549192909161136b908490612027565b90915550505b6000828152600a6020526040812054610100900460ff1615159003611401576000828152600a60208190526040909120908101805460ff60a01b1916600360a01b1790556002908101546113c49161203f565b6000838152600a60209081526040808320600801546001600160a01b03168352600b909152812080549091906113fb908490612027565b90915550505b6000828152600a602052604090205460ff610100909104161515600114801561143957506000828152600a602052604090205460ff16155b156114af576000828152600a60208190526040909120908101805460ff60a01b1916600360a01b1790556002908101546114729161203f565b6000838152600a60209081526040808320600901546001600160a01b03168352600b909152812080549091906114a9908490612027565b90915550505b6000828152600a60205260409020600901546001600160a01b03163303611556576000828152600a60205260409020600501546114ed908484610ef5565b6000828152600a60208190526040909120600881015491810180546001600160a01b0319166001600160a01b0390931692909217909155426004820155600781015460059091015403611556576000828152600a60205260409020805461ff0019166101001790555b505050565b606060028054806020026020016040519081016040528092919081815260200182805480156115a957602002820191906000526020600020905b815481526020019060010190808311611595575b5050505050905090565b6000818152600a60205260409020600401546005546115d29190612027565b42116116205760405162461bcd60e51b815260206004820152601a60248201527f4572726f722c2054696d654f7574204e6f74205265616368656400000000000060448201526064016105c8565b6000818152600a60205260409020600801546001600160a01b031633148061166157506000818152600a60205260409020600901546001600160a01b031633145b6116a75760405162461bcd60e51b815260206004820152601760248201527622b93937b916102737ba103cb7bab91039b2b9b9b4b7b760491b60448201526064016105c8565b60026000828152600a602081905260409091200154600160a01b900460ff1660038111156116d7576116d7611ee3565b1461172e5760405162461bcd60e51b815260206004820152602160248201527f4572726f722c2073657373696f6e206973206e6f7420696e2070726f677265736044820152607360f81b60648201526084016105c8565b6000818152600a6020819052604090912060098101549101546001600160a01b03908116911614801561177a57506000818152600a60205260409020600801546001600160a01b031633145b156117f0576000818152600a60208190526040909120908101805460ff60a01b1916600360a01b1790556002908101546117b39161203f565b6000828152600a60209081526040808320600801546001600160a01b03168352600b909152812080549091906117ea908490612027565b90915550505b6000818152600a6020819052604090912060088101549101546001600160a01b03908116911614801561183c57506000818152600a60205260409020600901546001600160a01b031633145b156118b2576000818152600a60208190526040909120908101805460ff60a01b1916600360a01b1790556002908101546118759161203f565b6000828152600a60209081526040808320600901546001600160a01b03168352600b909152812080549091906118ac908490612027565b90915550505b50565b6000818152600a60205260409020600801546001600160a01b03163314806118f657506000818152600a60205260409020600901546001600160a01b031633145b61193c5760405162461bcd60e51b815260206004820152601760248201527622b93937b916102737ba103cb7bab91039b2b9b9b4b7b760491b60448201526064016105c8565b6000818152600a6020526040812060050154901a60f81b6001600160f81b0319166000036119ac5760405162461bcd60e51b815260206004820152601d60248201527f4572726f722c20524e4720776f726420616c726561647920666f756e6400000060448201526064016105c8565b6000818152600a60205260409020600301546119ca90612a30612027565b4211611a185760405162461bcd60e51b815260206004820152601a60248201527f4572726f722c2054696d654f7574204e6f74205265616368656400000000000060448201526064016105c8565b6000818152600a60208181526040808420928301805460ff60a01b1916600360a01b17905560028301546008909301546001600160a01b03168452600b9091528220805491929091611a6b908490612027565b90915550506000818152600a6020908152604080832060028101546009909101546001600160a01b03168452600b90925282208054919290916118ac908490612027565b60028181548110611abf57600080fd5b600091825260209091200154905081565b6008546001600160a01b03163314611b245760405162461bcd60e51b815260206004820152601760248201527631b0b63632b91034b9903737ba103a34329030b236b4b760491b60448201526064016105c8565b6000805460ff60a01b1916600160a01b179055565b600060068054905082600081518110611b5457611b54611f9a565b6020026020010151611b66919061205e565b905060068181548110611b7b57611b7b611f9a565b6000918252602080832090910154858352600982526040808420548452600a909252818320600501555184917fa8e40739d15b1a795084e7aceb618f6570b720eff3825b72abcfcc948cf6509c91a26000805460ff60a01b1916600160a01b178155838152600960209081526040808320548352600a90915281205462010000900460ff1615159003611c6a57600083815260096020818152604080842054808552600a83529084206005015487855292909152611c3f9282901a60f81b90610ef5565b6000838152600960209081526040808320548352600a9091529020805462ff00001916620100001790555b5050600090815260096020908152604080832080548452600a928390528184204260049091015554835290912001805460ff60a01b1916600160a11b179055565b80356001600160f81b031981168114611cc357600080fd5b919050565b600060208284031215611cda57600080fd5b611ce382611cab565b9392505050565b600060208284031215611cfc57600080fd5b5035919050565b600060208284031215611d1557600080fd5b81356001600160a01b0381168114611ce357600080fd5b6020808252825182820181905260009190848201906040850190845b81811015611d6457835183529284019291840191600101611d48565b50909695505050505050565b634e487b7160e01b600052604160045260246000fd5b60008060408385031215611d9957600080fd5b8235915060208084013567ffffffffffffffff80821115611db957600080fd5b818601915086601f830112611dcd57600080fd5b813581811115611ddf57611ddf611d70565b8060051b604051601f19603f83011681018181108582111715611e0457611e04611d70565b604052918252848201925083810185019189831115611e2257600080fd5b938501935b82851015611e4057843584529385019392850192611e27565b8096505050505050509250929050565b600080600060608486031215611e6557600080fd5b833560ff81168114611e7657600080fd5b9250611e8460208501611cab565b9150604084013590509250925092565b600080600060608486031215611ea957600080fd5b83359250611e8460208501611cab565b60008060408385031215611ecc57600080fd5b611ed583611cab565b946020939093013593505050565b634e487b7160e01b600052602160045260246000fd5b851515815260a0810160048610611f2057634e487b7160e01b600052602160045260246000fd5b60208201959095526001600160a01b039390931660408401526060830191909152608090910152919050565b6020808252818101527f4572726f722c20696e737566666963656e74207661756c742062616c616e6365604082015260600190565b600060208284031215611f9357600080fd5b5051919050565b634e487b7160e01b600052603260045260246000fd5b634e487b7160e01b600052601160045260246000fd5b600060ff821660ff8103611fdc57611fdc611fb0565b60010192915050565b600060018201611ff757611ff7611fb0565b5060010190565b600060ff821660ff84168160ff048111821515161561201f5761201f611fb0565b029392505050565b6000821982111561203a5761203a611fb0565b500190565b600081600019048311821515161561205957612059611fb0565b500290565b60008261207b57634e487b7160e01b600052601260045260246000fd5b50069056fea264697066735822122019f24756e5570cc17b53b7519fe4a7b07a0fce30a57a410869522768f02cd41f64736f6c634300080f0033",
  "immutableReferences": {
    "1553": [
      {
        "length": 32,
        "start": 3082
      },
      {
        "length": 32,
        "start": 3148
      }
    ]
  },
  "source": "/// SPDX-License-Identifier: MIT\r\n\r\npragma solidity 0.8.15;\r\n\r\nimport \"../node_modules/@chainlink/contracts/src/v0.8/VRFConsumerBaseV2.sol\";\r\nimport \"../node_modules/@chainlink/contracts/src/v0.8/interfaces/VRFCoordinatorV2Interface.sol\";\r\n\r\n\r\n/// @title Penduel\r\n/// @author jw418\r\n/// @notice Versus hangman's game \r\n/// @dev This contract can cointains exploit, deploy this contract on tesnet only!!\r\ncontract Penduel is VRFConsumerBaseV2{\r\n    VRFCoordinatorV2Interface COORDINATOR;\r\n\r\n    /* Chainlink's VRF V2  variables */\r\n    bool joinSessionFctOpen;\r\n    uint16 requestConfirmations = 3;        // The default is 3, but you can set this higher.\r\n    uint32 callbackGasLimit = 200000;\r\n    uint32 numWords =  1;                   // Number of random number at each request.\r\n    uint64 s_subscriptionId;                // Your subscription ID for CHAINLINK   // 8023  \r\n    uint256[] public s_randomWords;         // For the FullFill Fct                   \r\n    address vrfCoordinator = 0x6168499c0cFfCaCD319c818142124B7A15E857ab;        // Rinkeby coordinator  \r\n    bytes32 s_keyHash = 0xd89b2bf150e3b9e13446986e571fb9cab24b13cea0a43ea20a6049a85cc807cc;  \r\n\r\n    \r\n    uint timeOut = 24 hours;     \r\n    bytes32[] _words = [\r\n        bytes32(\"hello\"),bytes32(\"goodbye\"),bytes32(\"sun\"),\r\n        bytes32(\"holliday\"),bytes32(\"before\"),bytes32(\"after\"),\r\n        bytes32(\"special\")\r\n    ];      \r\n    uint256 public totalCreatedSessions;\r\n      \r\n    address payable public admin; \r\n\r\n    /* Mapping*/\r\n    mapping(uint256 => uint256) private reqId;                  //  associate a request with a game session\r\n    mapping(uint256 => Sessions) private session;               //  mapping an uint(idSession) with a session    \r\n    mapping(address => uint256) public balance;                 //  gamers balances\r\n    mapping(address => Player) playerGames;                     //  attached a gamer addres with his sessions\r\n    \r\n    struct Sessions {\r\n        bool playerOneFoundWord;\r\n        bool playerTwoFoundWord;\r\n        bool firstLetterRemplaced;\r\n        uint8 wordLegth;\r\n        uint256 idSession;   \r\n        uint256 betSize;\r\n        uint rngRequestDate; \r\n        uint lastMoveDate;                         \r\n        bytes32 word;        \r\n        bytes32 playerOneGuess;\r\n        bytes32 playerTwoGuess;\r\n        address payable playerOne;\r\n        address payable playerTwo;\r\n        address mustPlay;   \r\n        StateSession  state;\r\n    }\r\n\r\n    struct Player{\r\n        uint256[] games;\r\n\r\n    }\r\n\r\n    struct ReachableSession{\r\n        uint256 idSession;\r\n        uint256 betSize;\r\n        address playerOne;\r\n    }\r\n\r\n    //ReachableSessions[] public reachableSession;\r\n\r\n    enum StateSession {\r\n        NotCreated,\r\n        Reachable,\r\n        InProgress,\r\n        Finished\r\n    } \r\n\r\n    modifier onlyAdmin() {\r\n        require(msg.sender == admin, \"caller is not the admin\");\r\n        _;\r\n    }\r\n\r\n    modifier onlyPlayer(uint256 idSession) {\r\n        require(msg.sender == session[idSession].mustPlay, \"is not your turn\");\r\n        _;\r\n    }\r\n\r\n    /* Events */\r\n    event Withdraw(address admin, uint256 amount);\r\n    event Received(address indexed sender, uint256 amount);\r\n    event SessionCreated(uint idSession, address playerOne, uint256 betSize);\r\n    event SessionJoined(uint idSession, address playerTwo);\r\n    event RNGRequested(uint256 indexed requestId, uint256 indexed idSession);\r\n    event RNGFound(uint256 indexed requestId);\r\n\r\n\r\n    /* Constructor*/\r\n    /// @dev go to your chainlink account to see your subcription ID \r\n    /// @dev when the contract is deployed do not forget to add this contract to your consumer\r\n    constructor(uint64 subscriptionId) VRFConsumerBaseV2(vrfCoordinator) {    \r\n        COORDINATOR = VRFCoordinatorV2Interface(vrfCoordinator);\r\n        admin = payable(msg.sender);\r\n        s_subscriptionId = subscriptionId;\r\n    }\r\n\r\n    /* Allows this contract to receive payments */\r\n    receive() external payable {\r\n        emit Received(msg.sender, msg.value);\r\n    }    \r\n\r\n    /// @notice a withdraw function for players\r\n    function playerWithdraw() external {  \r\n        uint toSend = balance[msg.sender];\r\n        balance[msg.sender]=0;\r\n\t\tmsg.sender.call{ value: toSend }(\"\");             \r\n    }\r\n\r\n    /// @param idSession uint256 for identify the session\r\n    /// @notice if chainlink took too many times for given a rng the player can ask for a refund \r\n    function refundRNGnotFound(uint256 idSession) public {\r\n        require(msg.sender == session[idSession].playerOne || msg.sender == session[idSession].playerTwo, \"Error, Not your session\");\r\n        require(session[idSession].word[0] != \"\",\"Error, RNG word already found\");\r\n        require(block.timestamp > (session[idSession].rngRequestDate + 3 hours), \"Error, TimeOut Not Reached\");        \r\n        session[idSession].state = StateSession.Finished;\r\n        balance[session[idSession].playerOne] += session[idSession].betSize;\r\n        balance[session[idSession].playerTwo] += session[idSession].betSize;\r\n    }\r\n\r\n    /// @param idSession uint256 for identify the session\r\n    /// @notice if the opponent player took too many times for playing you can ask for a win by TimeOut\r\n    function requestWinTimeout(uint256 idSession) public {\r\n        require(block.timestamp > (timeOut + session[idSession].lastMoveDate), \"Error, TimeOut Not Reached\");\r\n        require(msg.sender == session[idSession].playerOne || msg.sender == session[idSession].playerTwo, \"Error, Not your session\");\r\n        require(session[idSession].state == StateSession.InProgress,\"Error, session is not in progress\");\r\n\r\n        if(session[idSession].mustPlay == session[idSession].playerTwo && msg.sender == session[idSession].playerOne) {\r\n            session[idSession].state = StateSession.Finished;\r\n            balance[session[idSession].playerOne] += session[idSession].betSize*2;\r\n        }\r\n        if(session[idSession].mustPlay == session[idSession].playerOne && msg.sender == session[idSession].playerTwo) {\r\n            session[idSession].state = StateSession.Finished;\r\n            balance[session[idSession].playerTwo] += session[idSession].betSize*2;\r\n        }\r\n    }\r\n\r\n    /// @param word it is a bytes32\r\n    /// @notice allows the owner to add words to the list for the game\r\n    function addWord(bytes32 word) external onlyAdmin {\r\n        _words.push(word);  \r\n    }  \r\n\r\n    /// @dev first make sure that the contract has been added to the consumers on your chainlik subscription management page\r\n    /// @notice autorised players to use the joinSession Function     \r\n    function openJoinSessionFct() external onlyAdmin {\r\n        joinSessionFctOpen = true;  \r\n    }    \r\n   \r\n    /// @notice for create a new game session\r\n    function createSession() payable public {\r\n        require(msg.sender.balance>=msg.value, 'Error, insufficent vault balance');\r\n        require(msg.value > 0, 'Error, minimum 1 WEI');\r\n        totalCreatedSessions++;\r\n        playerGames[msg.sender].games.push(totalCreatedSessions);\r\n        session[totalCreatedSessions].playerOne = payable(msg.sender); \r\n        session[totalCreatedSessions].idSession = totalCreatedSessions;\r\n        session[totalCreatedSessions].playerOne = payable(msg.sender);\r\n        session[totalCreatedSessions].betSize = msg.value;        \r\n        session[totalCreatedSessions].state = StateSession.Reachable;\r\n        // reachableSession[totalCreatedSessions].idSession = totalCreatedSessions;\r\n        // reachableSession[totalCreatedSessions].betSize = msg.value;\r\n        // reachableSession[totalCreatedSessions].playerOne = msg.sender;\r\n\r\n        emit SessionCreated(totalCreatedSessions, msg.sender, msg.value);\r\n    }\r\n\r\n    /// @dev this function request for randomness\r\n    /// @notice for join a session already created\r\n    function joinSession(uint256 idSession) payable public returns (uint256 requestId){\r\n        require(joinSessionFctOpen == true, 'Error, past RNG requet not already found, please try later');\r\n        require(msg.sender != session[idSession].playerOne, 'Error, your are already in this session');\r\n        require(msg.sender.balance >= msg.value, 'Error, insufficent vault balance');\r\n        require(msg.value >= session[idSession].betSize, 'Error, insufficent vault balance');\r\n        require(session[idSession].state == StateSession.Reachable, 'Error, session already full, finished or does not exsist');     \r\n        \r\n        session[idSession].playerTwo = payable(msg.sender);\r\n        joinSessionFctOpen = false;\r\n        requestId = COORDINATOR.requestRandomWords(\r\n            s_keyHash,\r\n            s_subscriptionId,\r\n            requestConfirmations,\r\n            callbackGasLimit,\r\n            numWords\r\n        );\r\n        reqId[requestId] = session[idSession].idSession;         // here we mapping request id with a session       \r\n        emit RNGRequested(requestId, idSession);\r\n        session[idSession].rngRequestDate = block.timestamp;        \r\n        session[idSession].mustPlay = session[idSession].playerTwo;\r\n        playerGames[msg.sender].games.push(totalCreatedSessions);\r\n        emit SessionJoined(idSession, msg.sender);\r\n    }\r\n\r\n    /// @param requestId uint256 for identify the rng request\r\n    /// @param randomWords is a mandatory arry for this chainlink function\r\n    /// @dev The fulfillRandomWords function must not revert\r\n    /// @notice this function is call by the vrf coordinator and permit to attribute a rng word to the session\r\n    function fulfillRandomWords(uint256 requestId, uint256[] memory randomWords) internal  override{\r\n        uint256 value = randomWords[0] % _words.length;\r\n        session[reqId[requestId]].word = _words[value]; \r\n        // emitting event to signal rng was founded\r\n        emit RNGFound(requestId);        \r\n        joinSessionFctOpen = true;\r\n\r\n        // here we remplaced the first letter     \r\n        if(session[reqId[requestId]].firstLetterRemplaced == false){\r\n            compareAndCopy(session[reqId[requestId]].word, session[reqId[requestId]].word[0], reqId[requestId]);\r\n            session[reqId[requestId]].firstLetterRemplaced = true;\r\n        }\r\n        session[reqId[requestId]].lastMoveDate = block.timestamp;   // start timeout counter\r\n        session[reqId[requestId]].state = StateSession.InProgress;  // rng was founded so we can open the session       \r\n    }    \r\n\r\n    /// @param idSession uint256 for identify the session\r\n    /// @param letter played in bytes1      \r\n    /// @notice the playing function of this dapp\r\n    function play(bytes1 letter, uint256 idSession) public  onlyPlayer(idSession) {        \r\n        require(isLetter(letter) == true, \"Error, only lowercase letter accepted\"); \r\n        require(session[idSession].state == StateSession.InProgress,\"Error, this game session is not in progress\");\r\n        require(session[idSession].playerTwo != address(0x0), \"Error, await for a second player\");\r\n        require(session[idSession].word[0] != \"\", \"RNG word not already found, please wait\");      \r\n      \r\n        // when Player One plays\r\n        if (msg.sender == session[idSession].playerOne) {             \r\n            compareAndCopy(session[idSession].word, letter, idSession);            \r\n            session[idSession].mustPlay = session[idSession].playerTwo;\r\n            session[idSession].lastMoveDate = block.timestamp;\r\n           \r\n            // Player one Find the word\r\n            if(session[idSession].word == session[idSession].playerOneGuess) {\r\n                session[idSession].playerOneFoundWord = true;\r\n\r\n                // Draw\r\n                if(session[idSession].playerTwoFoundWord == true){\r\n                    session[idSession].state = StateSession.Finished;\r\n                    balance[session[idSession].playerOne] += session[idSession].betSize;\r\n                    balance[session[idSession].playerTwo] += session[idSession].betSize;\r\n                }\r\n                \r\n                // Player one Win\r\n                if(session[idSession].playerTwoFoundWord == false) {                \r\n                session[idSession].state = StateSession.Finished;\r\n                balance[session[idSession].playerOne] += session[idSession].betSize*2;\r\n                }\r\n            } \r\n\r\n            // Player Two Win: Player Two find the word and player not found it\r\n            if(session[idSession].playerTwoFoundWord == true && (session[idSession].playerOneFoundWord == false)){\r\n                session[idSession].state = StateSession.Finished;\r\n                balance[session[idSession].playerTwo] += session[idSession].betSize*2;\r\n            }\r\n\r\n        }\r\n\r\n         // when Player One plays\r\n        if (msg.sender == session[idSession].playerTwo){\r\n            compareAndCopy(session[idSession].word, letter, idSession);            \r\n            session[idSession].mustPlay = session[idSession].playerOne;\r\n            session[idSession].lastMoveDate = block.timestamp;\r\n\r\n            // Player Two find the world \r\n            if(session[idSession].word == session[idSession].playerTwoGuess) {\r\n                session[idSession].playerTwoFoundWord = true;\r\n            } \r\n        }        \r\n    }\r\n\r\n    /// @param position of the letter to change\r\n    /// @param toInsert letter to copy in bytes1 \r\n    /// @param idSession uint256 for identify the session \r\n    /// @notice replaceBytesAtIndex\r\n    function replaceBytesAtIndex(uint8 position, bytes1 toInsert, uint256 idSession) public {\r\n        bytes1 maskBytes = 0xff;\r\n        bytes32 mask = bytes32(maskBytes) >> (position * 8);\r\n\r\n        if(session[idSession].firstLetterRemplaced == false){\r\n            session[idSession].playerOneGuess = (~mask & session[idSession].playerOneGuess) | (bytes32(toInsert) >> (position * 8));\r\n            session[idSession].playerTwoGuess = (~mask & session[idSession].playerTwoGuess) | (bytes32(toInsert) >> (position * 8));\r\n        }  \r\n            \r\n        if(session[idSession].mustPlay == session[idSession].playerOne && session[idSession].firstLetterRemplaced == true){\r\n            session[idSession].playerOneGuess = (~mask & session[idSession].playerOneGuess) | (bytes32(toInsert) >> (position * 8));         \r\n        }\r\n        if(session[idSession].mustPlay == session[idSession].playerTwo && session[idSession].firstLetterRemplaced == true){\r\n           session[idSession].playerTwoGuess = (~mask & session[idSession].playerTwoGuess) | (bytes32(toInsert) >> (position * 8));\r\n        }        \r\n    }\r\n\r\n    /// @param word to compare\r\n    /// @param letter to check \r\n    /// @param idSession uint256 for identify the session \r\n    /// @notice compare and copy identical letter  \r\n    function compareAndCopy(bytes32 word, bytes1 letter, uint256 idSession) public{\r\n        for(uint8 i=0; i < 32 && word[i] != 0; i++){\r\n            if(word[i] == letter) {                \r\n                replaceBytesAtIndex(i, letter, idSession);                \r\n                                 \r\n            }\r\n        }       \r\n    }\r\n\r\n    /// @param player address of the player\r\n    /// @notice get the lit of the games for a given player address\r\n    function getPlayerGames(address player) public view returns (uint256[] memory) {\r\n        return playerGames[player].games;\r\n    }\r\n\r\n    /// @param idSession uint256 for identify the session\r\n    /// @notice get the word legth for a given session\r\n    function getSessionWordLength(uint256 idSession) public view returns (uint8){\r\n        require(session[idSession].state == StateSession.InProgress || session[idSession].state == StateSession.Finished, \"Error, This session does not have already a word\");\r\n        uint8 i = 0;\r\n        while(i < 32 && session[idSession].word[i] != 0) {\r\n            i++;\r\n        }\r\n        return i;\r\n    }\r\n\r\n    /// @param b bytes1 to check if is letter or not\r\n    /// @notice check if is a letter\r\n    function isLetter(bytes1 b) public pure returns (bool) {        \r\n        if(!(b >= 0x61 && b<= 0x7A)) {  //a-z              \r\n                return false;\r\n        }                \r\n        return true;\r\n    }  \r\n\r\n    // pour test fct a supprimer\r\n    function getRandomWords() public view returns (uint256[] memory){\r\n      return s_randomWords;\r\n    }\r\n\r\n    // function getReachableSession() public view returns(ReachableSession[] memory){\r\n     \r\n    // }\r\n\r\n    function getStructPartOne(uint256 id) public  view returns(bool pOneFoundWord, bool ptwoWin,uint256 idSession , address payable playerOne, address payable playerTwo, uint256 betSize, bytes32 word){\r\n        return (session[id].playerOneFoundWord, session[id].playerTwoFoundWord, session[id].idSession, session[id].playerOne, session[id].playerTwo, session[id].betSize, session[id].word);\r\n    }\r\n\r\n    function getStructPartTwo(uint256 id) public view returns(bool firstLetterRemplaced, StateSession  state, address mustPlay, bytes32  playerOneGuess, bytes32 playerTwoGuess){\r\n        return (session[id].firstLetterRemplaced ,session[id].state, session[id].mustPlay, session[id].playerOneGuess, session[id].playerTwoGuess);\r\n    }\r\n\r\n\r\n}",
  "sourcePath": "C:\\Users\\juwol\\Desktop\\DEV\\Penduel_certif\\Penduel\\contracts\\Penduel.sol",
  "compiler": {
    "name": "solc",
    "version": "0.8.15+commit.e14f2714.Emscripten.clang"
  },
  "schemaVersion": "3.4.6",
  "updatedAt": "2022-07-30T04:25:46.382Z",
  "networkType": "ethereum",
  "devdoc": {
    "author": "jw418",
    "details": "This contract can cointains exploit, deploy this contract on tesnet only!!",
    "kind": "dev",
    "methods": {
      "addWord(bytes32)": {
        "params": {
          "word": "it is a bytes32"
        }
      },
      "compareAndCopy(bytes32,bytes1,uint256)": {
        "params": {
          "idSession": "uint256 for identify the session ",
          "letter": "to check ",
          "word": "to compare"
        }
      },
      "constructor": {
        "details": "go to your chainlink account to see your subcription ID when the contract is deployed do not forget to add this contract to your consumer"
      },
      "getPlayerGames(address)": {
        "params": {
          "player": "address of the player"
        }
      },
      "getSessionWordLength(uint256)": {
        "params": {
          "idSession": "uint256 for identify the session"
        }
      },
      "isLetter(bytes1)": {
        "params": {
          "b": "bytes1 to check if is letter or not"
        }
      },
      "joinSession(uint256)": {
        "details": "this function request for randomness"
      },
      "openJoinSessionFct()": {
        "details": "first make sure that the contract has been added to the consumers on your chainlik subscription management page"
      },
      "play(bytes1,uint256)": {
        "params": {
          "idSession": "uint256 for identify the session",
          "letter": "played in bytes1      "
        }
      },
      "refundRNGnotFound(uint256)": {
        "params": {
          "idSession": "uint256 for identify the session"
        }
      },
      "replaceBytesAtIndex(uint8,bytes1,uint256)": {
        "params": {
          "idSession": "uint256 for identify the session ",
          "position": "of the letter to change",
          "toInsert": "letter to copy in bytes1 "
        }
      },
      "requestWinTimeout(uint256)": {
        "params": {
          "idSession": "uint256 for identify the session"
        }
      }
    },
    "title": "Penduel",
    "version": 1
  },
  "userdoc": {
    "kind": "user",
    "methods": {
      "addWord(bytes32)": {
        "notice": "allows the owner to add words to the list for the game"
      },
      "compareAndCopy(bytes32,bytes1,uint256)": {
        "notice": "compare and copy identical letter  "
      },
      "createSession()": {
        "notice": "for create a new game session"
      },
      "getPlayerGames(address)": {
        "notice": "get the lit of the games for a given player address"
      },
      "getSessionWordLength(uint256)": {
        "notice": "get the word legth for a given session"
      },
      "isLetter(bytes1)": {
        "notice": "check if is a letter"
      },
      "joinSession(uint256)": {
        "notice": "for join a session already created"
      },
      "openJoinSessionFct()": {
        "notice": "autorised players to use the joinSession Function     "
      },
      "play(bytes1,uint256)": {
        "notice": "the playing function of this dapp"
      },
      "playerWithdraw()": {
        "notice": "a withdraw function for players"
      },
      "refundRNGnotFound(uint256)": {
        "notice": "if chainlink took too many times for given a rng the player can ask for a refund "
      },
      "replaceBytesAtIndex(uint8,bytes1,uint256)": {
        "notice": "replaceBytesAtIndex"
      },
      "requestWinTimeout(uint256)": {
        "notice": "if the opponent player took too many times for playing you can ask for a win by TimeOut"
      }
    },
    "notice": "Versus hangman's game ",
    "version": 1
  }
}