{
  "contractName": "Penduel",
  "abi": [
    {
      "inputs": [
        {
          "internalType": "uint64",
          "name": "subscriptionId",
          "type": "uint64"
        }
      ],
      "stateMutability": "nonpayable",
      "type": "constructor"
    },
    {
      "inputs": [
        {
          "internalType": "address",
          "name": "have",
          "type": "address"
        },
        {
          "internalType": "address",
          "name": "want",
          "type": "address"
        }
      ],
      "name": "OnlyCoordinatorCanFulfill",
      "type": "error"
    },
    {
      "anonymous": false,
      "inputs": [
        {
          "indexed": false,
          "internalType": "uint256",
          "name": "idSession",
          "type": "uint256"
        },
        {
          "indexed": false,
          "internalType": "address",
          "name": "player",
          "type": "address"
        }
      ],
      "name": "HasPlayed",
      "type": "event"
    },
    {
      "anonymous": false,
      "inputs": [
        {
          "indexed": true,
          "internalType": "address",
          "name": "previousOwner",
          "type": "address"
        },
        {
          "indexed": true,
          "internalType": "address",
          "name": "newOwner",
          "type": "address"
        }
      ],
      "name": "OwnershipTransferred",
      "type": "event"
    },
    {
      "anonymous": false,
      "inputs": [
        {
          "indexed": true,
          "internalType": "uint256",
          "name": "requestId",
          "type": "uint256"
        }
      ],
      "name": "RNGFound",
      "type": "event"
    },
    {
      "anonymous": false,
      "inputs": [
        {
          "indexed": true,
          "internalType": "uint256",
          "name": "requestId",
          "type": "uint256"
        },
        {
          "indexed": true,
          "internalType": "uint256",
          "name": "idSession",
          "type": "uint256"
        }
      ],
      "name": "RNGRequested",
      "type": "event"
    },
    {
      "anonymous": false,
      "inputs": [
        {
          "indexed": false,
          "internalType": "uint256[]",
          "name": "randomWords",
          "type": "uint256[]"
        }
      ],
      "name": "RandomWordsTaken",
      "type": "event"
    },
    {
      "anonymous": false,
      "inputs": [
        {
          "indexed": true,
          "internalType": "address",
          "name": "sender",
          "type": "address"
        },
        {
          "indexed": false,
          "internalType": "uint256",
          "name": "amount",
          "type": "uint256"
        }
      ],
      "name": "Received",
      "type": "event"
    },
    {
      "anonymous": false,
      "inputs": [
        {
          "indexed": false,
          "internalType": "uint256",
          "name": "idSession",
          "type": "uint256"
        },
        {
          "indexed": false,
          "internalType": "address",
          "name": "playerOne",
          "type": "address"
        },
        {
          "indexed": false,
          "internalType": "uint256",
          "name": "betSize",
          "type": "uint256"
        }
      ],
      "name": "SessionCreated",
      "type": "event"
    },
    {
      "anonymous": false,
      "inputs": [
        {
          "indexed": false,
          "internalType": "uint256",
          "name": "idSession",
          "type": "uint256"
        },
        {
          "indexed": false,
          "internalType": "address",
          "name": "playerTwo",
          "type": "address"
        }
      ],
      "name": "SessionJoined",
      "type": "event"
    },
    {
      "anonymous": false,
      "inputs": [
        {
          "indexed": false,
          "internalType": "address",
          "name": "admin",
          "type": "address"
        },
        {
          "indexed": false,
          "internalType": "uint256",
          "name": "amount",
          "type": "uint256"
        }
      ],
      "name": "Withdraw",
      "type": "event"
    },
    {
      "anonymous": false,
      "inputs": [],
      "name": "WordAdded",
      "type": "event"
    },
    {
      "anonymous": false,
      "inputs": [
        {
          "indexed": false,
          "internalType": "bool",
          "name": "paused",
          "type": "bool"
        }
      ],
      "name": "joinSessionFctPaused",
      "type": "event"
    },
    {
      "inputs": [
        {
          "internalType": "address",
          "name": "",
          "type": "address"
        }
      ],
      "name": "balance",
      "outputs": [
        {
          "internalType": "uint256",
          "name": "",
          "type": "uint256"
        }
      ],
      "stateMutability": "view",
      "type": "function",
      "constant": true
    },
    {
      "inputs": [],
      "name": "joinSessionFctOpen",
      "outputs": [
        {
          "internalType": "bool",
          "name": "",
          "type": "bool"
        }
      ],
      "stateMutability": "view",
      "type": "function",
      "constant": true
    },
    {
      "inputs": [],
      "name": "owner",
      "outputs": [
        {
          "internalType": "address",
          "name": "",
          "type": "address"
        }
      ],
      "stateMutability": "view",
      "type": "function",
      "constant": true
    },
    {
      "inputs": [
        {
          "internalType": "uint256",
          "name": "requestId",
          "type": "uint256"
        },
        {
          "internalType": "uint256[]",
          "name": "randomWords",
          "type": "uint256[]"
        }
      ],
      "name": "rawFulfillRandomWords",
      "outputs": [],
      "stateMutability": "nonpayable",
      "type": "function"
    },
    {
      "inputs": [],
      "name": "renounceOwnership",
      "outputs": [],
      "stateMutability": "nonpayable",
      "type": "function"
    },
    {
      "inputs": [
        {
          "internalType": "uint256",
          "name": "",
          "type": "uint256"
        }
      ],
      "name": "s_randomWords",
      "outputs": [
        {
          "internalType": "uint256",
          "name": "",
          "type": "uint256"
        }
      ],
      "stateMutability": "view",
      "type": "function",
      "constant": true
    },
    {
      "inputs": [],
      "name": "s_subscriptionId",
      "outputs": [
        {
          "internalType": "uint64",
          "name": "",
          "type": "uint64"
        }
      ],
      "stateMutability": "view",
      "type": "function",
      "constant": true
    },
    {
      "inputs": [
        {
          "internalType": "uint256",
          "name": "",
          "type": "uint256"
        }
      ],
      "name": "sessionPublic",
      "outputs": [
        {
          "internalType": "address payable",
          "name": "playerOne",
          "type": "address"
        },
        {
          "internalType": "address payable",
          "name": "playerTwo",
          "type": "address"
        },
        {
          "internalType": "address",
          "name": "mustPlay",
          "type": "address"
        },
        {
          "internalType": "uint8",
          "name": "wordLegth",
          "type": "uint8"
        },
        {
          "internalType": "uint256",
          "name": "idSession",
          "type": "uint256"
        },
        {
          "internalType": "uint256",
          "name": "betSize",
          "type": "uint256"
        },
        {
          "internalType": "bytes32",
          "name": "playerOneGuess",
          "type": "bytes32"
        },
        {
          "internalType": "bytes32",
          "name": "playerTwoGuess",
          "type": "bytes32"
        },
        {
          "internalType": "enum Penduel.StateSession",
          "name": "state",
          "type": "uint8"
        }
      ],
      "stateMutability": "view",
      "type": "function",
      "constant": true
    },
    {
      "inputs": [],
      "name": "totalCreatedSessions",
      "outputs": [
        {
          "internalType": "uint256",
          "name": "",
          "type": "uint256"
        }
      ],
      "stateMutability": "view",
      "type": "function",
      "constant": true
    },
    {
      "inputs": [
        {
          "internalType": "address",
          "name": "newOwner",
          "type": "address"
        }
      ],
      "name": "transferOwnership",
      "outputs": [],
      "stateMutability": "nonpayable",
      "type": "function"
    },
    {
      "stateMutability": "payable",
      "type": "receive",
      "payable": true
    },
    {
      "inputs": [],
      "name": "playerWithdraw",
      "outputs": [],
      "stateMutability": "nonpayable",
      "type": "function"
    },
    {
      "inputs": [
        {
          "internalType": "uint256",
          "name": "idSession",
          "type": "uint256"
        }
      ],
      "name": "refundRNGnotFound",
      "outputs": [],
      "stateMutability": "nonpayable",
      "type": "function"
    },
    {
      "inputs": [
        {
          "internalType": "uint256",
          "name": "idSession",
          "type": "uint256"
        }
      ],
      "name": "requestWinTimeout",
      "outputs": [],
      "stateMutability": "nonpayable",
      "type": "function"
    },
    {
      "inputs": [
        {
          "internalType": "uint256",
          "name": "idSession",
          "type": "uint256"
        }
      ],
      "name": "requestCancelGame",
      "outputs": [],
      "stateMutability": "nonpayable",
      "type": "function"
    },
    {
      "inputs": [
        {
          "internalType": "bytes32",
          "name": "word",
          "type": "bytes32"
        }
      ],
      "name": "addWord",
      "outputs": [],
      "stateMutability": "nonpayable",
      "type": "function"
    },
    {
      "inputs": [],
      "name": "openJoinSessionFct",
      "outputs": [],
      "stateMutability": "nonpayable",
      "type": "function"
    },
    {
      "inputs": [],
      "name": "pausedJoinSessionFct",
      "outputs": [],
      "stateMutability": "nonpayable",
      "type": "function"
    },
    {
      "inputs": [],
      "name": "createSession",
      "outputs": [],
      "stateMutability": "payable",
      "type": "function",
      "payable": true
    },
    {
      "inputs": [
        {
          "internalType": "uint256",
          "name": "idSession",
          "type": "uint256"
        }
      ],
      "name": "joinSession",
      "outputs": [
        {
          "internalType": "uint256",
          "name": "requestId",
          "type": "uint256"
        }
      ],
      "stateMutability": "payable",
      "type": "function",
      "payable": true
    },
    {
      "inputs": [
        {
          "internalType": "bytes1",
          "name": "letter",
          "type": "bytes1"
        },
        {
          "internalType": "uint256",
          "name": "idSession",
          "type": "uint256"
        }
      ],
      "name": "play",
      "outputs": [],
      "stateMutability": "nonpayable",
      "type": "function"
    },
    {
      "inputs": [
        {
          "internalType": "address",
          "name": "player",
          "type": "address"
        }
      ],
      "name": "getPlayerGames",
      "outputs": [
        {
          "internalType": "uint256[]",
          "name": "",
          "type": "uint256[]"
        }
      ],
      "stateMutability": "view",
      "type": "function",
      "constant": true
    }
  ],
  "bytecode": "0x60018054660100030d40000360a01b600160a01b600160f01b0319909116179055600480546001600160a01b031916736168499c0cffcacd319c818142124b7a15e857ab1790557fd89b2bf150e3b9e13446986e571fb9cab24b13cea0a43ea20a6049a85cc807cc600555620151806008556101806040526468656c6c6f60d81b60a090815266676f6f6462796560c81b60c0526239bab760e91b60e05267686f6c6c6964617960c01b61010052656265666f726560d01b610120526430b33a32b960d91b61014052661cdc1958da585b60ca1b61016052620000e7906009906007620001cb565b50348015620000f557600080fd5b50604051620025e6380380620025e6833981016040819052620001189162000232565b6004546001600160a01b031660805262000132336200017b565b600454600180546001600160a01b0319166001600160a01b03909216919091179055600280546001600160401b039092166001600160401b031990921691909117905562000264565b600080546001600160a01b038381166001600160a01b0319831681178455604051919092169283917f8be0079c531659141344cd1fd0a4f28419497f9722a3daafe3b4186f6b6457e09190a35050565b82805482825590600052602060002090810192821562000209579160200282015b8281111562000209578251825591602001919060010190620001ec565b50620002179291506200021b565b5090565b5b808211156200021757600081556001016200021c565b6000602082840312156200024557600080fd5b81516001600160401b03811681146200025d57600080fd5b9392505050565b60805161235f62000287600039600081816109dd0152610a1f015261235f6000f3fe60806040526004361061012e5760003560e01c80638ac00021116100ab578063ed8f75ca1161006f578063ed8f75ca146103ce578063eea0e1a9146103ee578063f1c8e98f1461040e578063f2fde38b14610424578063f6eaffc814610444578063ff2c22781461046457600080fd5b80638ac00021146102ff5780638da5cb5b146103395780639a176dd814610361578063cac6875b14610381578063e3d670d7146103a157600080fd5b8063587e2d67116100f2578063587e2d671461020c578063609dbc3f14610221578063715018a6146102ab57806387d01002146102c057806388b8c487146102ea57600080fd5b806305991eba1461016f578063129daf84146101955780631cbf1b02146101c25780631fe543e3146101cc5780632855a6b0146101ec57600080fd5b3661016a5760405134815233907f88a5966d370b9919b20f3e2c13ff65706f196a4e32cc2c12bf57088f885258749060200160405180910390a2005b600080fd5b61018261017d366004611f8e565b610479565b6040519081526020015b60405180910390f35b3480156101a157600080fd5b506101b56101b0366004611fa7565b6107ff565b60405161018c9190611fd7565b6101ca61086b565b005b3480156101d857600080fd5b506101ca6101e7366004612031565b6109d2565b3480156101f857600080fd5b506101ca610207366004611f8e565b610a5a565b34801561021857600080fd5b506101ca610ac0565b34801561022d57600080fd5b5061029661023c366004611f8e565b600e60205260009081526040902080546001820154600283015460038401546004850154600586015460068701546007909701546001600160a01b03968716979587169685169560ff600160a01b90960486169590911689565b60405161018c99989796959493929190612111565b3480156102b757600080fd5b506101ca610b52565b3480156102cc57600080fd5b506006546102da9060ff1681565b604051901515815260200161018c565b3480156102f657600080fd5b506101ca610b66565b34801561030b57600080fd5b506002546103209067ffffffffffffffff1681565b60405167ffffffffffffffff909116815260200161018c565b34801561034557600080fd5b506000546040516001600160a01b03909116815260200161018c565b34801561036d57600080fd5b506101ca61037c36600461218a565b610c37565b34801561038d57600080fd5b506101ca61039c366004611f8e565b61120c565b3480156103ad57600080fd5b506101826103bc366004611fa7565b600f6020526000908152604090205481565b3480156103da57600080fd5b506101ca6103e9366004611f8e565b611381565b3480156103fa57600080fd5b506101ca610409366004611f8e565b61163d565b34801561041a57600080fd5b5061018260075481565b34801561043057600080fd5b506101ca61043f366004611fa7565b6117ff565b34801561045057600080fd5b5061018261045f366004611f8e565b611875565b34801561047057600080fd5b506101ca611896565b60065460009060ff1615156001146104d85760405162461bcd60e51b815260206004820181905260248201527f4572726f722c207061737420524e4772657175657374206e6f7420666f756e6460448201526064015b60405180910390fd5b6000828152600e60205260409020546001600160a01b0316330361053e5760405162461bcd60e51b815260206004820152601e60248201527f4572726f722c20616c726561647920696e20746869732073657373696f6e000060448201526064016104cf565b343331101561055f5760405162461bcd60e51b81526004016104cf906121c3565b6000828152600e60205260409020600401543410156105905760405162461bcd60e51b81526004016104cf906121c3565b60016000838152600e602052604090206007015460ff1660088111156105b8576105b86120fb565b146106055760405162461bcd60e51b815260206004820152601a60248201527f4572726f722c2073657373696f6e20756e726561636861626c6500000000000060448201526064016104cf565b6000828152600e60208181526040808420600180820180546001600160a01b03191633179055600d8452919094204260029182015592909152600790920180549192909160ff1916908302179055506006805460ff191690556001546005546002546040516305d3b1d360e41b8152600481019290925267ffffffffffffffff166024820152600160a01b820461ffff166044820152600160b01b820463ffffffff9081166064830152600160d01b83041660848201526001600160a01b0390911690635d3b1d309060a4016020604051808303816000875af11580156106f0573d6000803e3d6000fd5b505050506040513d601f19601f8201168201806040525081019061071491906121f8565b6000838152600d6020908152604080832060010154848452600b8352818420819055600c9092528083209190915551919250839183917fa6a4b9afd6bd5d3a182e6808e1e19cf6552989ef205ca02279bce85472b4f85e91a36000828152600e60209081526040808320600180820154600290920180546001600160a01b0319166001600160a01b0390931692909217909155338085526010845282852080549283018155855293839020018590558051858152918201929092527fa80783b53d1b2057a0c31627ae91183cba1ed5e26a4b1cc8074a90f89c92fa85910160405180910390a1919050565b6001600160a01b03811660009081526010602090815260409182902080548351818402810184019094528084526060939283018282801561085f57602002820191906000526020600020905b81548152602001906001019080831161084b575b50505050509050919050565b343331101561088c5760405162461bcd60e51b81526004016104cf906121c3565b600034116108d35760405162461bcd60e51b81526020600482015260146024820152734572726f722c206d696e696d756d20312057454960601b60448201526064016104cf565b600780549060006108e383612227565b909155505033600081815260106020908152604080832060078054825460018082018555938752858720015580548552600e80855283862080546001600160a01b031990811689179091558254808852600d8088528689208601829055838852868920600381019290925581549092168917905582548752848720346004909101819055835488529086528487204260029091015582548752908552948390208101805460ff191690921790915554815190815291820193909352918201527f658891ce811ff307aab5be445fb05fffbcd9a125b10915b1aba719e376c53771906060015b60405180910390a1565b336001600160a01b037f00000000000000000000000000000000000000000000000000000000000000001614610a4c5760405163073e64fd60e21b81523360048201526001600160a01b037f00000000000000000000000000000000000000000000000000000000000000001660248201526044016104cf565b610a568282611925565b5050565b610a62611b02565b6009805460018101825560009182527f6e1540171b6c0c960b71a7020d9f60077f6af931a8bbf590da0223dacf75c7af018290556040517f50f2e462284e93994cad5dff94a7ec49bd0c2ecc0e1760f97ab4119f94088e969190a150565b610ac8611b02565b60065460ff161515600114610b175760405162461bcd60e51b8152602060048201526015602482015274115c9c9bdc8b08105b1c9958591e481c185d5cd959605a1b60448201526064016104cf565b6006805460ff19169055604051600181527faf166ad2efafa5c1ed3693ccef8cdbcb4a5ae4e275bf8d6058c8e552dd8e1b7c906020016109c8565b610b5a611b02565b610b646000611b5c565b565b336000818152600f6020526040808220805490839055905190929083908381818185875af1925050503d8060008114610bbb576040519150601f19603f3d011682016040523d82523d6000602084013e610bc0565b606091505b5050905080610a565760405162461bcd60e51b815260206004820152603a60248201527f416464726573733a20756e61626c6520746f2073656e642076616c75652c207260448201527f6563697069656e74206d6179206861766520726576657274656400000000000060648201526084016104cf565b6000818152600e602052604090206002015481906001600160a01b03163314610c955760405162461bcd60e51b815260206004820152601060248201526f34b9903737ba103cb7bab9103a3ab93760811b60448201526064016104cf565b610c9e83611bac565b1515600114610cef5760405162461bcd60e51b815260206004820152601c60248201527f4572726f722c206f6e6c79206c6f77657263617365206c65747465720000000060448201526064016104cf565b60026000838152600e602052604090206007015460ff166008811115610d1757610d176120fb565b14610d645760405162461bcd60e51b815260206004820152601e60248201527f4572726f722c2073657373696f6e206e6f7420696e2070726f6772657373000060448201526064016104cf565b6000828152600e60205260409020600101546001600160a01b0316610dcb5760405162461bcd60e51b815260206004820181905260248201527f4572726f722c20617761697420666f722061207365636f6e6420706c6179657260448201526064016104cf565b6000828152600d6020526040812060040154901a60f81b6001600160f81b031916600003610e3b5760405162461bcd60e51b815260206004820152601a60248201527f524e4720776f7264206e6f7420616c726561647920666f756e6400000000000060448201526064016104cf565b6000828152600e60205260409020546001600160a01b03163303611108576000828152600d6020526040902060040154610e76908484611bee565b6000828152600e6020818152604080842060018101546002820180546001600160a01b0319166001600160a01b03928316179055600d84529482902042600390910155928252915482518681529316908301527faf25da1bf081dfe4bee184c74033eef31f84dd5dd5ec20e84da603183c21c7ef910160405180910390a16000828152600e6020908152604080832060050154600d9092529091206004015403611061576000828152600d60205260409020805460ff191660019081179182905561010090910460ff1615159003610fdc576000828152600e6020908152604080832060078101805460ff19166005179055600481015490546001600160a01b03168452600f9092528220805491929091610f92908490612256565b90915550506000828152600e6020908152604080832060048101546001909101546001600160a01b03168452600f9092528220805491929091610fd6908490612256565b90915550505b6000828152600d6020526040812054610100900460ff1615159003611061576000828152600e6020526040902060078101805460ff1916600317905560040154611027906002612269565b6000838152600e60209081526040808320546001600160a01b03168352600f9091528120805490919061105b908490612256565b90915550505b6000828152600d602052604090205460ff610100909104161515600114801561109957506000828152600d602052604090205460ff16155b15611108576000828152600e6020526040902060078101805460ff1916600490811790915501546110cb906002612269565b6000838152600e60209081526040808320600101546001600160a01b03168352600f90915281208054909190611102908490612256565b90915550505b6000828152600e60205260409020600101546001600160a01b03163303611207576000828152600d6020526040902060040154611146908484611bee565b6000828152600e6020818152604080842080546002820180546001600160a01b0319166001600160a01b03928316179055600d8452948290204260039091015592825260019092015482518681529316908301527faf25da1bf081dfe4bee184c74033eef31f84dd5dd5ec20e84da603183c21c7ef910160405180910390a16000828152600e6020908152604080832060060154600d9092529091206004015403611207576000828152600d60205260409020805461ff0019166101001790555b505050565b6000818152600e60205260409020546001600160a01b031633146112725760405162461bcd60e51b815260206004820152601760248201527f4572726f722c206e6f7420796f75722073657373696f6e00000000000000000060448201526064016104cf565b60016000828152600e602052604090206007015460ff16600881111561129a5761129a6120fb565b146112f25760405162461bcd60e51b815260206004820152602260248201527f73657373696f6e206973206e6f7420696e20726561636861626c652073746174604482015261032960f51b60648201526084016104cf565b6008546000828152600d60205260409020600201546113119190612256565b421161132f5760405162461bcd60e51b81526004016104cf90612288565b6000818152600e6020908152604080832060078101805460ff19166006179055600481015490546001600160a01b03168452600f9092528220805491929091611379908490612256565b909155505050565b6000818152600d60205260409020600301546008546113a09190612256565b42116113be5760405162461bcd60e51b81526004016104cf90612288565b6000818152600e60205260409020546001600160a01b03163314801561140757506000818152600e6020526040902060018101546002909101546001600160a01b039081169116145b8061145657506000818152600e60205260409020600101546001600160a01b03163314801561145657506000818152600e6020526040902080546002909101546001600160a01b039081169116145b6114b25760405162461bcd60e51b815260206004820152602760248201527f6f70706f6e656e742068617320706c61796564204f52206e6f7420796f75722060448201526639b2b9b9b4b7b760c91b60648201526084016104cf565b60026000828152600e602052604090206007015460ff1660088111156114da576114da6120fb565b146115315760405162461bcd60e51b815260206004820152602160248201527f4572726f722c2073657373696f6e206973206e6f7420696e2070726f677265736044820152607360f81b60648201526084016104cf565b6000818152600e60205260409020546001600160a01b031633036115b6576000818152600e602052604090206007808201805460ff191690911790556004015461157c906002612269565b6000828152600e60209081526040808320546001600160a01b03168352600f909152812080549091906115b0908490612256565b90915550505b6000818152600e60205260409020600101546001600160a01b0316330361163a576000818152600e6020526040902060078101805460ff1916600817905560040154611603906002612269565b6000828152600e60209081526040808320600101546001600160a01b03168352600f90915281208054909190611379908490612256565b50565b6000818152600e60205260409020546001600160a01b031633148061167b57506000818152600e60205260409020600101546001600160a01b031633145b6116c75760405162461bcd60e51b815260206004820152601760248201527f4572726f722c204e6f7420796f75722073657373696f6e00000000000000000060448201526064016104cf565b6000818152600d60205260408120600401546001600160f81b0319911a60f81b16156117355760405162461bcd60e51b815260206004820152601d60248201527f4572726f722c20524e4720776f726420616c726561647920666f756e6400000060448201526064016104cf565b6000818152600d602052604090206002015461175390612a30612256565b42116117715760405162461bcd60e51b81526004016104cf90612288565b6000818152600e6020908152604080832060078101805460ff19166006179055600481015490546001600160a01b03168452600f90925282208054919290916117bb908490612256565b90915550506000818152600e6020908152604080832060048101546001909101546001600160a01b03168452600f9092528220805491929091611379908490612256565b611807611b02565b6001600160a01b03811661186c5760405162461bcd60e51b815260206004820152602660248201527f4f776e61626c653a206e6577206f776e657220697320746865207a65726f206160448201526564647265737360d01b60648201526084016104cf565b61163a81611b5c565b6003818154811061188557600080fd5b600091825260209091200154905081565b61189e611b02565b60065460ff16156118e75760405162461bcd60e51b815260206004820152601360248201527222b93937b9161020b63932b0b23c9037b832b760691b60448201526064016104cf565b6006805460ff19166001179055604051600081527faf166ad2efafa5c1ed3693ccef8cdbcb4a5ae4e275bf8d6058c8e552dd8e1b7c906020016109c8565b60006009805490508260008151811061194057611940612240565b602002602001015161195291906122bf565b90506009818154811061196757611967612240565b6000918252602080832090910154858352600b808352604080852080548652600d85529085206004019290925592869052919052546119a590611c80565b6000848152600c60209081526040808320548352600e909152808220600201805460ff94909416600160a01b0260ff60a01b1990941693909317909255905184917fa8e40739d15b1a795084e7aceb618f6570b720eff3825b72abcfcc948cf6509c91a27fe11a34280e4fe3f36870e1b808058087c13155acaecd91f00f88ea0fdd3fff7482604051611a389190611fd7565b60405180910390a16006805460ff191660011790556000838152600b60209081526040808320548352600d90915281205462010000900460ff1615159003611adc576000838152600b6020818152604080842054808552600d83529084206004015487855292909152611ab19282901a60f81b90611bee565b6000838152600b60209081526040808320548352600d9091529020805462ff00001916620100001790555b50506000908152600b60209081526040808320548352600d909152902042600390910155565b6000546001600160a01b03163314610b645760405162461bcd60e51b815260206004820181905260248201527f4f776e61626c653a2063616c6c6572206973206e6f7420746865206f776e657260448201526064016104cf565b600080546001600160a01b038381166001600160a01b0319831681178455604051919092169283917f8be0079c531659141344cd1fd0a4f28419497f9722a3daafe3b4186f6b6457e09190a35050565b6000606160f81b6001600160f81b0319831610801590611bda5750603d60f91b6001600160f81b0319831611155b611be657506000919050565b506001919050565b60005b60208160ff16108015611c255750838160ff1660208110611c1457611c14612240565b1a60f81b6001600160f81b03191615155b15611c7a576001600160f81b031983168460ff831660208110611c4a57611c4a612240565b1a60f81b6001600160f81b03191603611c6857611c68818484611dac565b80611c72816122e1565b915050611bf1565b50505050565b6000806000838152600e602052604090206007015460ff166008811115611ca957611ca96120fb565b14158015611cdd575060016000838152600e602052604090206007015460ff166008811115611cda57611cda6120fb565b14155b611d425760405162461bcd60e51b815260206004820152603060248201527f4572726f722c20546869732073657373696f6e20646f6573206e6f742068617660448201526f1948185b1c9958591e4818481ddbdc9960821b60648201526084016104cf565b60005b60208160ff16108015611d8f5750600d6000848152602001908152602001600020600401548160ff1660208110611d7e57611d7e612240565b1a60f81b6001600160f81b03191615155b15611da65780611d9e816122e1565b915050611d45565b92915050565b6001600160f81b03196000611dc2856008612300565b6000848152600d60205260408120546001600160f81b0319851660ff9384161c935062010000900490911615159003611e6e57611e00856008612300565b6000848152600e6020526040902060050180548319166001600160f81b0319871660ff939093169290921c919091179055611e3c856008612300565b6000848152600e6020526040902060060180548319166001600160f81b0319871660ff939093169290921c9190911790555b6000838152600e6020526040902080546002909101546001600160a01b039081169116148015611eb757506000838152600d602052604090205462010000900460ff1615156001145b15611ef957611ec7856008612300565b6000848152600e6020526040902060050180548319166001600160f81b0319871660ff939093169290921c9190911790555b6000838152600e6020526040902060018101546002909101546001600160a01b039081169116148015611f4557506000838152600d602052604090205462010000900460ff1615156001145b15611f8757611f55856008612300565b6000848152600e6020526040902060060180548319166001600160f81b0319871660ff939093169290921c9190911790555b5050505050565b600060208284031215611fa057600080fd5b5035919050565b600060208284031215611fb957600080fd5b81356001600160a01b0381168114611fd057600080fd5b9392505050565b6020808252825182820181905260009190848201906040850190845b8181101561200f57835183529284019291840191600101611ff3565b50909695505050505050565b634e487b7160e01b600052604160045260246000fd5b6000806040838503121561204457600080fd5b8235915060208084013567ffffffffffffffff8082111561206457600080fd5b818601915086601f83011261207857600080fd5b81358181111561208a5761208a61201b565b8060051b604051601f19603f830116810181811085821117156120af576120af61201b565b6040529182528482019250838101850191898311156120cd57600080fd5b938501935b828510156120eb578435845293850193928501926120d2565b8096505050505050509250929050565b634e487b7160e01b600052602160045260246000fd5b6001600160a01b038a8116825289811660208301528816604082015260ff871660608201526080810186905260a0810185905260c0810184905260e0810183905261012081016009831061217557634e487b7160e01b600052602160045260246000fd5b826101008301529a9950505050505050505050565b6000806040838503121561219d57600080fd5b82356001600160f81b0319811681146121b557600080fd5b946020939093013593505050565b6020808252818101527f4572726f722c20696e737566666963656e74207661756c742062616c616e6365604082015260600190565b60006020828403121561220a57600080fd5b5051919050565b634e487b7160e01b600052601160045260246000fd5b60006001820161223957612239612211565b5060010190565b634e487b7160e01b600052603260045260246000fd5b80820180821115611da657611da6612211565b600081600019048311821515161561228357612283612211565b500290565b6020808252601a908201527f4572726f722c2054696d654f7574204e6f742052656163686564000000000000604082015260600190565b6000826122dc57634e487b7160e01b600052601260045260246000fd5b500690565b600060ff821660ff81036122f7576122f7612211565b60010192915050565b600060ff821660ff84168160ff048111821515161561232157612321612211565b02939250505056fea2646970667358221220c74c19a74f3ab5ef47fa0aba2e1f5eed649393a4a8bd32f6b8e880b1fffc2c2c64736f6c63430008100033",
  "immutableReferences": {
    "1628": [
      {
        "length": 32,
        "start": 2525
      },
      {
        "length": 32,
        "start": 2591
      }
    ]
  },
  "source": "/// SPDX-License-Identifier: MIT\r\n\r\npragma solidity 0.8.16;\r\n\r\nimport \"../node_modules/@openzeppelin/contracts/access/Ownable.sol\";\r\nimport \"../node_modules/@chainlink/contracts/src/v0.8/interfaces/VRFCoordinatorV2Interface.sol\";\r\nimport \"../node_modules/@chainlink/contracts/src/v0.8/VRFConsumerBaseV2.sol\";\r\n\r\n\r\n/// @title Penduel\r\n/// @author jw418\r\n/// @notice Versus hangman's game \r\n/// @dev This contract can cointains exploit, deploy this contract on tesnet only!!\r\ncontract Penduel is VRFConsumerBaseV2, Ownable {\r\n    VRFCoordinatorV2Interface COORDINATOR;\r\n\r\n    /* Chainlink's VRF V2  variables */\r\n    \r\n    uint16 requestConfirmations = 3;        // The default is 3, but you can set this higher.\r\n    uint32 callbackGasLimit = 200000;       \r\n    uint32 numWords =  1;                   // Number of random number at each request.\r\n    uint64  public s_subscriptionId;                // Your subscription ID for CHAINLINK   // 8023  \r\n    uint256[] public s_randomWords;         // For the FullFill Fct                   \r\n    address vrfCoordinator = 0x6168499c0cFfCaCD319c818142124B7A15E857ab;   // Rinkeby coordinator 30 gwei Key Hash\r\n    bytes32 s_keyHash = 0xd89b2bf150e3b9e13446986e571fb9cab24b13cea0a43ea20a6049a85cc807cc; // 30 gwei Key Hash\r\n     \r\n    bool public joinSessionFctOpen;\r\n    uint256 public totalCreatedSessions;\r\n    uint timeOut = 24 hours;     \r\n    bytes32[] _words = [\r\n        bytes32(\"hello\"),bytes32(\"goodbye\"),bytes32(\"sun\"),\r\n        bytes32(\"holliday\"),bytes32(\"before\"),bytes32(\"after\"),\r\n        bytes32(\"special\")\r\n    ];      \r\n      \r\n\r\n    Sessions[] games;\r\n\r\n    /* Mapping*/\r\n    mapping(uint256 => uint256) private reqId;                  //  associate a request with a game session\r\n    mapping(uint256 => uint256) private reqIdPublic; \r\n    mapping(uint256 => Sessions) private session;               //  mapping an uint(idSession) with a session \r\n    mapping(uint256 => SessionPublic) public sessionPublic;  \r\n    mapping(address => uint256) public balance;                 //  gamers balances\r\n    mapping(address => Player) playerGames;                     //  attached a gamer addres with his sessions\r\n\r\n    \r\n    struct Sessions {\r\n        bool playerOneFoundWord;\r\n        bool playerTwoFoundWord;\r\n        bool firstLetterRemplaced;\r\n        uint256 idSession;   \r\n        uint requestDate; \r\n        uint lastMoveDate;                         \r\n        bytes32 word;        \r\n    }\r\n\r\n    struct SessionPublic{\r\n        address payable playerOne;\r\n        address payable playerTwo;\r\n        address mustPlay;   \r\n        uint8 wordLegth;\r\n        uint256 idSession; \r\n        uint256 betSize;\r\n        bytes32 playerOneGuess;\r\n        bytes32 playerTwoGuess;\r\n        StateSession  state;        \r\n    }\r\n\r\n    struct Player{\r\n        uint256[] games;\r\n    }\r\n\r\n    enum StateSession {\r\n        NotCreated,\r\n        Reachable,\r\n        InProgress,\r\n        PlayerOneWin,\r\n        PlayerTwoWin,\r\n        Draw,\r\n        Cancelled,\r\n        POneWinByTimeout,\r\n        PTwoWinByTimeout\r\n    } \r\n\r\n    modifier onlyPlayer(uint256 idSession) {\r\n        require(msg.sender == sessionPublic[idSession].mustPlay, \"is not your turn\");\r\n        _;\r\n    }\r\n\r\n    /* Events */\r\n    event Withdraw(address admin, uint256 amount);\r\n    event Received(address indexed sender, uint256 amount);\r\n    event SessionCreated(uint idSession, address playerOne, uint256 betSize);\r\n    event SessionJoined(uint idSession, address playerTwo);\r\n    event RNGRequested(uint256 indexed requestId, uint256 indexed idSession);\r\n    event RNGFound(uint256 indexed requestId);\r\n    event RandomWordsTaken(uint256[] randomWords);\r\n    event WordAdded();\r\n    event HasPlayed(uint256 idSession, address player);\r\n    event joinSessionFctPaused(bool paused);\r\n    \r\n\r\n  /* Constructor*/\r\n    /// @dev go to your chainlink account to see your subcription ID \r\n    /// @dev when the contract is deployed do not forget to add this contract to your consumer\r\n    constructor(uint64 subscriptionId) VRFConsumerBaseV2(vrfCoordinator) {    \r\n        COORDINATOR = VRFCoordinatorV2Interface(vrfCoordinator);       \r\n        s_subscriptionId = subscriptionId;\r\n    }\r\n\r\n    /* Allows this contract to receive payments */\r\n    receive() external payable {\r\n        emit Received(msg.sender, msg.value);\r\n    }    \r\n\r\n    /// @notice a withdraw function for players\r\n    function playerWithdraw() external {  \r\n        uint toSend = balance[msg.sender];\r\n        balance[msg.sender]=0;\r\n\t\t(bool success, ) = msg.sender.call{ value: toSend }(\"\"); \r\n        require(success, \"Address: unable to send value, recipient may have reverted\");            \r\n    }\r\n\r\n    /// @param idSession uint256 for identify the session\r\n    /// @notice if chainlink took too many times for given a rng the player can ask for a refund \r\n    function refundRNGnotFound(uint256 idSession) external {\r\n        require(msg.sender == sessionPublic[idSession].playerOne || msg.sender == sessionPublic[idSession].playerTwo, \"Error, Not your session\");\r\n        require(session[idSession].word[0] == \"\",\"Error, RNG word already found\"); \r\n        require(block.timestamp > (session[idSession].requestDate + 3 hours), \"Error, TimeOut Not Reached\");        \r\n        sessionPublic[idSession].state = StateSession.Cancelled;\r\n        balance[sessionPublic[idSession].playerOne] += sessionPublic[idSession].betSize;\r\n        balance[sessionPublic[idSession].playerTwo] += sessionPublic[idSession].betSize;\r\n    }\r\n\r\n    /// @param idSession uint256 for identify the session\r\n    /// @notice if the opponent player took too many times for playing you can ask for a win by TimeOut\r\n    function requestWinTimeout(uint256 idSession) external {\r\n        require(block.timestamp > (timeOut + session[idSession].lastMoveDate), \"Error, TimeOut Not Reached\");    \r\n        require((msg.sender == sessionPublic[idSession].playerOne && sessionPublic[idSession].mustPlay == sessionPublic[idSession].playerTwo) || (msg.sender == sessionPublic[idSession].playerTwo && sessionPublic[idSession].mustPlay == sessionPublic[idSession].playerOne), \"opponent has played OR not your session\");\r\n        require(sessionPublic[idSession].state == StateSession.InProgress,\"Error, session is not in progress\");\r\n        \r\n\r\n        if(msg.sender == sessionPublic[idSession].playerOne) {\r\n            sessionPublic[idSession].state = StateSession.POneWinByTimeout;\r\n            balance[sessionPublic[idSession].playerOne] += sessionPublic[idSession].betSize*2;\r\n        }\r\n        if(msg.sender == sessionPublic[idSession].playerTwo) {\r\n            sessionPublic[idSession].state = StateSession.PTwoWinByTimeout;\r\n            balance[sessionPublic[idSession].playerTwo] += sessionPublic[idSession].betSize*2;\r\n        }\r\n    }\r\n\r\n    /// @param idSession uint256 for identify the session\r\n    /// @notice 24hours after the creation of the game the creator can cancel it if no one join it\r\n    function requestCancelGame(uint256 idSession) external {\r\n        require(msg.sender == sessionPublic[idSession].playerOne, \"Error, not your session\");\r\n        require(sessionPublic[idSession].state == StateSession.Reachable,\"session is not in reachable state \");\r\n        require(block.timestamp > (session[idSession].requestDate + timeOut) , \"Error, TimeOut Not Reached\");\r\n\r\n        sessionPublic[idSession].state = StateSession.Cancelled;\r\n        balance[sessionPublic[idSession].playerOne] += sessionPublic[idSession].betSize;\r\n    }\r\n\r\n    /// @param word it is a bytes32\r\n    /// @notice allows the owner to add words to the list for the game\r\n    function addWord(bytes32 word) external onlyOwner {\r\n        _words.push(word);\r\n        emit WordAdded();  \r\n    }  \r\n\r\n    /// @dev first make sure that the contract has been added to the consumers on your chainlik subscription management page\r\n    /// @notice autorised players to use the joinSession Function     \r\n    function openJoinSessionFct() external onlyOwner {\r\n        require(joinSessionFctOpen == false,\"Error, Already open\");\r\n        joinSessionFctOpen = true;\r\n        emit joinSessionFctPaused(false);  \r\n    }   \r\n\r\n     \r\n    /// @notice unautorised players to use the joinSession Function     \r\n    function pausedJoinSessionFct() external onlyOwner {\r\n        require(joinSessionFctOpen == true,\"Error, Already paused\");\r\n        joinSessionFctOpen = false;\r\n        emit joinSessionFctPaused(true);  \r\n    }     \r\n   \r\n    /// @notice for create a new game session\r\n    function createSession() external payable {\r\n        require(msg.sender.balance>=msg.value, 'Error, insufficent vault balance');\r\n        require(msg.value > 0, 'Error, minimum 1 WEI');\r\n        totalCreatedSessions++;\r\n        playerGames[msg.sender].games.push(totalCreatedSessions);\r\n        sessionPublic[totalCreatedSessions].playerOne = payable(msg.sender); \r\n        session[totalCreatedSessions].idSession = totalCreatedSessions;\r\n        sessionPublic[totalCreatedSessions].idSession = totalCreatedSessions;\r\n        sessionPublic[totalCreatedSessions].playerOne = payable(msg.sender);\r\n        sessionPublic[totalCreatedSessions].betSize = msg.value; \r\n        session[totalCreatedSessions].requestDate = block.timestamp;       \r\n        sessionPublic[totalCreatedSessions].state = StateSession.Reachable;\r\n\r\n        emit SessionCreated(totalCreatedSessions, msg.sender, msg.value);\r\n    }\r\n\r\n    /// @dev this function request for randomness\r\n    /// @notice for join a session already created\r\n    function joinSession(uint256 idSession) external payable  returns (uint256 requestId){\r\n        require(joinSessionFctOpen == true, 'Error, past RNGrequest not found');\r\n        require(msg.sender != sessionPublic[idSession].playerOne, 'Error, already in this session');\r\n        require(msg.sender.balance >= msg.value, 'Error, insufficent vault balance');\r\n        require(msg.value >= sessionPublic[idSession].betSize, 'Error, insufficent vault balance');\r\n        require(sessionPublic[idSession].state == StateSession.Reachable, 'Error, session unreachable');     \r\n        \r\n        sessionPublic[idSession].playerTwo = payable(msg.sender);\r\n        session[idSession].requestDate = block.timestamp;        \r\n        sessionPublic[idSession].state = StateSession.InProgress;\r\n        joinSessionFctOpen = false;\r\n        requestId = COORDINATOR.requestRandomWords(\r\n            s_keyHash,\r\n            s_subscriptionId,\r\n            requestConfirmations,\r\n            callbackGasLimit,\r\n            numWords\r\n        );\r\n        reqId[requestId] = session[idSession].idSession;                // here we mapping request id with a session\r\n        reqIdPublic[requestId] = session[idSession].idSession;    // same here with the public part for the front-end \r\n        emit RNGRequested(requestId, idSession);\r\n        sessionPublic[idSession].mustPlay = sessionPublic[idSession].playerTwo;\r\n        playerGames[msg.sender].games.push(idSession);\r\n        emit SessionJoined(idSession, msg.sender);\r\n    }\r\n\r\n    /// @param requestId uint256 for identify the rng request\r\n    /// @param randomWords is a mandatory arry for this chainlink function\r\n    /// @dev The fulfillRandomWords function must not revert\r\n    /// @notice this function is call by the vrf coordinator and permit to attribute a rng word to the session\r\n    function fulfillRandomWords(uint256 requestId, uint256[] memory randomWords) internal  override{\r\n        uint256 value = randomWords[0] % _words.length;\r\n        session[reqId[requestId]].word = _words[value];        \r\n        sessionPublic[reqIdPublic[requestId]].wordLegth = getSessionWordLength(reqId[requestId]); \r\n        // emitting event to signal rng was founded\r\n        emit RNGFound(requestId);\r\n        emit RandomWordsTaken(randomWords);        \r\n        joinSessionFctOpen = true;\r\n\r\n        // here we remplaced the first letter     \r\n        if(session[reqId[requestId]].firstLetterRemplaced == false){\r\n            compareAndCopy(session[reqId[requestId]].word, session[reqId[requestId]].word[0], reqId[requestId]);\r\n            session[reqId[requestId]].firstLetterRemplaced = true;\r\n        }\r\n        session[reqId[requestId]].lastMoveDate = block.timestamp;   // start timeout counter\r\n          // rng was founded so we can open the session       \r\n    }    \r\n\r\n    /// @param idSession uint256 for identify the session\r\n    /// @param letter played in bytes1      \r\n    /// @notice the playing function of this dapp\r\n    function play(bytes1 letter, uint256 idSession) external  onlyPlayer(idSession) {        \r\n        require(isLetter(letter) == true, \"Error, only lowercase letter\"); \r\n        require(sessionPublic[idSession].state == StateSession.InProgress,\"Error, session not in progress\");\r\n        require(sessionPublic[idSession].playerTwo != address(0x0), \"Error, await for a second player\");\r\n        require(session[idSession].word[0] != \"\", \"RNG word not already found\");      \r\n      \r\n        // when Player One plays\r\n        if (msg.sender == sessionPublic[idSession].playerOne) {             \r\n            compareAndCopy(session[idSession].word, letter, idSession);            \r\n            sessionPublic[idSession].mustPlay = sessionPublic[idSession].playerTwo;\r\n            session[idSession].lastMoveDate = block.timestamp;\r\n            emit HasPlayed(idSession,sessionPublic[idSession].playerOne);\r\n           \r\n            // Player one Find the word\r\n            if(session[idSession].word == sessionPublic[idSession].playerOneGuess) {\r\n                session[idSession].playerOneFoundWord = true;\r\n                // Draw\r\n                if(session[idSession].playerTwoFoundWord == true){\r\n                    sessionPublic[idSession].state = StateSession.Draw;\r\n                    balance[sessionPublic[idSession].playerOne] += sessionPublic[idSession].betSize;\r\n                    balance[sessionPublic[idSession].playerTwo] += sessionPublic[idSession].betSize;\r\n                }                \r\n                // Player one Win\r\n                if(session[idSession].playerTwoFoundWord == false) {                \r\n                sessionPublic[idSession].state = StateSession.PlayerOneWin;\r\n                balance[sessionPublic[idSession].playerOne] += sessionPublic[idSession].betSize*2;\r\n                }\r\n            }\r\n            // Player Two Win: Player Two find the word and player not found it\r\n            if(session[idSession].playerTwoFoundWord == true && (session[idSession].playerOneFoundWord == false)){\r\n                sessionPublic[idSession].state = StateSession.PlayerTwoWin;\r\n                balance[sessionPublic[idSession].playerTwo] += sessionPublic[idSession].betSize*2;\r\n            }\r\n        }\r\n        \r\n         // when Player One plays\r\n        if (msg.sender == sessionPublic[idSession].playerTwo){\r\n            compareAndCopy(session[idSession].word, letter, idSession);            \r\n            sessionPublic[idSession].mustPlay = sessionPublic[idSession].playerOne;\r\n            session[idSession].lastMoveDate = block.timestamp;\r\n            emit HasPlayed(idSession,sessionPublic[idSession].playerTwo);\r\n\r\n            // Player Two find the world \r\n            if(session[idSession].word == sessionPublic[idSession].playerTwoGuess) {\r\n                session[idSession].playerTwoFoundWord = true;\r\n            } \r\n        }        \r\n    }\r\n\r\n    /// @param position of the letter to change\r\n    /// @param toInsert letter to copy in bytes1 \r\n    /// @param idSession uint256 for identify the session \r\n    /// @notice replaceBytesAtIndex\r\n    function replaceBytesAtIndex(uint8 position, bytes1 toInsert, uint256 idSession) private {\r\n        bytes1 maskBytes = 0xff;\r\n        bytes32 mask = bytes32(maskBytes) >> (position * 8);\r\n\r\n        if(session[idSession].firstLetterRemplaced == false){\r\n            sessionPublic[idSession].playerOneGuess = (~mask & sessionPublic[idSession].playerOneGuess) | (bytes32(toInsert) >> (position * 8));\r\n            sessionPublic[idSession].playerTwoGuess = (~mask & sessionPublic[idSession].playerTwoGuess) | (bytes32(toInsert) >> (position * 8));\r\n        }  \r\n            \r\n        if(sessionPublic[idSession].mustPlay == sessionPublic[idSession].playerOne && session[idSession].firstLetterRemplaced == true){\r\n            sessionPublic[idSession].playerOneGuess = (~mask & sessionPublic[idSession].playerOneGuess) | (bytes32(toInsert) >> (position * 8));         \r\n        }\r\n        if(sessionPublic[idSession].mustPlay == sessionPublic[idSession].playerTwo && session[idSession].firstLetterRemplaced == true){\r\n           sessionPublic[idSession].playerTwoGuess = (~mask & sessionPublic[idSession].playerTwoGuess) | (bytes32(toInsert) >> (position * 8));\r\n        }        \r\n    }\r\n\r\n    /// @param word to compare\r\n    /// @param letter to check \r\n    /// @param idSession uint256 for identify the session \r\n    /// @notice compare and copy identical letter  \r\n    function compareAndCopy(bytes32 word, bytes1 letter, uint256 idSession) private {\r\n        for(uint8 i=0; i < 32 && word[i] != 0; i++){\r\n            if(word[i] == letter) {                \r\n                replaceBytesAtIndex(i, letter, idSession);                                 \r\n            }\r\n        }       \r\n    }\r\n\r\n    /// @param player address of the player\r\n    /// @notice get the lit of the games for a given player address\r\n    function getPlayerGames(address player) external view returns (uint256[] memory) {\r\n        return playerGames[player].games;\r\n    }\r\n\r\n    /// @param idSession uint256 for identify the sesFsion\r\n    /// @notice get the word legth for a given session\r\n    function getSessionWordLength(uint256 idSession) private view returns (uint8){\r\n        require(sessionPublic[idSession].state != StateSession.NotCreated && sessionPublic[idSession].state != StateSession.Reachable, \"Error, This session does not have already a word\");\r\n        uint8 i = 0;\r\n        while(i < 32 && session[idSession].word[i] != 0) {\r\n            i++;\r\n        }\r\n        return i;\r\n    }\r\n\r\n    /// @param b bytes1 to check if is letter or not\r\n    /// @notice check if is a letter\r\n    function isLetter(bytes1 b) private pure returns (bool) {        \r\n        if(!(b >= 0x61 && b<= 0x7A)) {  //a-z              \r\n                return false;\r\n        }                \r\n        return true;\r\n    }  \r\n}",
  "sourcePath": "C:\\Users\\juwol\\Desktop\\DEV\\Penduel_certif\\Penduel\\contracts\\Penduel.sol",
  "compiler": {
    "name": "solc",
    "version": "0.8.16+commit.07a7930e.Emscripten.clang"
  },
  "schemaVersion": "3.4.6",
  "updatedAt": "2022-08-17T15:49:02.560Z",
  "networkType": "ethereum",
  "devdoc": {
    "author": "jw418",
    "details": "This contract can cointains exploit, deploy this contract on tesnet only!!",
    "kind": "dev",
    "methods": {
      "addWord(bytes32)": {
        "params": {
          "word": "it is a bytes32"
        }
      },
      "constructor": {
        "details": "go to your chainlink account to see your subcription ID when the contract is deployed do not forget to add this contract to your consumer"
      },
      "getPlayerGames(address)": {
        "params": {
          "player": "address of the player"
        }
      },
      "joinSession(uint256)": {
        "details": "this function request for randomness"
      },
      "openJoinSessionFct()": {
        "details": "first make sure that the contract has been added to the consumers on your chainlik subscription management page"
      },
      "owner()": {
        "details": "Returns the address of the current owner."
      },
      "play(bytes1,uint256)": {
        "params": {
          "idSession": "uint256 for identify the session",
          "letter": "played in bytes1      "
        }
      },
      "refundRNGnotFound(uint256)": {
        "params": {
          "idSession": "uint256 for identify the session"
        }
      },
      "renounceOwnership()": {
        "details": "Leaves the contract without owner. It will not be possible to call `onlyOwner` functions anymore. Can only be called by the current owner. NOTE: Renouncing ownership will leave the contract without an owner, thereby removing any functionality that is only available to the owner."
      },
      "requestCancelGame(uint256)": {
        "params": {
          "idSession": "uint256 for identify the session"
        }
      },
      "requestWinTimeout(uint256)": {
        "params": {
          "idSession": "uint256 for identify the session"
        }
      },
      "transferOwnership(address)": {
        "details": "Transfers ownership of the contract to a new account (`newOwner`). Can only be called by the current owner."
      }
    },
    "title": "Penduel",
    "version": 1
  },
  "userdoc": {
    "kind": "user",
    "methods": {
      "addWord(bytes32)": {
        "notice": "allows the owner to add words to the list for the game"
      },
      "createSession()": {
        "notice": "for create a new game session"
      },
      "getPlayerGames(address)": {
        "notice": "get the lit of the games for a given player address"
      },
      "joinSession(uint256)": {
        "notice": "for join a session already created"
      },
      "openJoinSessionFct()": {
        "notice": "autorised players to use the joinSession Function     "
      },
      "pausedJoinSessionFct()": {
        "notice": "unautorised players to use the joinSession Function     "
      },
      "play(bytes1,uint256)": {
        "notice": "the playing function of this dapp"
      },
      "playerWithdraw()": {
        "notice": "a withdraw function for players"
      },
      "refundRNGnotFound(uint256)": {
        "notice": "if chainlink took too many times for given a rng the player can ask for a refund "
      },
      "requestCancelGame(uint256)": {
        "notice": "24hours after the creation of the game the creator can cancel it if no one join it"
      },
      "requestWinTimeout(uint256)": {
        "notice": "if the opponent player took too many times for playing you can ask for a win by TimeOut"
      }
    },
    "notice": "Versus hangman's game ",
    "version": 1
  }
}