{
  "contractName": "Penduel",
  "abi": [
    {
      "inputs": [
        {
          "internalType": "uint64",
          "name": "subscriptionId",
          "type": "uint64"
        }
      ],
      "stateMutability": "nonpayable",
      "type": "constructor"
    },
    {
      "inputs": [
        {
          "internalType": "address",
          "name": "have",
          "type": "address"
        },
        {
          "internalType": "address",
          "name": "want",
          "type": "address"
        }
      ],
      "name": "OnlyCoordinatorCanFulfill",
      "type": "error"
    },
    {
      "anonymous": false,
      "inputs": [
        {
          "indexed": false,
          "internalType": "uint256",
          "name": "idSession",
          "type": "uint256"
        },
        {
          "indexed": false,
          "internalType": "address",
          "name": "player",
          "type": "address"
        }
      ],
      "name": "HasPlayed",
      "type": "event"
    },
    {
      "anonymous": false,
      "inputs": [
        {
          "indexed": false,
          "internalType": "bool",
          "name": "paused",
          "type": "bool"
        }
      ],
      "name": "JoinSessionFctPaused",
      "type": "event"
    },
    {
      "anonymous": false,
      "inputs": [
        {
          "indexed": true,
          "internalType": "address",
          "name": "previousOwner",
          "type": "address"
        },
        {
          "indexed": true,
          "internalType": "address",
          "name": "newOwner",
          "type": "address"
        }
      ],
      "name": "OwnershipTransferred",
      "type": "event"
    },
    {
      "anonymous": false,
      "inputs": [
        {
          "indexed": false,
          "internalType": "address",
          "name": "player",
          "type": "address"
        },
        {
          "indexed": false,
          "internalType": "uint256",
          "name": "amount",
          "type": "uint256"
        }
      ],
      "name": "PlayerWithdraw",
      "type": "event"
    },
    {
      "anonymous": false,
      "inputs": [
        {
          "indexed": true,
          "internalType": "uint256",
          "name": "requestId",
          "type": "uint256"
        }
      ],
      "name": "RNGFound",
      "type": "event"
    },
    {
      "anonymous": false,
      "inputs": [
        {
          "indexed": true,
          "internalType": "uint256",
          "name": "requestId",
          "type": "uint256"
        },
        {
          "indexed": true,
          "internalType": "uint256",
          "name": "idSession",
          "type": "uint256"
        }
      ],
      "name": "RNGRequested",
      "type": "event"
    },
    {
      "anonymous": false,
      "inputs": [
        {
          "indexed": false,
          "internalType": "uint256[]",
          "name": "randomWords",
          "type": "uint256[]"
        }
      ],
      "name": "RandomWordsTaken",
      "type": "event"
    },
    {
      "anonymous": false,
      "inputs": [
        {
          "indexed": false,
          "internalType": "uint256",
          "name": "idSession",
          "type": "uint256"
        },
        {
          "indexed": false,
          "internalType": "address",
          "name": "playerOne",
          "type": "address"
        },
        {
          "indexed": false,
          "internalType": "uint256",
          "name": "betSize",
          "type": "uint256"
        }
      ],
      "name": "SessionCreated",
      "type": "event"
    },
    {
      "anonymous": false,
      "inputs": [
        {
          "indexed": false,
          "internalType": "uint256",
          "name": "idSession",
          "type": "uint256"
        },
        {
          "indexed": false,
          "internalType": "address",
          "name": "playerTwo",
          "type": "address"
        }
      ],
      "name": "SessionJoined",
      "type": "event"
    },
    {
      "anonymous": false,
      "inputs": [],
      "name": "WordAdded",
      "type": "event"
    },
    {
      "inputs": [
        {
          "internalType": "address",
          "name": "",
          "type": "address"
        }
      ],
      "name": "balance",
      "outputs": [
        {
          "internalType": "uint256",
          "name": "",
          "type": "uint256"
        }
      ],
      "stateMutability": "view",
      "type": "function",
      "constant": true
    },
    {
      "inputs": [],
      "name": "joinSessionFctOpen",
      "outputs": [
        {
          "internalType": "bool",
          "name": "",
          "type": "bool"
        }
      ],
      "stateMutability": "view",
      "type": "function",
      "constant": true
    },
    {
      "inputs": [],
      "name": "owner",
      "outputs": [
        {
          "internalType": "address",
          "name": "",
          "type": "address"
        }
      ],
      "stateMutability": "view",
      "type": "function",
      "constant": true
    },
    {
      "inputs": [
        {
          "internalType": "uint256",
          "name": "requestId",
          "type": "uint256"
        },
        {
          "internalType": "uint256[]",
          "name": "randomWords",
          "type": "uint256[]"
        }
      ],
      "name": "rawFulfillRandomWords",
      "outputs": [],
      "stateMutability": "nonpayable",
      "type": "function"
    },
    {
      "inputs": [],
      "name": "renounceOwnership",
      "outputs": [],
      "stateMutability": "nonpayable",
      "type": "function"
    },
    {
      "inputs": [],
      "name": "s_keyHash",
      "outputs": [
        {
          "internalType": "bytes32",
          "name": "",
          "type": "bytes32"
        }
      ],
      "stateMutability": "view",
      "type": "function",
      "constant": true
    },
    {
      "inputs": [
        {
          "internalType": "uint256",
          "name": "",
          "type": "uint256"
        }
      ],
      "name": "s_randomWords",
      "outputs": [
        {
          "internalType": "uint256",
          "name": "",
          "type": "uint256"
        }
      ],
      "stateMutability": "view",
      "type": "function",
      "constant": true
    },
    {
      "inputs": [],
      "name": "s_subscriptionId",
      "outputs": [
        {
          "internalType": "uint64",
          "name": "",
          "type": "uint64"
        }
      ],
      "stateMutability": "view",
      "type": "function",
      "constant": true
    },
    {
      "inputs": [
        {
          "internalType": "uint256",
          "name": "",
          "type": "uint256"
        }
      ],
      "name": "sessionPublic",
      "outputs": [
        {
          "internalType": "address payable",
          "name": "playerOne",
          "type": "address"
        },
        {
          "internalType": "address payable",
          "name": "playerTwo",
          "type": "address"
        },
        {
          "internalType": "address",
          "name": "mustPlay",
          "type": "address"
        },
        {
          "internalType": "uint8",
          "name": "wordLegth",
          "type": "uint8"
        },
        {
          "internalType": "uint256",
          "name": "idSession",
          "type": "uint256"
        },
        {
          "internalType": "uint256",
          "name": "betSize",
          "type": "uint256"
        },
        {
          "internalType": "bytes32",
          "name": "playerOneGuess",
          "type": "bytes32"
        },
        {
          "internalType": "bytes32",
          "name": "playerTwoGuess",
          "type": "bytes32"
        },
        {
          "internalType": "enum Penduel.StateSession",
          "name": "state",
          "type": "uint8"
        }
      ],
      "stateMutability": "view",
      "type": "function",
      "constant": true
    },
    {
      "inputs": [],
      "name": "totalCreatedSessions",
      "outputs": [
        {
          "internalType": "uint256",
          "name": "",
          "type": "uint256"
        }
      ],
      "stateMutability": "view",
      "type": "function",
      "constant": true
    },
    {
      "inputs": [
        {
          "internalType": "address",
          "name": "newOwner",
          "type": "address"
        }
      ],
      "name": "transferOwnership",
      "outputs": [],
      "stateMutability": "nonpayable",
      "type": "function"
    },
    {
      "inputs": [],
      "name": "vrfCoordinator",
      "outputs": [
        {
          "internalType": "address",
          "name": "",
          "type": "address"
        }
      ],
      "stateMutability": "view",
      "type": "function",
      "constant": true
    },
    {
      "inputs": [],
      "name": "playerWithdraw",
      "outputs": [],
      "stateMutability": "nonpayable",
      "type": "function"
    },
    {
      "inputs": [
        {
          "internalType": "uint256",
          "name": "idSession",
          "type": "uint256"
        }
      ],
      "name": "refundRNGnotFound",
      "outputs": [],
      "stateMutability": "nonpayable",
      "type": "function"
    },
    {
      "inputs": [
        {
          "internalType": "uint256",
          "name": "idSession",
          "type": "uint256"
        }
      ],
      "name": "requestWinTimeout",
      "outputs": [],
      "stateMutability": "nonpayable",
      "type": "function"
    },
    {
      "inputs": [
        {
          "internalType": "uint256",
          "name": "idSession",
          "type": "uint256"
        }
      ],
      "name": "requestCancelGame",
      "outputs": [],
      "stateMutability": "nonpayable",
      "type": "function"
    },
    {
      "inputs": [
        {
          "internalType": "bytes32",
          "name": "word",
          "type": "bytes32"
        }
      ],
      "name": "addWord",
      "outputs": [],
      "stateMutability": "nonpayable",
      "type": "function"
    },
    {
      "inputs": [],
      "name": "openJoinSessionFct",
      "outputs": [],
      "stateMutability": "nonpayable",
      "type": "function"
    },
    {
      "inputs": [],
      "name": "pausedJoinSessionFct",
      "outputs": [],
      "stateMutability": "nonpayable",
      "type": "function"
    },
    {
      "inputs": [],
      "name": "createSession",
      "outputs": [],
      "stateMutability": "payable",
      "type": "function",
      "payable": true
    },
    {
      "inputs": [
        {
          "internalType": "uint256",
          "name": "idSession",
          "type": "uint256"
        }
      ],
      "name": "joinSession",
      "outputs": [
        {
          "internalType": "uint256",
          "name": "requestId",
          "type": "uint256"
        }
      ],
      "stateMutability": "payable",
      "type": "function",
      "payable": true
    },
    {
      "inputs": [
        {
          "internalType": "bytes1",
          "name": "letter",
          "type": "bytes1"
        },
        {
          "internalType": "uint256",
          "name": "idSession",
          "type": "uint256"
        }
      ],
      "name": "play",
      "outputs": [],
      "stateMutability": "nonpayable",
      "type": "function"
    },
    {
      "inputs": [
        {
          "internalType": "address",
          "name": "player",
          "type": "address"
        }
      ],
      "name": "getPlayerGames",
      "outputs": [
        {
          "internalType": "uint256[]",
          "name": "",
          "type": "uint256[]"
        }
      ],
      "stateMutability": "view",
      "type": "function",
      "constant": true
    }
  ],
  "bytecode": "0x6102606040526468656c6c6f60d81b60a090815266676f6f6462796560c81b60c0526239bab760e91b60e05267686f6c6c6964617960c01b61010052656265666f726560d01b610120526430b33a32b960d91b610140526a3932b9ba37b930ba34b7b760a91b61016052663330b9b434b7b760c91b61018052676472657373696e6760c01b6101a0526d726570726573656e74617469766560901b6101c0526673696c656e636560c81b6101e0526961636365707461626c6560b01b610200526c195b9d9a5c9bdb9b595b9d185b609a1b610220526870686f746f636f707960b81b61024052620000f590600590600e620001dc565b503480156200010357600080fd5b506040516200276138038062002761833981016040819052620001269162000243565b732ca8e0c643bde4c2e08ab1fa0da3401adad7734d60805262000149336200018c565b600180546001600160401b03909216600160a01b026001600160e01b031990921691909117732ca8e0c643bde4c2e08ab1fa0da3401adad7734d17905562000275565b600080546001600160a01b038381166001600160a01b0319831681178455604051919092169283917f8be0079c531659141344cd1fd0a4f28419497f9722a3daafe3b4186f6b6457e09190a35050565b8280548282559060005260206000209081019282156200021a579160200282015b828111156200021a578251825591602001919060010190620001fd565b50620002289291506200022c565b5090565b5b808211156200022857600081556001016200022d565b6000602082840312156200025657600080fd5b81516001600160401b03811681146200026e57600080fd5b9392505050565b6080516124c96200029860003960008181610a910152610ad301526124c96000f3fe6080604052600436106101405760003560e01c80638ac00021116100b6578063ed8f75ca1161006f578063ed8f75ca14610411578063eea0e1a914610431578063f1c8e98f14610451578063f2fde38b14610467578063f6eaffc814610487578063ff2c2278146104a757600080fd5b80638ac00021146103095780638da5cb5b1461034a5780639a176dd81461037c578063a3e56fa81461039c578063cac6875b146103c4578063e3d670d7146103e457600080fd5b806345bb327b1161010857806345bb327b146101e2578063587e2d6714610216578063609dbc3f1461022b578063715018a6146102b557806387d01002146102ca57806388b8c487146102f457600080fd5b806305991eba14610145578063129daf841461016b5780631cbf1b02146101985780631fe543e3146101a25780632855a6b0146101c2575b600080fd5b61015861015336600461212d565b6104bc565b6040519081526020015b60405180910390f35b34801561017757600080fd5b5061018b610186366004612146565b610881565b6040516101629190612176565b6101a06108ed565b005b3480156101ae57600080fd5b506101a06101bd3660046121d0565b610a86565b3480156101ce57600080fd5b506101a06101dd36600461212d565b610b0e565b3480156101ee57600080fd5b506101587f79d3d8832d904592c0bf9818b621522c988bb8b0c05cdc3b15aea1b6e8db0c1581565b34801561022257600080fd5b506101a0610bc9565b34801561023757600080fd5b506102a061024636600461212d565b600960205260009081526040902080546001820154600283015460038401546004850154600586015460068701546007909701546001600160a01b03968716979587169685169560ff600160a01b90960486169590911689565b604051610162999897969594939291906122b0565b3480156102c157600080fd5b506101a0610c56565b3480156102d657600080fd5b506003546102e49060ff1681565b6040519015158152602001610162565b34801561030057600080fd5b506101a0610c6a565b34801561031557600080fd5b5060015461033190600160a01b900467ffffffffffffffff1681565b60405167ffffffffffffffff9091168152602001610162565b34801561035657600080fd5b506000546001600160a01b03165b6040516001600160a01b039091168152602001610162565b34801561038857600080fd5b506101a0610397366004612329565b610d78565b3480156103a857600080fd5b50610364732ca8e0c643bde4c2e08ab1fa0da3401adad7734d81565b3480156103d057600080fd5b506101a06103df36600461212d565b611338565b3480156103f057600080fd5b506101586103ff366004612146565b600a6020526000908152604090205481565b34801561041d57600080fd5b506101a061042c36600461212d565b6114ae565b34801561043d57600080fd5b506101a061044c36600461212d565b61176a565b34801561045d57600080fd5b5061015860045481565b34801561047357600080fd5b506101a0610482366004612146565b61192c565b34801561049357600080fd5b506101586104a236600461212d565b6119a2565b3480156104b357600080fd5b506101a06119c3565b60035460009060ff166105165760405162461bcd60e51b815260206004820181905260248201527f4572726f722c207061737420524e4772657175657374206e6f7420666f756e6460448201526064015b60405180910390fd5b6000828152600960205260409020546001600160a01b0316330361057c5760405162461bcd60e51b815260206004820152601e60248201527f4572726f722c20616c726561647920696e20746869732073657373696f6e0000604482015260640161050d565b34333110156105cd5760405162461bcd60e51b815260206004820181905260248201527f4572726f722c20696e737566666963656e74207661756c742062616c616e6365604482015260640161050d565b60008281526009602052604090206004015434101561062e5760405162461bcd60e51b815260206004820152601e60248201527f4572726f722c20696e737566666963656e7420616d6f756e742073656e740000604482015260640161050d565b600160008381526009602052604090206007015460ff1660088111156106565761065661229a565b146106a35760405162461bcd60e51b815260206004820152601a60248201527f4572726f722c2073657373696f6e20756e726561636861626c65000000000000604482015260640161050d565b600082815260096020908152604080832060078101805460ff199081166002908117909255600180840180546001600160a01b031990811633908117835560088952878a20429087015591549490950180549095166001600160a01b0390941693909317909355818652600b855283862080549384018155865294849020909101869055600380549094169093558051858152918201929092527fa80783b53d1b2057a0c31627ae91183cba1ed5e26a4b1cc8074a90f89c92fa85910160405180910390a1600180546040516305d3b1d360e41b81527f79d3d8832d904592c0bf9818b621522c988bb8b0c05cdc3b15aea1b6e8db0c156004820152600160a01b820467ffffffffffffffff1660248201526003604482015262030d40606482015260848101929092526001600160a01b031690635d3b1d309060a4016020604051808303816000875af11580156107ff573d6000803e3d6000fd5b505050506040513d601f19601f820116820180604052508101906108239190612362565b6000838152600860209081526040808320600101548484526006835281842081905560079092528083209190915551919250839183917fa6a4b9afd6bd5d3a182e6808e1e19cf6552989ef205ca02279bce85472b4f85e91a3919050565b6001600160a01b0381166000908152600b60209081526040918290208054835181840281018401909452808452606093928301828280156108e157602002820191906000526020600020905b8154815260200190600101908083116108cd575b50505050509050919050565b343331101561093e5760405162461bcd60e51b815260206004820181905260248201527f4572726f722c20696e737566666963656e74207661756c742062616c616e6365604482015260640161050d565b600034116109855760405162461bcd60e51b81526020600482015260146024820152734572726f722c206d696e696d756d20312057454960601b604482015260640161050d565b6004805490600061099583612391565b9091555050336000818152600b6020908152604080832060048054825460018181018555938752858720015580548552600980855283862080546001600160a01b03199081168917909155825480885260088088528689208601829055838852868920600381019290925581549092169098179097558154865283862034908301558154865295845282852042600290910155548452939091529020600701805460ff1916828002179055506004546040805191825233602083015234908201527f658891ce811ff307aab5be445fb05fffbcd9a125b10915b1aba719e376c53771906060015b60405180910390a1565b336001600160a01b037f00000000000000000000000000000000000000000000000000000000000000001614610b005760405163073e64fd60e21b81523360048201526001600160a01b037f000000000000000000000000000000000000000000000000000000000000000016602482015260440161050d565b610b0a8282611a52565b5050565b610b16611c2b565b610b1f81611c85565b610b6b5760405162461bcd60e51b815260206004820152601d60248201527f4572726f722c206c6f77657263617365206c657474657273206f6e6c79000000604482015260640161050d565b6005805460018101825560009182527f036b6384b5eca791c62761152d0c79bb0604c104a5fb6f4eb0703f3154bb3db0018290556040517f50f2e462284e93994cad5dff94a7ec49bd0c2ecc0e1760f97ab4119f94088e969190a150565b610bd1611c2b565b60035460ff16610c1b5760405162461bcd60e51b8152602060048201526015602482015274115c9c9bdc8b08105b1c9958591e481c185d5cd959605a1b604482015260640161050d565b6003805460ff19169055604051600181527fb9a820a5cc41ee812664936fd9296ea10b1ed2543da713ce21dce6196374f98290602001610a7c565b610c5e611c2b565b610c686000611d0b565b565b336000818152600a6020526040808220805490839055905190929083908381818185875af1925050503d8060008114610cbf576040519150601f19603f3d011682016040523d82523d6000602084013e610cc4565b606091505b5050905080610d3b5760405162461bcd60e51b815260206004820152603a60248201527f416464726573733a20756e61626c6520746f2073656e642076616c75652c207260448201527f6563697069656e74206d61792068617665207265766572746564000000000000606482015260840161050d565b60408051338152602081018490527f13b46ae1da3b476d0302ec781f7dd6982727671bc7bc07411d908daeb468751e910160405180910390a15050565b60008181526009602052604090206002015481906001600160a01b03163314610dd65760405162461bcd60e51b815260206004820152601060248201526f34b9903737ba103cb7bab9103a3ab93760811b604482015260640161050d565b610ddf83611d5b565b610e2b5760405162461bcd60e51b815260206004820152601c60248201527f4572726f722c206f6e6c79206c6f77657263617365206c657474657200000000604482015260640161050d565b600260008381526009602052604090206007015460ff166008811115610e5357610e5361229a565b14610ea05760405162461bcd60e51b815260206004820152601e60248201527f4572726f722c2073657373696f6e206e6f7420696e2070726f67726573730000604482015260640161050d565b6000828152600960205260409020600101546001600160a01b0316610f075760405162461bcd60e51b815260206004820181905260248201527f4572726f722c20617761697420666f722061207365636f6e6420706c61796572604482015260640161050d565b600082815260086020526040812060040154901a60f81b6001600160f81b031916600003610f775760405162461bcd60e51b815260206004820152601a60248201527f524e4720776f7264206e6f7420616c726561647920666f756e64000000000000604482015260640161050d565b6000828152600960205260409020546001600160a01b0316330361123457600082815260086020526040902060040154610fb2908484611d9d565b600082815260096020818152604080842060018101546002820180546001600160a01b0319166001600160a01b03928316179055600884529482902042600390910155928252915482518681529316908301527faf25da1bf081dfe4bee184c74033eef31f84dd5dd5ec20e84da603183c21c7ef910160405180910390a160008281526009602090815260408083206005015460089092529091206004015403611193576000828152600860205260409020805460ff191660011790819055610100900460ff161561111257600082815260096020908152604080832060078101805460ff19166005179055600481015490546001600160a01b03168452600a90925282208054919290916110c89084906123c0565b9091555050600082815260096020908152604080832060048101546001909101546001600160a01b03168452600a909252822080549192909161110c9084906123c0565b90915550505b600082815260086020526040902054610100900460ff1661119357600082815260096020526040902060078101805460ff19166003179055600401546111599060026123d3565b6000838152600960209081526040808320546001600160a01b03168352600a9091528120805490919061118d9084906123c0565b90915550505b600082815260086020526040902054610100900460ff1680156111c5575060008281526008602052604090205460ff16155b1561123457600082815260096020526040902060078101805460ff1916600490811790915501546111f79060026123d3565b6000838152600960209081526040808320600101546001600160a01b03168352600a9091528120805490919061122e9084906123c0565b90915550505b6000828152600960205260409020600101546001600160a01b0316330361133357600082815260086020526040902060040154611272908484611d9d565b600082815260096020818152604080842080546002820180546001600160a01b0319166001600160a01b0392831617905560088452948290204260039091015592825260019092015482518681529316908301527faf25da1bf081dfe4bee184c74033eef31f84dd5dd5ec20e84da603183c21c7ef910160405180910390a160008281526009602090815260408083206006015460089092529091206004015403611333576000828152600860205260409020805461ff0019166101001790555b505050565b6000818152600960205260409020546001600160a01b0316331461139e5760405162461bcd60e51b815260206004820152601760248201527f4572726f722c206e6f7420796f75722073657373696f6e000000000000000000604482015260640161050d565b600160008281526009602052604090206007015460ff1660088111156113c6576113c661229a565b1461141e5760405162461bcd60e51b815260206004820152602260248201527f73657373696f6e206973206e6f7420696e20726561636861626c652073746174604482015261032960f51b606482015260840161050d565b60008181526008602052604090206002015461143e9062015180906123c0565b421161145c5760405162461bcd60e51b815260040161050d906123f2565b600081815260096020908152604080832060078101805460ff19166006179055600481015490546001600160a01b03168452600a90925282208054919290916114a69084906123c0565b909155505050565b6000818152600860205260409020600301546114cd90620151806123c0565b42116114eb5760405162461bcd60e51b815260040161050d906123f2565b6000818152600960205260409020546001600160a01b0316331480156115345750600081815260096020526040902060018101546002909101546001600160a01b039081169116145b8061158357506000818152600960205260409020600101546001600160a01b0316331480156115835750600081815260096020526040902080546002909101546001600160a01b039081169116145b6115df5760405162461bcd60e51b815260206004820152602760248201527f6f70706f6e656e742068617320706c61796564204f52206e6f7420796f75722060448201526639b2b9b9b4b7b760c91b606482015260840161050d565b600260008281526009602052604090206007015460ff1660088111156116075761160761229a565b1461165e5760405162461bcd60e51b815260206004820152602160248201527f4572726f722c2073657373696f6e206973206e6f7420696e2070726f677265736044820152607360f81b606482015260840161050d565b6000818152600960205260409020546001600160a01b031633036116e35760008181526009602052604090206007808201805460ff19169091179055600401546116a99060026123d3565b6000828152600960209081526040808320546001600160a01b03168352600a909152812080549091906116dd9084906123c0565b90915550505b6000818152600960205260409020600101546001600160a01b0316330361176757600081815260096020526040902060078101805460ff19166008179055600401546117309060026123d3565b6000828152600960209081526040808320600101546001600160a01b03168352600a909152812080549091906114a69084906123c0565b50565b6000818152600960205260409020546001600160a01b03163314806117a857506000818152600960205260409020600101546001600160a01b031633145b6117f45760405162461bcd60e51b815260206004820152601760248201527f4572726f722c204e6f7420796f75722073657373696f6e000000000000000000604482015260640161050d565b6000818152600860205260408120600401546001600160f81b0319911a60f81b16156118625760405162461bcd60e51b815260206004820152601d60248201527f4572726f722c20524e4720776f726420616c726561647920666f756e64000000604482015260640161050d565b60008181526008602052604090206002015461188090612a306123c0565b421161189e5760405162461bcd60e51b815260040161050d906123f2565b600081815260096020908152604080832060078101805460ff19166006179055600481015490546001600160a01b03168452600a90925282208054919290916118e89084906123c0565b9091555050600081815260096020908152604080832060048101546001909101546001600160a01b03168452600a90925282208054919290916114a69084906123c0565b611934611c2b565b6001600160a01b0381166119995760405162461bcd60e51b815260206004820152602660248201527f4f776e61626c653a206e6577206f776e657220697320746865207a65726f206160448201526564647265737360d01b606482015260840161050d565b61176781611d0b565b600281815481106119b257600080fd5b600091825260209091200154905081565b6119cb611c2b565b60035460ff1615611a145760405162461bcd60e51b815260206004820152601360248201527222b93937b9161020b63932b0b23c9037b832b760691b604482015260640161050d565b6003805460ff19166001179055604051600081527fb9a820a5cc41ee812664936fd9296ea10b1ed2543da713ce21dce6196374f98290602001610a7c565b600060058054905082600081518110611a6d57611a6d6123aa565b6020026020010151611a7f9190612429565b905060058181548110611a9457611a946123aa565b6000918252602080832090910154858352600680835260408085208054865260088552908520600401929092559286905291905254611ad290611e2f565b60008481526007602090815260408083205483526009909152808220600201805460ff94909416600160a01b0260ff60a01b1990941693909317909255905184917fa8e40739d15b1a795084e7aceb618f6570b720eff3825b72abcfcc948cf6509c91a27fe11a34280e4fe3f36870e1b808058087c13155acaecd91f00f88ea0fdd3fff7482604051611b659190612176565b60405180910390a16003805460ff191660011790556000838152600660209081526040808320548352600890915290205462010000900460ff16611c0557600083815260066020818152604080842054808552600883529084206004015487855292909152611bda9282901a60f81b90611d9d565b600083815260066020908152604080832054835260089091529020805462ff00001916620100001790555b505060009081526006602090815260408083205483526008909152902042600390910155565b6000546001600160a01b03163314610c685760405162461bcd60e51b815260206004820181905260248201527f4f776e61626c653a2063616c6c6572206973206e6f7420746865206f776e6572604482015260640161050d565b6000805b60208160ff16108015611cbd5750828160ff1660208110611cac57611cac6123aa565b1a60f81b6001600160f81b03191615155b15611d0257611ce3838260ff1660208110611cda57611cda6123aa565b1a60f81b611d5b565b611cf05750600092915050565b80611cfa8161244b565b915050611c89565b50600192915050565b600080546001600160a01b038381166001600160a01b0319831681178455604051919092169283917f8be0079c531659141344cd1fd0a4f28419497f9722a3daafe3b4186f6b6457e09190a35050565b6000606160f81b6001600160f81b0319831610801590611d895750603d60f91b6001600160f81b0319831611155b611d9557506000919050565b506001919050565b60005b60208160ff16108015611dd45750838160ff1660208110611dc357611dc36123aa565b1a60f81b6001600160f81b03191615155b15611e29576001600160f81b031983168460ff831660208110611df957611df96123aa565b1a60f81b6001600160f81b03191603611e1757611e17818484611f5b565b80611e218161244b565b915050611da0565b50505050565b60008060008381526009602052604090206007015460ff166008811115611e5857611e5861229a565b14158015611e8c5750600160008381526009602052604090206007015460ff166008811115611e8957611e8961229a565b14155b611ef15760405162461bcd60e51b815260206004820152603060248201527f4572726f722c20546869732073657373696f6e20646f6573206e6f742068617660448201526f1948185b1c9958591e4818481ddbdc9960821b606482015260840161050d565b60005b60208160ff16108015611f3e575060086000848152602001908152602001600020600401548160ff1660208110611f2d57611f2d6123aa565b1a60f81b6001600160f81b03191615155b15611f555780611f4d8161244b565b915050611ef4565b92915050565b6001600160f81b03196000611f7185600861246a565b6000848152600860205260409020546001600160f81b0319841660ff9283161c92506201000090041661201757611fa985600861246a565b600084815260096020526040902060050180548319166001600160f81b0319871660ff939093169290921c919091179055611fe585600861246a565b600084815260096020526040902060060180548319166001600160f81b0319871660ff939093169290921c9190911790555b600083815260096020526040902080546002909101546001600160a01b03908116911614801561205b575060008381526008602052604090205462010000900460ff165b1561209d5761206b85600861246a565b600084815260096020526040902060050180548319166001600160f81b0319871660ff939093169290921c9190911790555b600083815260096020526040902060018101546002909101546001600160a01b0390811691161480156120e4575060008381526008602052604090205462010000900460ff165b15612126576120f485600861246a565b600084815260096020526040902060060180548319166001600160f81b0319871660ff939093169290921c9190911790555b5050505050565b60006020828403121561213f57600080fd5b5035919050565b60006020828403121561215857600080fd5b81356001600160a01b038116811461216f57600080fd5b9392505050565b6020808252825182820181905260009190848201906040850190845b818110156121ae57835183529284019291840191600101612192565b50909695505050505050565b634e487b7160e01b600052604160045260246000fd5b600080604083850312156121e357600080fd5b8235915060208084013567ffffffffffffffff8082111561220357600080fd5b818601915086601f83011261221757600080fd5b813581811115612229576122296121ba565b8060051b604051601f19603f8301168101818110858211171561224e5761224e6121ba565b60405291825284820192508381018501918983111561226c57600080fd5b938501935b8285101561228a57843584529385019392850192612271565b8096505050505050509250929050565b634e487b7160e01b600052602160045260246000fd5b6001600160a01b038a8116825289811660208301528816604082015260ff871660608201526080810186905260a0810185905260c0810184905260e0810183905261012081016009831061231457634e487b7160e01b600052602160045260246000fd5b826101008301529a9950505050505050505050565b6000806040838503121561233c57600080fd5b82356001600160f81b03198116811461235457600080fd5b946020939093013593505050565b60006020828403121561237457600080fd5b5051919050565b634e487b7160e01b600052601160045260246000fd5b6000600182016123a3576123a361237b565b5060010190565b634e487b7160e01b600052603260045260246000fd5b80820180821115611f5557611f5561237b565b60008160001904831182151516156123ed576123ed61237b565b500290565b6020808252601a908201527f4572726f722c2054696d654f7574204e6f742052656163686564000000000000604082015260600190565b60008261244657634e487b7160e01b600052601260045260246000fd5b500690565b600060ff821660ff81036124615761246161237b565b60010192915050565b600060ff821660ff84168160ff048111821515161561248b5761248b61237b565b02939250505056fea26469706673582212203c48d1025e42664dabae9ba8b5e00e3ac2a952d9382f891586e0b7ccbeb2b3c564736f6c63430008100033",
  "immutableReferences": {
    "1672": [
      {
        "length": 32,
        "start": 2705
      },
      {
        "length": 32,
        "start": 2771
      }
    ]
  },
  "source": "/// SPDX-License-Identifier: MIT\r\n\r\npragma solidity 0.8.16;\r\n\r\nimport \"../node_modules/@openzeppelin/contracts/access/Ownable.sol\";\r\nimport \"../node_modules/@chainlink/contracts/src/v0.8/interfaces/VRFCoordinatorV2Interface.sol\";\r\nimport \"../node_modules/@chainlink/contracts/src/v0.8/VRFConsumerBaseV2.sol\";\r\n\r\n/// @title Penduel\r\n/// @author jw418\r\n/// @notice Versus hangman's game\r\n/// @dev This contract can cointains exploit, deploy this contract on tesnet only!!\r\ncontract Penduel is VRFConsumerBaseV2, Ownable {\r\n    VRFCoordinatorV2Interface COORDINATOR;\r\n\r\n    /* Chainlink's VRF V2  variables */\r\n\r\n    uint16 constant requestConfirmations = 3; // The default is 3, but you can set this higher.\r\n    uint32 constant callbackGasLimit = 2 * (10**5);\r\n    uint32 constant numWords = 1; // Number of random number at each request.\r\n    uint64 public s_subscriptionId; // Your subscription ID for CHAINLINK   // 8023\r\n    uint256[] public s_randomWords; // For the FullFill Fct\r\n    address constant public vrfCoordinator = 0x2Ca8E0C643bDe4C2E08ab1fA0da3401AdAD7734D; // Goerli coordinator\r\n    bytes32 constant public s_keyHash = 0x79d3d8832d904592c0bf9818b621522c988bb8b0c05cdc3b15aea1b6e8db0c15; // 150 gwei Key Hash\r\n\r\n    bool public joinSessionFctOpen;\r\n    uint256 public totalCreatedSessions;\r\n    uint256 constant timeOut = 24 hours;\r\n    bytes32[] _words = [\r\n        bytes32(\"hello\"),\r\n        bytes32(\"goodbye\"),\r\n        bytes32(\"sun\"),\r\n        bytes32(\"holliday\"),\r\n        bytes32(\"before\"),\r\n        bytes32(\"after\"),\r\n        bytes32(\"restoration\"),\r\n        bytes32(\"fashion\"),\r\n        bytes32(\"dressing\"),\r\n        bytes32(\"representative\"),\r\n        bytes32(\"silence\"),\r\n        bytes32(\"acceptable\"),\r\n        bytes32(\"environmental\"),\r\n        bytes32(\"photocopy\")\r\n    ];\r\n\r\n    /* Mapping*/\r\n    mapping(uint256 => uint256) private reqId; //  associate a request with a game session\r\n    mapping(uint256 => uint256) private reqIdPublic;\r\n    mapping(uint256 => Sessions) private session; //  mapping an uint(idSession) with a session\r\n    mapping(uint256 => SessionPublic) public sessionPublic;\r\n    mapping(address => uint256) public balance; //  gamers balances\r\n    mapping(address => Player) playerGames; //  attached a gamer addres with his sessions\r\n\r\n    struct Sessions {\r\n        bool playerOneFoundWord;\r\n        bool playerTwoFoundWord;\r\n        bool firstLetterRemplaced;\r\n        uint256 idSession;\r\n        uint256 requestDate;\r\n        uint256 lastMoveDate;\r\n        bytes32 word;\r\n    }\r\n\r\n    struct SessionPublic {\r\n        address payable playerOne;\r\n        address payable playerTwo;\r\n        address mustPlay;\r\n        uint8 wordLegth;\r\n        uint256 idSession;\r\n        uint256 betSize;\r\n        bytes32 playerOneGuess;\r\n        bytes32 playerTwoGuess;\r\n        StateSession state;\r\n    }\r\n\r\n    struct Player {\r\n        uint256[] games;\r\n    }\r\n\r\n    enum StateSession {\r\n        NotCreated,\r\n        Reachable,\r\n        InProgress,\r\n        PlayerOneWin,\r\n        PlayerTwoWin,\r\n        Draw,\r\n        Cancelled,\r\n        POneWinByTimeout,\r\n        PTwoWinByTimeout\r\n    }\r\n\r\n    modifier onlyPlayer(uint256 idSession) {\r\n        require(\r\n            msg.sender == sessionPublic[idSession].mustPlay,\r\n            \"is not your turn\"\r\n        );\r\n        _;\r\n    }\r\n\r\n    /* Events */\r\n    event PlayerWithdraw(address player, uint256 amount); // change for playerWithdraw (no deployed)\r\n    // event Received(address indexed sender, uint256 amount);\r\n    event SessionCreated(uint256 idSession, address playerOne, uint256 betSize);\r\n    event SessionJoined(uint256 idSession, address playerTwo);\r\n    event RNGRequested(uint256 indexed requestId, uint256 indexed idSession);\r\n    event RNGFound(uint256 indexed requestId);\r\n    event RandomWordsTaken(uint256[] randomWords);\r\n    event WordAdded();\r\n    event HasPlayed(uint256 idSession, address player);\r\n    event JoinSessionFctPaused(bool paused);\r\n\r\n    /* Constructor*/\r\n    /// @dev go to your chainlink account to see your subcription ID\r\n    /// @dev when the contract is deployed do not forget to add this contract to your consumer\r\n    constructor(uint64 subscriptionId) VRFConsumerBaseV2(vrfCoordinator) {\r\n        COORDINATOR = VRFCoordinatorV2Interface(vrfCoordinator);\r\n        s_subscriptionId = subscriptionId;\r\n    }\r\n\r\n    // /* Allows this contract to receive payments */\r\n    // receive() external payable {\r\n    //     emit Received(msg.sender, msg.value);\r\n    // }\r\n\r\n    /// @notice a withdraw function for players\r\n    function playerWithdraw() external {\r\n        uint256 toSend = balance[msg.sender];\r\n        balance[msg.sender] = 0;\r\n        (bool success, ) = msg.sender.call{value: toSend}(\"\");\r\n        require(\r\n            success,\r\n            \"Address: unable to send value, recipient may have reverted\"\r\n        );\r\n        emit PlayerWithdraw(msg.sender, toSend);\r\n    }\r\n\r\n    /// @param idSession uint256 for identify the session\r\n    /// @notice if chainlink took too many times for given a rng the player can ask for a refund\r\n    function refundRNGnotFound(uint256 idSession) external {\r\n        require(\r\n            msg.sender == sessionPublic[idSession].playerOne ||\r\n                msg.sender == sessionPublic[idSession].playerTwo,\r\n            \"Error, Not your session\"\r\n        );\r\n        require(\r\n            session[idSession].word[0] == \"\",\r\n            \"Error, RNG word already found\"\r\n        );\r\n        require(\r\n            block.timestamp > (session[idSession].requestDate + 3 hours),\r\n            \"Error, TimeOut Not Reached\"\r\n        );\r\n        sessionPublic[idSession].state = StateSession.Cancelled;\r\n        balance[sessionPublic[idSession].playerOne] += sessionPublic[idSession]\r\n            .betSize;\r\n        balance[sessionPublic[idSession].playerTwo] += sessionPublic[idSession]\r\n            .betSize;\r\n    }\r\n\r\n    /// @param idSession uint256 for identify the session\r\n    /// @notice if the opponent player took too many times for playing you can ask for a win by TimeOut\r\n    function requestWinTimeout(uint256 idSession) external {\r\n        require(\r\n            block.timestamp > (timeOut + session[idSession].lastMoveDate),\r\n            \"Error, TimeOut Not Reached\"\r\n        );\r\n        require(\r\n            (msg.sender == sessionPublic[idSession].playerOne &&\r\n                sessionPublic[idSession].mustPlay ==\r\n                sessionPublic[idSession].playerTwo) ||\r\n                (msg.sender == sessionPublic[idSession].playerTwo &&\r\n                    sessionPublic[idSession].mustPlay ==\r\n                    sessionPublic[idSession].playerOne),\r\n            \"opponent has played OR not your session\"\r\n        );\r\n        require(\r\n            sessionPublic[idSession].state == StateSession.InProgress,\r\n            \"Error, session is not in progress\"\r\n        );\r\n\r\n        if (msg.sender == sessionPublic[idSession].playerOne) {\r\n            sessionPublic[idSession].state = StateSession.POneWinByTimeout;\r\n            balance[sessionPublic[idSession].playerOne] +=\r\n                sessionPublic[idSession].betSize *\r\n                2;\r\n        }\r\n        if (msg.sender == sessionPublic[idSession].playerTwo) {\r\n            sessionPublic[idSession].state = StateSession.PTwoWinByTimeout;\r\n            balance[sessionPublic[idSession].playerTwo] +=\r\n                sessionPublic[idSession].betSize *\r\n                2;\r\n        }\r\n    }\r\n\r\n    /// @param idSession uint256 for identify the session\r\n    /// @notice 24hours after the creation of the game the creator can cancel it if no one join it\r\n    function requestCancelGame(uint256 idSession) external {\r\n        require(\r\n            msg.sender == sessionPublic[idSession].playerOne,\r\n            \"Error, not your session\"\r\n        );\r\n        require(\r\n            sessionPublic[idSession].state == StateSession.Reachable,\r\n            \"session is not in reachable state \"\r\n        );\r\n        require(\r\n            block.timestamp > (session[idSession].requestDate + timeOut),\r\n            \"Error, TimeOut Not Reached\"\r\n        );\r\n\r\n        sessionPublic[idSession].state = StateSession.Cancelled;\r\n        balance[sessionPublic[idSession].playerOne] += sessionPublic[idSession]\r\n            .betSize;\r\n    }\r\n\r\n    /// @param word it is a bytes32\r\n    /// @notice allows the owner to add words to the list for the game\r\n    function addWord(bytes32 word) external onlyOwner {\r\n        require(isLowerCaseWord(word), \"Error, lowercase letters only\"); // !! require non dploy\r\n        _words.push(word);\r\n        emit WordAdded();\r\n    }\r\n\r\n    /// @dev first make sure that the contract has been added to the consumers on your chainlik subscription management page\r\n    /// @notice autorised players to use the joinSession Function\r\n    function openJoinSessionFct() external onlyOwner {\r\n        require(!joinSessionFctOpen, \"Error, Already open\");\r\n        joinSessionFctOpen = true;\r\n        emit JoinSessionFctPaused(false);\r\n    }\r\n\r\n    /// @notice unautorised players to use the joinSession Function\r\n    function pausedJoinSessionFct() external onlyOwner {\r\n        require(joinSessionFctOpen, \"Error, Already paused\");\r\n        joinSessionFctOpen = false;\r\n        emit JoinSessionFctPaused(true);\r\n    }\r\n\r\n    /// @notice for create a new game session\r\n    function createSession() external payable {\r\n        require(\r\n            msg.sender.balance >= msg.value,\r\n            \"Error, insufficent vault balance\"\r\n        );\r\n        require(msg.value > 0, \"Error, minimum 1 WEI\");\r\n        totalCreatedSessions++;\r\n        playerGames[msg.sender].games.push(totalCreatedSessions);\r\n        sessionPublic[totalCreatedSessions].playerOne = payable(msg.sender);\r\n        session[totalCreatedSessions].idSession = totalCreatedSessions;\r\n        sessionPublic[totalCreatedSessions].idSession = totalCreatedSessions;\r\n        sessionPublic[totalCreatedSessions].playerOne = payable(msg.sender);\r\n        sessionPublic[totalCreatedSessions].betSize = msg.value;\r\n        session[totalCreatedSessions].requestDate = block.timestamp;\r\n        sessionPublic[totalCreatedSessions].state = StateSession.Reachable;\r\n\r\n        emit SessionCreated(totalCreatedSessions, msg.sender, msg.value);\r\n    }\r\n\r\n    /// @dev this function request for randomness\r\n    /// @notice for join a session already created\r\n    function joinSession(uint256 idSession)\r\n        external\r\n        payable\r\n        returns (uint256 requestId)\r\n    {\r\n        require(joinSessionFctOpen, \"Error, past RNGrequest not found\");\r\n        require(\r\n            msg.sender != sessionPublic[idSession].playerOne,\r\n            \"Error, already in this session\"\r\n        );\r\n        require(\r\n            msg.sender.balance >= msg.value,\r\n            \"Error, insufficent vault balance\"\r\n        );\r\n        require(\r\n            msg.value >= sessionPublic[idSession].betSize,\r\n            \"Error, insufficent amount sent\"\r\n        );\r\n        require(\r\n            sessionPublic[idSession].state == StateSession.Reachable,\r\n            \"Error, session unreachable\"\r\n        );\r\n\r\n        sessionPublic[idSession].state = StateSession.InProgress;\r\n        sessionPublic[idSession].playerTwo = payable(msg.sender);\r\n        session[idSession].requestDate = block.timestamp;\r\n        sessionPublic[idSession].mustPlay = sessionPublic[idSession].playerTwo;\r\n        playerGames[msg.sender].games.push(idSession);\r\n        joinSessionFctOpen = false;\r\n        emit SessionJoined(idSession, msg.sender);\r\n       \r\n        requestId = COORDINATOR.requestRandomWords(\r\n            s_keyHash,\r\n            s_subscriptionId,\r\n            requestConfirmations,\r\n            callbackGasLimit,\r\n            numWords\r\n        );\r\n        reqId[requestId] = session[idSession].idSession; // here we mapping request id with a session\r\n        reqIdPublic[requestId] = session[idSession].idSession; // same here with the public part for the front-end\r\n        emit RNGRequested(requestId, idSession);\r\n    }\r\n\r\n    /// @param requestId uint256 for identify the rng request\r\n    /// @param randomWords is a mandatory arry for this chainlink function\r\n    /// @dev The fulfillRandomWords function must not revert\r\n    /// @notice this function is call by the vrf coordinator and permit to attribute a rng word to the session\r\n    function fulfillRandomWords(uint256 requestId, uint256[] memory randomWords)\r\n        internal\r\n        override\r\n    {\r\n        uint256 value = randomWords[0] % _words.length;\r\n        session[reqId[requestId]].word = _words[value];\r\n        sessionPublic[reqIdPublic[requestId]].wordLegth = getSessionWordLength(\r\n            reqId[requestId]\r\n        );\r\n        // emitting event to signal rng was founded\r\n        emit RNGFound(requestId);\r\n        emit RandomWordsTaken(randomWords);\r\n        joinSessionFctOpen = true;\r\n\r\n        // here we remplaced the first letter\r\n        if (!session[reqId[requestId]].firstLetterRemplaced) {\r\n            compareAndCopy(\r\n                session[reqId[requestId]].word,\r\n                session[reqId[requestId]].word[0],\r\n                reqId[requestId]\r\n            );\r\n            session[reqId[requestId]].firstLetterRemplaced = true;\r\n        }\r\n        session[reqId[requestId]].lastMoveDate = block.timestamp; // start timeout counter\r\n        // rng was founded so we can open the session\r\n    }\r\n\r\n    /// @param idSession uint256 for identify the session\r\n    /// @param letter played in bytes1\r\n    /// @notice the playing function of this dapp\r\n    function play(bytes1 letter, uint256 idSession)\r\n        external\r\n        onlyPlayer(idSession)\r\n    {\r\n        require(isLetter(letter), \"Error, only lowercase letter\");\r\n        require(\r\n            sessionPublic[idSession].state == StateSession.InProgress,\r\n            \"Error, session not in progress\"\r\n        );\r\n        require(\r\n            sessionPublic[idSession].playerTwo != address(0x0),\r\n            \"Error, await for a second player\"\r\n        );\r\n        require(session[idSession].word[0] != \"\", \"RNG word not already found\");\r\n\r\n        // when Player One plays\r\n        if (msg.sender == sessionPublic[idSession].playerOne) {\r\n            compareAndCopy(session[idSession].word, letter, idSession);\r\n            sessionPublic[idSession].mustPlay = sessionPublic[idSession]\r\n                .playerTwo;\r\n            session[idSession].lastMoveDate = block.timestamp;\r\n            emit HasPlayed(idSession, sessionPublic[idSession].playerOne);\r\n\r\n            // Player one Find the word\r\n            if (\r\n                session[idSession].word ==\r\n                sessionPublic[idSession].playerOneGuess\r\n            ) {\r\n                session[idSession].playerOneFoundWord = true;\r\n                // Draw\r\n                if (session[idSession].playerTwoFoundWord) {\r\n                    sessionPublic[idSession].state = StateSession.Draw;\r\n                    balance[\r\n                        sessionPublic[idSession].playerOne\r\n                    ] += sessionPublic[idSession].betSize;\r\n                    balance[\r\n                        sessionPublic[idSession].playerTwo\r\n                    ] += sessionPublic[idSession].betSize;\r\n                }\r\n                // Player one Win\r\n                if (!session[idSession].playerTwoFoundWord) {\r\n                    sessionPublic[idSession].state = StateSession.PlayerOneWin;\r\n                    balance[sessionPublic[idSession].playerOne] +=\r\n                        sessionPublic[idSession].betSize *\r\n                        2;\r\n                }\r\n            }\r\n            // Player Two Win: Player Two find the word and player not found it\r\n            if (\r\n                session[idSession].playerTwoFoundWord &&\r\n                !session[idSession].playerOneFoundWord\r\n            ) {\r\n                sessionPublic[idSession].state = StateSession.PlayerTwoWin;\r\n                balance[sessionPublic[idSession].playerTwo] +=\r\n                    sessionPublic[idSession].betSize *\r\n                    2;\r\n            }\r\n        }\r\n\r\n        // when Player Two plays\r\n        if (msg.sender == sessionPublic[idSession].playerTwo) {\r\n            compareAndCopy(session[idSession].word, letter, idSession);\r\n            sessionPublic[idSession].mustPlay = sessionPublic[idSession]\r\n                .playerOne;\r\n            session[idSession].lastMoveDate = block.timestamp;\r\n            emit HasPlayed(idSession, sessionPublic[idSession].playerTwo);\r\n\r\n            // Player Two find the world\r\n            if (\r\n                session[idSession].word ==\r\n                sessionPublic[idSession].playerTwoGuess\r\n            ) {\r\n                session[idSession].playerTwoFoundWord = true;\r\n            }\r\n        }\r\n    }\r\n\r\n    /// @param position of the letter to change\r\n    /// @param toInsert letter to copy in bytes1\r\n    /// @param idSession uint256 for identify the session\r\n    /// @notice replaceBytesAtIndex\r\n    function replaceBytesAtIndex(\r\n        uint8 position,\r\n        bytes1 toInsert,\r\n        uint256 idSession\r\n    ) private {\r\n        bytes1 maskBytes = 0xff;\r\n        bytes32 mask = bytes32(maskBytes) >> (position * 8);\r\n\r\n        if (!session[idSession].firstLetterRemplaced) {\r\n            sessionPublic[idSession].playerOneGuess =\r\n                (~mask & sessionPublic[idSession].playerOneGuess) |\r\n                (bytes32(toInsert) >> (position * 8));\r\n            sessionPublic[idSession].playerTwoGuess =\r\n                (~mask & sessionPublic[idSession].playerTwoGuess) |\r\n                (bytes32(toInsert) >> (position * 8));\r\n        }\r\n\r\n        if (\r\n            sessionPublic[idSession].mustPlay ==\r\n            sessionPublic[idSession].playerOne &&\r\n            session[idSession].firstLetterRemplaced\r\n        ) {\r\n            sessionPublic[idSession].playerOneGuess =\r\n                (~mask & sessionPublic[idSession].playerOneGuess) |\r\n                (bytes32(toInsert) >> (position * 8));\r\n        }\r\n        if (\r\n            sessionPublic[idSession].mustPlay ==\r\n            sessionPublic[idSession].playerTwo &&\r\n            session[idSession].firstLetterRemplaced\r\n        ) {\r\n            sessionPublic[idSession].playerTwoGuess =\r\n                (~mask & sessionPublic[idSession].playerTwoGuess) |\r\n                (bytes32(toInsert) >> (position * 8));\r\n        }\r\n    }\r\n\r\n    /// @param word to compare\r\n    /// @param letter to check\r\n    /// @param idSession uint256 for identify the session\r\n    /// @notice compare and copy identical letter\r\n    function compareAndCopy(\r\n        bytes32 word,\r\n        bytes1 letter,\r\n        uint256 idSession\r\n    ) private {\r\n        for (uint8 i = 0; i < 32 && word[i] != 0; i++) {\r\n            if (word[i] == letter) {\r\n                replaceBytesAtIndex(i, letter, idSession);\r\n            }\r\n        }\r\n    }\r\n\r\n    /// @param player address of the player\r\n    /// @notice get the lit of the games for a given player address\r\n    function getPlayerGames(address player)\r\n        external\r\n        view\r\n        returns (uint256[] memory)\r\n    {\r\n        return playerGames[player].games;\r\n    }\r\n\r\n    /// @param idSession uint256 for identify the sesFsion\r\n    /// @notice get the word legth for a given session\r\n    function getSessionWordLength(uint256 idSession)\r\n        private\r\n        view\r\n        returns (uint8)\r\n    {\r\n        require(\r\n            sessionPublic[idSession].state != StateSession.NotCreated &&\r\n                sessionPublic[idSession].state != StateSession.Reachable,\r\n            \"Error, This session does not have already a word\"\r\n        );\r\n        uint8 i = 0;\r\n        while (i < 32 && session[idSession].word[i] != 0) {\r\n            i++;\r\n        }\r\n        return i;\r\n    }\r\n\r\n    /// @param b bytes1 to check if is letter or not\r\n    /// @notice check if is a letter\r\n    function isLetter(bytes1 b) private pure returns (bool) {\r\n        if (!(b >= 0x61 && b <= 0x7A)) {\r\n            //a-z\r\n            return false;\r\n        }\r\n        return true;\r\n    }\r\n\r\n    /// !! fonction non-dploy\r\n    /// @param word bytes32 check if word is composed of lower case letters\r\n    /// @notice check if is a letter\r\n    function isLowerCaseWord(bytes32 word) private pure returns (bool) {\r\n        for (uint8 i = 0; i < 32 && word[i] != 0; i++) {\r\n            if (!isLetter(word[i])) {\r\n                return false;\r\n            }\r\n        }\r\n        return true;\r\n    }\r\n}\r\n",
  "sourcePath": "C:\\Users\\juwol\\Desktop\\DEV\\refonte pendu\\Penduel\\contracts\\Penduel.sol",
  "compiler": {
    "name": "solc",
    "version": "0.8.16+commit.07a7930e.Emscripten.clang"
  },
  "schemaVersion": "3.4.6",
  "updatedAt": "2022-12-09T00:39:49.388Z",
  "networkType": "ethereum",
  "devdoc": {
    "author": "jw418",
    "details": "This contract can cointains exploit, deploy this contract on tesnet only!!",
    "kind": "dev",
    "methods": {
      "addWord(bytes32)": {
        "params": {
          "word": "it is a bytes32"
        }
      },
      "constructor": {
        "details": "go to your chainlink account to see your subcription IDwhen the contract is deployed do not forget to add this contract to your consumer"
      },
      "getPlayerGames(address)": {
        "params": {
          "player": "address of the player"
        }
      },
      "joinSession(uint256)": {
        "details": "this function request for randomness"
      },
      "openJoinSessionFct()": {
        "details": "first make sure that the contract has been added to the consumers on your chainlik subscription management page"
      },
      "owner()": {
        "details": "Returns the address of the current owner."
      },
      "play(bytes1,uint256)": {
        "params": {
          "idSession": "uint256 for identify the session",
          "letter": "played in bytes1"
        }
      },
      "refundRNGnotFound(uint256)": {
        "params": {
          "idSession": "uint256 for identify the session"
        }
      },
      "renounceOwnership()": {
        "details": "Leaves the contract without owner. It will not be possible to call `onlyOwner` functions anymore. Can only be called by the current owner. NOTE: Renouncing ownership will leave the contract without an owner, thereby removing any functionality that is only available to the owner."
      },
      "requestCancelGame(uint256)": {
        "params": {
          "idSession": "uint256 for identify the session"
        }
      },
      "requestWinTimeout(uint256)": {
        "params": {
          "idSession": "uint256 for identify the session"
        }
      },
      "transferOwnership(address)": {
        "details": "Transfers ownership of the contract to a new account (`newOwner`). Can only be called by the current owner."
      }
    },
    "title": "Penduel",
    "version": 1
  },
  "userdoc": {
    "kind": "user",
    "methods": {
      "addWord(bytes32)": {
        "notice": "allows the owner to add words to the list for the game"
      },
      "createSession()": {
        "notice": "for create a new game session"
      },
      "getPlayerGames(address)": {
        "notice": "get the lit of the games for a given player address"
      },
      "joinSession(uint256)": {
        "notice": "for join a session already created"
      },
      "openJoinSessionFct()": {
        "notice": "autorised players to use the joinSession Function"
      },
      "pausedJoinSessionFct()": {
        "notice": "unautorised players to use the joinSession Function"
      },
      "play(bytes1,uint256)": {
        "notice": "the playing function of this dapp"
      },
      "playerWithdraw()": {
        "notice": "a withdraw function for players"
      },
      "refundRNGnotFound(uint256)": {
        "notice": "if chainlink took too many times for given a rng the player can ask for a refund"
      },
      "requestCancelGame(uint256)": {
        "notice": "24hours after the creation of the game the creator can cancel it if no one join it"
      },
      "requestWinTimeout(uint256)": {
        "notice": "if the opponent player took too many times for playing you can ask for a win by TimeOut"
      }
    },
    "notice": "Versus hangman's game",
    "version": 1
  }
}