{
  "contractName": "Penduel",
  "abi": [
    {
      "inputs": [
        {
          "internalType": "uint64",
          "name": "subscriptionId",
          "type": "uint64"
        }
      ],
      "stateMutability": "nonpayable",
      "type": "constructor"
    },
    {
      "inputs": [
        {
          "internalType": "address",
          "name": "have",
          "type": "address"
        },
        {
          "internalType": "address",
          "name": "want",
          "type": "address"
        }
      ],
      "name": "OnlyCoordinatorCanFulfill",
      "type": "error"
    },
    {
      "anonymous": false,
      "inputs": [
        {
          "indexed": true,
          "internalType": "uint256",
          "name": "requestId",
          "type": "uint256"
        }
      ],
      "name": "DiceLanded",
      "type": "event"
    },
    {
      "anonymous": false,
      "inputs": [
        {
          "indexed": true,
          "internalType": "uint256",
          "name": "requestId",
          "type": "uint256"
        },
        {
          "indexed": true,
          "internalType": "uint256",
          "name": "idSession",
          "type": "uint256"
        }
      ],
      "name": "DiceRolled",
      "type": "event"
    },
    {
      "anonymous": false,
      "inputs": [
        {
          "indexed": true,
          "internalType": "address",
          "name": "sender",
          "type": "address"
        },
        {
          "indexed": false,
          "internalType": "uint256",
          "name": "amount",
          "type": "uint256"
        }
      ],
      "name": "Received",
      "type": "event"
    },
    {
      "anonymous": false,
      "inputs": [
        {
          "indexed": false,
          "internalType": "uint256",
          "name": "idSession",
          "type": "uint256"
        },
        {
          "indexed": false,
          "internalType": "address",
          "name": "playerOne",
          "type": "address"
        },
        {
          "indexed": false,
          "internalType": "uint256",
          "name": "betSize",
          "type": "uint256"
        }
      ],
      "name": "SessionCreated",
      "type": "event"
    },
    {
      "anonymous": false,
      "inputs": [
        {
          "indexed": false,
          "internalType": "uint256",
          "name": "idSession",
          "type": "uint256"
        },
        {
          "indexed": false,
          "internalType": "address",
          "name": "playerTwo",
          "type": "address"
        }
      ],
      "name": "SessionJoined",
      "type": "event"
    },
    {
      "anonymous": false,
      "inputs": [
        {
          "indexed": false,
          "internalType": "address",
          "name": "admin",
          "type": "address"
        },
        {
          "indexed": false,
          "internalType": "uint256",
          "name": "amount",
          "type": "uint256"
        }
      ],
      "name": "Withdraw",
      "type": "event"
    },
    {
      "inputs": [
        {
          "internalType": "address",
          "name": "",
          "type": "address"
        }
      ],
      "name": "_blacklist",
      "outputs": [
        {
          "internalType": "bool",
          "name": "",
          "type": "bool"
        }
      ],
      "stateMutability": "view",
      "type": "function",
      "constant": true
    },
    {
      "inputs": [],
      "name": "admin",
      "outputs": [
        {
          "internalType": "address payable",
          "name": "",
          "type": "address"
        }
      ],
      "stateMutability": "view",
      "type": "function",
      "constant": true
    },
    {
      "inputs": [
        {
          "internalType": "address",
          "name": "",
          "type": "address"
        }
      ],
      "name": "balance",
      "outputs": [
        {
          "internalType": "uint256",
          "name": "",
          "type": "uint256"
        }
      ],
      "stateMutability": "view",
      "type": "function",
      "constant": true
    },
    {
      "inputs": [
        {
          "internalType": "uint256",
          "name": "requestId",
          "type": "uint256"
        },
        {
          "internalType": "uint256[]",
          "name": "randomWords",
          "type": "uint256[]"
        }
      ],
      "name": "rawFulfillRandomWords",
      "outputs": [],
      "stateMutability": "nonpayable",
      "type": "function"
    },
    {
      "inputs": [
        {
          "internalType": "uint256",
          "name": "",
          "type": "uint256"
        }
      ],
      "name": "s_randomWords",
      "outputs": [
        {
          "internalType": "uint256",
          "name": "",
          "type": "uint256"
        }
      ],
      "stateMutability": "view",
      "type": "function",
      "constant": true
    },
    {
      "inputs": [],
      "name": "s_subscriptionId",
      "outputs": [
        {
          "internalType": "uint64",
          "name": "",
          "type": "uint64"
        }
      ],
      "stateMutability": "view",
      "type": "function",
      "constant": true
    },
    {
      "inputs": [],
      "name": "totalCreatedSessions",
      "outputs": [
        {
          "internalType": "uint256",
          "name": "",
          "type": "uint256"
        }
      ],
      "stateMutability": "view",
      "type": "function",
      "constant": true
    },
    {
      "stateMutability": "payable",
      "type": "receive",
      "payable": true
    },
    {
      "inputs": [
        {
          "internalType": "bytes1",
          "name": "b",
          "type": "bytes1"
        }
      ],
      "name": "isLetter",
      "outputs": [
        {
          "internalType": "bool",
          "name": "",
          "type": "bool"
        }
      ],
      "stateMutability": "pure",
      "type": "function",
      "constant": true
    },
    {
      "inputs": [
        {
          "internalType": "uint256",
          "name": "amount",
          "type": "uint256"
        }
      ],
      "name": "withdrawEther",
      "outputs": [],
      "stateMutability": "payable",
      "type": "function",
      "payable": true
    },
    {
      "inputs": [
        {
          "internalType": "bytes32",
          "name": "word",
          "type": "bytes32"
        }
      ],
      "name": "addWord",
      "outputs": [],
      "stateMutability": "nonpayable",
      "type": "function"
    },
    {
      "inputs": [],
      "name": "createSession",
      "outputs": [],
      "stateMutability": "payable",
      "type": "function",
      "payable": true
    },
    {
      "inputs": [
        {
          "internalType": "uint256",
          "name": "idSession",
          "type": "uint256"
        }
      ],
      "name": "joinSession",
      "outputs": [
        {
          "internalType": "uint256",
          "name": "requestId",
          "type": "uint256"
        }
      ],
      "stateMutability": "payable",
      "type": "function",
      "payable": true
    },
    {
      "inputs": [
        {
          "internalType": "bytes1",
          "name": "letter",
          "type": "bytes1"
        },
        {
          "internalType": "uint256",
          "name": "idSession",
          "type": "uint256"
        }
      ],
      "name": "play",
      "outputs": [],
      "stateMutability": "nonpayable",
      "type": "function"
    },
    {
      "inputs": [
        {
          "internalType": "uint256",
          "name": "id",
          "type": "uint256"
        }
      ],
      "name": "getStruct",
      "outputs": [
        {
          "internalType": "uint256",
          "name": "idSession",
          "type": "uint256"
        },
        {
          "internalType": "address payable",
          "name": "playerOne",
          "type": "address"
        },
        {
          "internalType": "address payable",
          "name": "playerTwo",
          "type": "address"
        },
        {
          "internalType": "uint256",
          "name": "betSize",
          "type": "uint256"
        },
        {
          "internalType": "bytes32",
          "name": "word",
          "type": "bytes32"
        }
      ],
      "stateMutability": "view",
      "type": "function",
      "constant": true
    },
    {
      "inputs": [
        {
          "internalType": "uint256",
          "name": "id",
          "type": "uint256"
        }
      ],
      "name": "getStructPart",
      "outputs": [
        {
          "internalType": "enum Penduel.StateSession",
          "name": "state",
          "type": "uint8"
        },
        {
          "internalType": "address",
          "name": "mustPlay",
          "type": "address"
        },
        {
          "internalType": "bytes1[]",
          "name": "lettersPlayedPOne",
          "type": "bytes1[]"
        },
        {
          "internalType": "bytes1[]",
          "name": "lettersPlayedPtwo",
          "type": "bytes1[]"
        }
      ],
      "stateMutability": "view",
      "type": "function",
      "constant": true
    },
    {
      "inputs": [
        {
          "internalType": "bytes32",
          "name": "_bytes32",
          "type": "bytes32"
        }
      ],
      "name": "bytes32ToString",
      "outputs": [
        {
          "internalType": "string",
          "name": "",
          "type": "string"
        }
      ],
      "stateMutability": "pure",
      "type": "function",
      "constant": true
    }
  ],
  "bytecode": "0x600180546001600160a01b031916736168499c0cffcacd319c818142124b7a15e857ab1790557fd89b2bf150e3b9e13446986e571fb9cab24b13cea0a43ea20a6049a85cc807cc6002556003805466010003000186a06001600160501b03199091161790556101806040526468656c6c6f60d81b60a090815266676f6f6462796560c81b60c0526239bab760e91b60e05267686f6c6c6964617960c01b61010052656265666f726560d01b610120526430b33a32b960d91b61014052661cdc1958da585b60ca1b61016052620000da9060059060076200015e565b50348015620000e857600080fd5b5060405162001640380380620016408339810160408190526200010b91620001c5565b6001546001600160a01b0316608081905260008054600680546001600160a01b031916331790556001600160401b03909316600160a01b026001600160e01b0319909316909117919091179055620001f7565b8280548282559060005260206000209081019282156200019c579160200282015b828111156200019c5782518255916020019190600101906200017f565b50620001aa929150620001ae565b5090565b5b80821115620001aa5760008155600101620001af565b600060208284031215620001d857600080fd5b81516001600160401b0381168114620001f057600080fd5b9392505050565b6080516114266200021a600039600081816108b901526108fb01526114266000f3fe6080604052600436106100f75760003560e01c80639a176dd81161008a578063e3d670d711610059578063e3d670d714610363578063f1c8e98f14610390578063f6eaffc8146103a6578063f851a440146103c657600080fd5b80639a176dd814610259578063a20623ce14610279578063cdfa8495146102a9578063cf91e68c1461033357600080fd5b80632855a6b0116100c65780632855a6b0146101b85780633bed33ce146101d85780638ac00021146101eb5780639201de551461022c57600080fd5b8063040d1ed91461013857806305991eba1461016d5780631cbf1b021461018e5780631fe543e31461019857600080fd5b366101335760405134815233907f88a5966d370b9919b20f3e2c13ff65706f196a4e32cc2c12bf57088f885258749060200160405180910390a2005b600080fd5b34801561014457600080fd5b506101586101533660046110a1565b6103fe565b60405190151581526020015b60405180910390f35b61018061017b3660046110bc565b610477565b604051908152602001610164565b610196610786565b005b3480156101a457600080fd5b506101966101b33660046110eb565b6108ae565b3480156101c457600080fd5b506101966101d33660046110bc565b610936565b6101966101e63660046110bc565b6109bf565b3480156101f757600080fd5b5060005461021390600160a01b900467ffffffffffffffff1681565b60405167ffffffffffffffff9091168152602001610164565b34801561023857600080fd5b5061024c6102473660046110bc565b610af7565b60405161016491906111b5565b34801561026557600080fd5b5061019661027436600461120a565b610c2e565b34801561028557600080fd5b50610158610294366004611234565b600a6020526000908152604090205460ff1681565b3480156102b557600080fd5b506102ff6102c43660046110bc565b6000908152600960205260409020805460018201546002830154600384015460049094015492946001600160a01b0392831694929091169290565b604080519586526001600160a01b03948516602087015292909316918401919091526060830152608082015260a001610164565b34801561033f57600080fd5b5061035361034e3660046110bc565b610e96565b60405161016494939291906112b8565b34801561036f57600080fd5b5061018061037e366004611234565b600b6020526000908152604090205481565b34801561039c57600080fd5b5061018060075481565b3480156103b257600080fd5b506101806103c13660046110bc565b610fcd565b3480156103d257600080fd5b506006546103e6906001600160a01b031681565b6040516001600160a01b039091168152602001610164565b6000604160f81b6001600160f81b031983161080159061042c5750602d60f91b6001600160f81b0319831611155b1580156104625750606160f81b6001600160f81b03198316108015906104605750603d60f91b6001600160f81b0319831611155b155b1561046f57506000919050565b506001919050565b6000818152600960205260408120600101546001600160a01b031633036104f55760405162461bcd60e51b815260206004820152602760248201527f4572726f722c20796f75722061726520616c726561647920696e20746869732060448201526639b2b9b9b4b7b760c91b60648201526084015b60405180910390fd5b34333110156105165760405162461bcd60e51b81526004016104ec9061131c565b6000828152600960205260409020600301543410156105475760405162461bcd60e51b81526004016104ec9061131c565b600160008381526009602052604090206005015460ff16600381111561056f5761056f61125d565b146105e25760405162461bcd60e51b815260206004820152603860248201527f4572726f722c2073657373696f6e20616c72656164792066756c6c2c2066696e60448201527f6973686564206f7220646f6573206e6f7420657873697374000000000000000060648201526084016104ec565b600082815260096020526040808220600290810180546001600160a01b031916331790559154915460035491516305d3b1d360e41b8152600481019190915267ffffffffffffffff600160a01b840416602482015261ffff640100000000830416604482015263ffffffff8083166064830152660100000000000090920490911660848201526001600160a01b0390911690635d3b1d309060a4016020604051808303816000875af115801561069c573d6000803e3d6000fd5b505050506040513d601f19601f820116820180604052508101906106c09190611351565b60008381526009602090815260408083205484845260089092528083209190915551919250839183917fc8aa159ba2f8c0865ab5ea1cdb5b70ce807eebfc517029c8668458d69a4059da91a36000828152600960209081526040918290206005810180546002928301546001600160a01b0316610100026001600160a81b0319909116179091179055815184815233918101919091527fa80783b53d1b2057a0c31627ae91183cba1ed5e26a4b1cc8074a90f89c92fa85910160405180910390a1919050565b34333110156107a75760405162461bcd60e51b81526004016104ec9061131c565b600034116107ee5760405162461bcd60e51b81526020600482015260146024820152734572726f722c206d696e696d756d20312057454960601b60448201526064016104ec565b600780549060006107fe83611380565b90915550506007805460009081526009602052604080822060019081018054336001600160a01b0319918216811790925585548086528486209081558301805490911690911790558354835281832034600390910155925482529020600501805460ff1916828002179055506007546040805191825233602083015234908201527f658891ce811ff307aab5be445fb05fffbcd9a125b10915b1aba719e376c537719060600160405180910390a1565b336001600160a01b037f000000000000000000000000000000000000000000000000000000000000000016146109285760405163073e64fd60e21b81523360048201526001600160a01b037f00000000000000000000000000000000000000000000000000000000000000001660248201526044016104ec565b6109328282610fee565b5050565b6006546001600160a01b0316331461098a5760405162461bcd60e51b815260206004820152601760248201527631b0b63632b91034b9903737ba103a34329030b236b4b760491b60448201526064016104ec565b600580546001810182556000919091527f036b6384b5eca791c62761152d0c79bb0604c104a5fb6f4eb0703f3154bb3db00155565b6006546001600160a01b03163314610a135760405162461bcd60e51b815260206004820152601760248201527631b0b63632b91034b9903737ba103a34329030b236b4b760491b60448201526064016104ec565b80471015610a735760405162461bcd60e51b815260206004820152602760248201527f4572726f722c20636f6e74726163742068617320696e737566666963656e742060448201526662616c616e636560c81b60648201526084016104ec565b6006546040516001600160a01b039091169082156108fc029083906000818181858888f19350505050158015610aad573d6000803e3d6000fd5b50600654604080516001600160a01b039092168252602082018390527f884edad9ce6fa2440d8a54cc123490eb96d2768479d49ff9c7366125a9424364910160405180910390a150565b606060005b60208160ff16108015610b305750828160ff1660208110610b1f57610b1f611399565b1a60f81b6001600160f81b03191615155b15610b475780610b3f816113af565b915050610afc565b60008160ff1667ffffffffffffffff811115610b6557610b656110d5565b6040519080825280601f01601f191660200182016040528015610b8f576020820181803683370190505b509050600091505b60208260ff16108015610bcb5750838260ff1660208110610bba57610bba611399565b1a60f81b6001600160f81b03191615155b15610c2757838260ff1660208110610be557610be5611399565b1a60f81b818360ff1681518110610bfe57610bfe611399565b60200101906001600160f81b031916908160001a90535081610c1f816113af565b925050610b97565b9392505050565b600081815260096020526040902060050154819061010090046001600160a01b03163314610c915760405162461bcd60e51b815260206004820152601060248201526f34b9903737ba103cb7bab9103a3ab93760811b60448201526064016104ec565b60008290526009602052610ca4836103fe565b1515600114610cee5760405162461bcd60e51b815260206004820152601660248201527522b93937b9161034b9903737ba1030903632ba3a32b960511b60448201526064016104ec565b6000828152600960205260409020600201546001600160a01b0316610d555760405162461bcd60e51b815260206004820181905260248201527f4572726f722c20617761697420666f722061207365636f6e6420706c6179657260448201526064016104ec565b6000828152600960205260409020600101546001600160a01b03163303610df35760008281526009602090815260408220600681018054600181018255908452828420928104909201805460ff601f90941661010090810a9485021990911660f889901c9490940293909317905591849052600282015460059092018054610100600160a81b0319166001600160a01b039093169091029190911790555b6000828152600960205260409020600201546001600160a01b03163303610e91576000828152600960209081526040822060078101805460018082018355918552838520938104909301805460ff601f90951661010090810a9586021990911660f88a901c95909502949094179055928590529182015460059092018054610100600160a81b0319166001600160a01b039093169091029190911790555b505050565b600081815260096020908152604080832060058101546006820180548451818702810187019095528085528695606095869560ff86169561010090046001600160a01b03169493600790910192849190830182828015610f3d57602002820191906000526020600020906000905b825461010083900a900460f81b6001600160f81b031916815260206001928301818104948501949093039092029101808411610f045790505b5050505050915080805480602002602001604051908101604052809291908181526020018280548015610fb757602002820191906000526020600020906000905b825461010083900a900460f81b6001600160f81b031916815260206001928301818104948501949093039092029101808411610f7e5790505b5050505050905093509350935093509193509193565b60048181548110610fdd57600080fd5b600091825260209091200154905081565b60006005805490508260008151811061100957611009611399565b602002602001015161101b91906113ce565b90506005818154811061103057611030611399565b60009182526020808320909101548583526008825260408084205484526009909252818320600401555184917f0fa143af3152b0314efb7493de77eccd78bf3b5a8520cf84c9894d597cca08c091a2505050565b80356001600160f81b03198116811461109c57600080fd5b919050565b6000602082840312156110b357600080fd5b610c2782611084565b6000602082840312156110ce57600080fd5b5035919050565b634e487b7160e01b600052604160045260246000fd5b600080604083850312156110fe57600080fd5b8235915060208084013567ffffffffffffffff8082111561111e57600080fd5b818601915086601f83011261113257600080fd5b813581811115611144576111446110d5565b8060051b604051601f19603f83011681018181108582111715611169576111696110d5565b60405291825284820192508381018501918983111561118757600080fd5b938501935b828510156111a55784358452938501939285019261118c565b8096505050505050509250929050565b600060208083528351808285015260005b818110156111e2578581018301518582016040015282016111c6565b818111156111f4576000604083870101525b50601f01601f1916929092016040019392505050565b6000806040838503121561121d57600080fd5b61122683611084565b946020939093013593505050565b60006020828403121561124657600080fd5b81356001600160a01b0381168114610c2757600080fd5b634e487b7160e01b600052602160045260246000fd5b600081518084526020808501945080840160005b838110156112ad5781516001600160f81b03191687529582019590820190600101611287565b509495945050505050565b6000600486106112d857634e487b7160e01b600052602160045260246000fd5b8582526001600160a01b03851660208301526080604083018190526112ff90830185611273565b82810360608401526113118185611273565b979650505050505050565b6020808252818101527f4572726f722c20696e737566666963656e74207661756c742062616c616e6365604082015260600190565b60006020828403121561136357600080fd5b5051919050565b634e487b7160e01b600052601160045260246000fd5b6000600182016113925761139261136a565b5060010190565b634e487b7160e01b600052603260045260246000fd5b600060ff821660ff81036113c5576113c561136a565b60010192915050565b6000826113eb57634e487b7160e01b600052601260045260246000fd5b50069056fea2646970667358221220982e6a7c65682f9bfbd67d0f14d9830ed33ada00953a9152a32ab398db4d6d6364736f6c634300080f0033",
  "immutableReferences": {
    "1637": [
      {
        "length": 32,
        "start": 2233
      },
      {
        "length": 32,
        "start": 2299
      }
    ]
  },
  "source": "// SPDX-License-Identifier: MIT\r\n\r\npragma solidity 0.8.15;\r\n\r\n// import \"../../node_modules/@openzeppelin/contracts/access/Ownable.sol\";\r\nimport \"../node_modules/@chainlink/contracts/src/v0.8/interfaces/VRFCoordinatorV2Interface.sol\";\r\nimport \"../node_modules/@chainlink/contracts/src/v0.8/VRFConsumerBaseV2.sol\";\r\n\r\n/// @title Penduel\r\n/// @author jw418\r\n/// @notice You can use this contract for only the most basic simulation\r\n/// @dev This contract can cointains exploit, deploy this contract on tesnet only!!\r\ncontract Penduel is VRFConsumerBaseV2 {\r\n    VRFCoordinatorV2Interface COORDINATOR;\r\n\r\n    // Your subscription ID for CHAINLINK.\r\n    uint64 public s_subscriptionId;   //8023\r\n    // Rinkeby coordinator   \r\n    address vrfCoordinator = 0x6168499c0cFfCaCD319c818142124B7A15E857ab;\r\n    bytes32 s_keyHash = 0xd89b2bf150e3b9e13446986e571fb9cab24b13cea0a43ea20a6049a85cc807cc; \r\n    uint32 callbackGasLimit = 100000;\r\n    // The default is 3, but you can set this higher.\r\n    uint16 requestConfirmations = 3;\r\n    uint32 numWords =  1;\r\n    uint256[] public s_randomWords;           \r\n    bytes32[] _words = [bytes32(\"hello\"),bytes32(\"goodbye\"),bytes32(\"sun\"),\r\n                        bytes32(\"holliday\"),bytes32(\"before\"),bytes32(\"after\"),\r\n                        bytes32(\"special\")];\r\n\r\n    address payable public admin;     \r\n    uint256 public totalCreatedSessions;\r\n    // uint256 private constant ROLL_IN_PROGRESS = 99999;\r\n\r\n    // mapping(uint256 => address) private s_rollers;\r\n\r\n    mapping(uint256 => uint256) private reqId;\r\n\r\n    mapping(uint256 => Sessions) session;           // map un uint(idSession) avec une session    \r\n    mapping(address => bool) public _blacklist;    // liste des joueurs blacklist\r\n    mapping(address => uint256) public balance;\r\n    mapping(address => Players) private _player;    \r\n\r\n    struct Sessions {\r\n        uint256 idSession;           \r\n        address payable playerOne;\r\n        address payable playerTwo;\r\n        uint256 betSize;        \r\n        bytes32 word;\r\n        StateSession  state;\r\n        address mustPlay;\r\n        bytes1[] lettersPlayedPOne;\r\n        bytes1[] lettersPlayedPtwo;\r\n    }\r\n   \r\n\r\n    struct Players {\r\n        bytes1[] lettersPlayed;\r\n        uint256[] games; \r\n    }\r\n  \r\n    enum StateSession {\r\n        NotCreated,\r\n        Joignable,\r\n        EnCours,\r\n        Termine\r\n    }\r\n \r\n    modifier onlyAdmin() {\r\n        require(msg.sender == admin, \"caller is not the admin\");\r\n        _;\r\n    }\r\n\r\n    modifier onlyPlayer(uint256 idSession) {\r\n        require(msg.sender == session[idSession].mustPlay, \"is not your turn\");\r\n        _;\r\n    }\r\n\r\n    /// events\r\n    event Withdraw(address admin, uint256 amount);\r\n    event Received(address indexed sender, uint256 amount);\r\n    event SessionCreated(uint idSession, address playerOne, uint256 betSize);\r\n    event SessionJoined(uint idSession, address playerTwo);\r\n    event DiceRolled(uint256 indexed requestId, uint256 indexed idSession);\r\n    event DiceLanded(uint256 indexed requestId);\r\n\r\n    constructor(uint64 subscriptionId) VRFConsumerBaseV2(vrfCoordinator) {    \r\n        COORDINATOR = VRFCoordinatorV2Interface(vrfCoordinator);\r\n        admin = payable(msg.sender);\r\n        s_subscriptionId = subscriptionId;\r\n    }\r\n\r\n    /* Allows this contract to receive payments */\r\n    receive() external payable {\r\n        emit Received(msg.sender, msg.value);\r\n    }    \r\n\r\n    function isLetter(bytes1 b) public pure returns (bool) {        \r\n        if(            \r\n                !(b >= 0x41 && b <= 0x5A) && //A-Z\r\n                !(b >= 0x61 && b<= 0x7A) //a-z          \r\n            )\r\n                return false;        \r\n        return true;\r\n    }  \r\n\r\n    /// @notice\r\n    function withdrawEther(uint256 amount) external payable onlyAdmin {\r\n        require(address(this).balance>=amount, 'Error, contract has insufficent balance');\r\n        admin.transfer(amount);\r\n    \r\n        emit Withdraw(admin, amount);\r\n    }\r\n\r\n    /// @notice\r\n    function addWord(bytes32 word) external onlyAdmin {\r\n        _words.push(word);\r\n  \r\n    }\r\n\r\n    /// @notice\r\n    function createSession() payable public {\r\n        require(msg.sender.balance>=msg.value, 'Error, insufficent vault balance');\r\n        require(msg.value > 0, 'Error, minimum 1 WEI');\r\n        totalCreatedSessions++;\r\n        session[totalCreatedSessions].playerOne = payable(msg.sender); \r\n        session[totalCreatedSessions].idSession = totalCreatedSessions;\r\n        session[totalCreatedSessions].playerOne = payable(msg.sender);\r\n        session[totalCreatedSessions].betSize = msg.value;        \r\n        session[totalCreatedSessions].state = StateSession.Joignable;        \r\n\r\n        emit SessionCreated(totalCreatedSessions, msg.sender, msg.value);\r\n    }\r\n\r\n    /// @notice\r\n    function joinSession(uint256 idSession) payable public returns (uint256 requestId){\r\n        require(msg.sender != session[idSession].playerOne, 'Error, your are already in this session');\r\n        require(msg.sender.balance >= msg.value, 'Error, insufficent vault balance');\r\n        require(msg.value >= session[idSession].betSize, 'Error, insufficent vault balance');\r\n        require(session[idSession].state == StateSession.Joignable, 'Error, session already full, finished or does not exsist');     \r\n        \r\n        session[idSession].playerTwo = payable(msg.sender);\r\n        requestId = COORDINATOR.requestRandomWords(\r\n        s_keyHash,\r\n        s_subscriptionId,\r\n        requestConfirmations,\r\n        callbackGasLimit,\r\n        numWords\r\n        );\r\n        reqId[requestId] = session[idSession].idSession;         //mapping(uint256 => uint256) private reqId;\r\n        \r\n        emit DiceRolled(requestId, idSession);\r\n\r\n        session[idSession].state = StateSession.EnCours;\r\n        session[idSession].mustPlay = session[idSession].playerTwo;\r\n\r\n        emit SessionJoined(idSession, msg.sender);\r\n    }\r\n\r\n    function fulfillRandomWords(\r\n        uint256 requestId,\r\n        uint256[] memory randomWords\r\n    ) internal  override{\r\n\r\n        uint256 value = randomWords[0] % _words.length;\r\n        session[reqId[requestId]].word = _words[value]; \r\n\r\n        // emitting event to signal that dice landed\r\n        emit DiceLanded(requestId);\r\n    }    \r\n\r\n\r\n    /// @notice\r\n    function play(bytes1 letter, uint256 idSession) public  onlyPlayer(idSession) {  \r\n\r\n        require(session[idSession].word.length > 1 , \"Dice not rolled\");\r\n        require(isLetter(letter) == true, \"Error, is not a letter\"); \r\n        require(session[idSession].playerTwo != address(0x0), \"Error, await for a second player\");\r\n        \r\n        \r\n        if (msg.sender == session[idSession].playerOne) {            \r\n            session[idSession].lettersPlayedPOne.push(letter);\r\n            session[idSession].mustPlay = session[idSession].playerTwo;\r\n        }\r\n\r\n        if (msg.sender == session[idSession].playerTwo){\r\n            session[idSession].lettersPlayedPtwo.push(letter);\r\n            session[idSession].mustPlay = session[idSession].playerOne;\r\n        }        \r\n    }\r\n\r\n    function getStruct(uint256 id) public  view returns(uint256 idSession , address payable playerOne, address payable playerTwo, uint256 betSize, bytes32 word){\r\n        return (session[id].idSession, session[id].playerOne, session[id].playerTwo, session[id].betSize, session[id].word) ;\r\n    }\r\n\r\n    function getStructPart(uint256 id) public view returns(StateSession  state, address mustPlay, bytes1[] memory lettersPlayedPOne, bytes1[] memory lettersPlayedPtwo){\r\n        return (session[id].state, session[id].mustPlay, session[id].lettersPlayedPOne, session[id].lettersPlayedPtwo);\r\n    }\r\n    \r\n\r\n    function bytes32ToString(bytes32 _bytes32) public pure returns (string memory) {\r\n        uint8 i = 0;\r\n        while(i < 32 && _bytes32[i] != 0) {\r\n            i++;\r\n        }\r\n        bytes memory bytesArray = new bytes(i);\r\n        for (i = 0; i < 32 && _bytes32[i] != 0; i++) {\r\n            bytesArray[i] = _bytes32[i];\r\n        }\r\n        return string(bytesArray);\r\n    }\r\n\r\n    //     function checkLetter(string memory _letter, uint256 idSession) internal pure returns(bool){\r\n    //         while \r\n    //         if(bytes(_letter).length != bytes(b).length) {\r\n    //              return false;\r\n    //         } else {\r\n    //              return keccak256(abi.encodePacked(a)) == keccak256(abi.encodePacked(b));\r\n    //         }\r\n    //     } \r\n\r\n    //      // Assumes the subscription is funded sufficiently.\r\n    //      function requestRandomWords() external  {\r\n    //          // Will revert if subscription is not set and funded.\r\n    //          s_requestId = COORDINATOR.requestRandomWords(\r\n    //          s_keyHash,\r\n    //          s_subscriptionId,\r\n    //          requestConfirmations,\r\n    //          callbackGasLimit,\r\n    //          numWords\r\n    //          );\r\n    //      }\r\n\r\n    // function getSlice(string memory word) public pure returns (string[] memory) {\r\n    //     bytes memory a = new bytes(lengthString(word));\r\n    //     for(uint i=0;i<=lengthString(word);i++){\r\n    //         push(a[i])\r\n    //         a[i] = bytes(text)[i+begin-1];\r\n    //     }\r\n    //     return string(a);    \r\n    // }\r\n\r\n    //     function getSlice(string memory word) public pure returns (string memory) {\r\n    //     bytes memory a = new bytes(lengthString(word));\r\n    //     for(uint i=1;i<=lengthString(word);i++){\r\n    //         a[i] = bytes(word)[i];\r\n    //     }\r\n    //     return string(a);    \r\n    // }\r\n\r\n    //   function getSlice(uint256 begin, uint256 end, string memory text) public pure returns (string memory) {\r\n    //     bytes memory a = new bytes(end-begin+1);\r\n    //     for(uint i=0;i<=end-begin;i++){\r\n    //         a[i] = bytes(text)[i+begin-1];\r\n    //     }\r\n    //     return string(a);    \r\n    // }\r\n\r\n\r\n\r\n}",
  "sourcePath": "C:\\Users\\juwol\\Desktop\\DEV\\Penduel_certif\\Penduel\\contracts\\Penduel.sol",
  "compiler": {
    "name": "solc",
    "version": "0.8.15+commit.e14f2714.Emscripten.clang"
  },
  "schemaVersion": "3.4.6",
  "updatedAt": "2022-07-26T21:59:38.642Z",
  "networkType": "ethereum",
  "devdoc": {
    "author": "jw418",
    "details": "This contract can cointains exploit, deploy this contract on tesnet only!!",
    "kind": "dev",
    "methods": {},
    "title": "Penduel",
    "version": 1
  },
  "userdoc": {
    "events": {
      "Withdraw(address,uint256)": {
        "notice": "events"
      }
    },
    "kind": "user",
    "methods": {},
    "notice": "You can use this contract for only the most basic simulation",
    "version": 1
  }
}