{
  "contractName": "MockPenduel",
  "abi": [
    {
      "anonymous": false,
      "inputs": [
        {
          "indexed": false,
          "internalType": "uint256",
          "name": "idSession",
          "type": "uint256"
        },
        {
          "indexed": false,
          "internalType": "address",
          "name": "player",
          "type": "address"
        }
      ],
      "name": "HasPlayed",
      "type": "event"
    },
    {
      "anonymous": false,
      "inputs": [
        {
          "indexed": false,
          "internalType": "bool",
          "name": "paused",
          "type": "bool"
        }
      ],
      "name": "JoinSessionFctPaused",
      "type": "event"
    },
    {
      "anonymous": false,
      "inputs": [
        {
          "indexed": true,
          "internalType": "address",
          "name": "previousOwner",
          "type": "address"
        },
        {
          "indexed": true,
          "internalType": "address",
          "name": "newOwner",
          "type": "address"
        }
      ],
      "name": "OwnershipTransferred",
      "type": "event"
    },
    {
      "anonymous": false,
      "inputs": [
        {
          "indexed": false,
          "internalType": "address",
          "name": "player",
          "type": "address"
        },
        {
          "indexed": false,
          "internalType": "uint256",
          "name": "amount",
          "type": "uint256"
        }
      ],
      "name": "PlayerWithdraw",
      "type": "event"
    },
    {
      "anonymous": false,
      "inputs": [
        {
          "indexed": false,
          "internalType": "uint256",
          "name": "idSession",
          "type": "uint256"
        },
        {
          "indexed": false,
          "internalType": "address",
          "name": "playerOne",
          "type": "address"
        },
        {
          "indexed": false,
          "internalType": "uint256",
          "name": "betSize",
          "type": "uint256"
        }
      ],
      "name": "SessionCreated",
      "type": "event"
    },
    {
      "anonymous": false,
      "inputs": [
        {
          "indexed": false,
          "internalType": "uint256",
          "name": "idSession",
          "type": "uint256"
        },
        {
          "indexed": false,
          "internalType": "address",
          "name": "playerTwo",
          "type": "address"
        }
      ],
      "name": "SessionJoined",
      "type": "event"
    },
    {
      "anonymous": false,
      "inputs": [],
      "name": "WordAdded",
      "type": "event"
    },
    {
      "inputs": [
        {
          "internalType": "address",
          "name": "",
          "type": "address"
        }
      ],
      "name": "balance",
      "outputs": [
        {
          "internalType": "uint256",
          "name": "",
          "type": "uint256"
        }
      ],
      "stateMutability": "view",
      "type": "function"
    },
    {
      "inputs": [],
      "name": "joinSessionFctOpen",
      "outputs": [
        {
          "internalType": "bool",
          "name": "",
          "type": "bool"
        }
      ],
      "stateMutability": "view",
      "type": "function"
    },
    {
      "inputs": [],
      "name": "owner",
      "outputs": [
        {
          "internalType": "address",
          "name": "",
          "type": "address"
        }
      ],
      "stateMutability": "view",
      "type": "function"
    },
    {
      "inputs": [],
      "name": "renounceOwnership",
      "outputs": [],
      "stateMutability": "nonpayable",
      "type": "function"
    },
    {
      "inputs": [
        {
          "internalType": "uint256",
          "name": "",
          "type": "uint256"
        }
      ],
      "name": "sessionPublic",
      "outputs": [
        {
          "internalType": "address payable",
          "name": "playerOne",
          "type": "address"
        },
        {
          "internalType": "address payable",
          "name": "playerTwo",
          "type": "address"
        },
        {
          "internalType": "address",
          "name": "mustPlay",
          "type": "address"
        },
        {
          "internalType": "uint8",
          "name": "wordLegth",
          "type": "uint8"
        },
        {
          "internalType": "uint256",
          "name": "idSession",
          "type": "uint256"
        },
        {
          "internalType": "uint256",
          "name": "betSize",
          "type": "uint256"
        },
        {
          "internalType": "bytes32",
          "name": "playerOneGuess",
          "type": "bytes32"
        },
        {
          "internalType": "bytes32",
          "name": "playerTwoGuess",
          "type": "bytes32"
        },
        {
          "internalType": "enum MockPenduel.StateSession",
          "name": "state",
          "type": "uint8"
        }
      ],
      "stateMutability": "view",
      "type": "function"
    },
    {
      "inputs": [],
      "name": "timeOut",
      "outputs": [
        {
          "internalType": "uint256",
          "name": "",
          "type": "uint256"
        }
      ],
      "stateMutability": "view",
      "type": "function"
    },
    {
      "inputs": [],
      "name": "totalCreatedSessions",
      "outputs": [
        {
          "internalType": "uint256",
          "name": "",
          "type": "uint256"
        }
      ],
      "stateMutability": "view",
      "type": "function"
    },
    {
      "inputs": [
        {
          "internalType": "address",
          "name": "newOwner",
          "type": "address"
        }
      ],
      "name": "transferOwnership",
      "outputs": [],
      "stateMutability": "nonpayable",
      "type": "function"
    },
    {
      "inputs": [],
      "name": "playerWithdraw",
      "outputs": [],
      "stateMutability": "nonpayable",
      "type": "function"
    },
    {
      "inputs": [
        {
          "internalType": "uint256",
          "name": "idSession",
          "type": "uint256"
        }
      ],
      "name": "requestWinTimeout",
      "outputs": [],
      "stateMutability": "nonpayable",
      "type": "function"
    },
    {
      "inputs": [
        {
          "internalType": "uint256",
          "name": "idSession",
          "type": "uint256"
        }
      ],
      "name": "requestCancelGame",
      "outputs": [],
      "stateMutability": "nonpayable",
      "type": "function"
    },
    {
      "inputs": [
        {
          "internalType": "bytes32",
          "name": "word",
          "type": "bytes32"
        }
      ],
      "name": "addWord",
      "outputs": [],
      "stateMutability": "nonpayable",
      "type": "function"
    },
    {
      "inputs": [],
      "name": "openJoinSessionFct",
      "outputs": [],
      "stateMutability": "nonpayable",
      "type": "function"
    },
    {
      "inputs": [],
      "name": "pausedJoinSessionFct",
      "outputs": [],
      "stateMutability": "nonpayable",
      "type": "function"
    },
    {
      "inputs": [],
      "name": "createSession",
      "outputs": [],
      "stateMutability": "payable",
      "type": "function"
    },
    {
      "inputs": [
        {
          "internalType": "uint256",
          "name": "idSession",
          "type": "uint256"
        }
      ],
      "name": "joinSession",
      "outputs": [],
      "stateMutability": "payable",
      "type": "function"
    },
    {
      "inputs": [
        {
          "internalType": "bytes1",
          "name": "letter",
          "type": "bytes1"
        },
        {
          "internalType": "uint256",
          "name": "idSession",
          "type": "uint256"
        }
      ],
      "name": "play",
      "outputs": [],
      "stateMutability": "nonpayable",
      "type": "function"
    },
    {
      "inputs": [
        {
          "internalType": "address",
          "name": "player",
          "type": "address"
        }
      ],
      "name": "getPlayerGames",
      "outputs": [
        {
          "internalType": "uint256[]",
          "name": "",
          "type": "uint256[]"
        }
      ],
      "stateMutability": "view",
      "type": "function"
    }
  ],
  "bytecode": "0x60a06040526239bab760e91b60809081526200001f90600190816200008f565b503480156200002d57600080fd5b5062000039336200003f565b620000f6565b600080546001600160a01b038381166001600160a01b0319831681178455604051919092169283917f8be0079c531659141344cd1fd0a4f28419497f9722a3daafe3b4186f6b6457e09190a35050565b828054828255906000526020600020908101928215620000cd579160200282015b82811115620000cd578251825591602001919060010190620000b0565b50620000db929150620000df565b5090565b5b80821115620000db5760008155600101620000e0565b611e3c80620001066000396000f3fe6080604052600436106101095760003560e01c806388b8c48711610095578063e3d670d711610064578063e3d670d714610306578063ed8f75ca14610333578063f1c8e98f14610353578063f2fde38b14610369578063ff2c22781461038957600080fd5b806388b8c487146102895780638da5cb5b1461029e5780639a176dd8146102c6578063cac6875b146102e657600080fd5b8063587e2d67116100dc578063587e2d6714610181578063609dbc3f14610196578063614d85e114610225578063715018a61461024a57806387d010021461025f57600080fd5b806305991eba1461010e578063129daf84146101235780631cbf1b02146101595780632855a6b014610161575b600080fd5b61012161011c366004611bd0565b61039e565b005b34801561012f57600080fd5b5061014361013e366004611be9565b610779565b6040516101509190611c19565b60405180910390f35b6101216107e5565b34801561016d57600080fd5b5061012161017c366004611bd0565b61097c565b34801561018d57600080fd5b50610121610a36565b3480156101a257600080fd5b506102106101b1366004611bd0565b6005602081905260009182526040909120805460018201546002830154600384015460048501549585015460068601546007909601546001600160a01b0395861697948616969584169560ff600160a01b909504851695939490911689565b60405161015099989796959493929190611c73565b34801561023157600080fd5b5061023c6201518081565b604051908152602001610150565b34801561025657600080fd5b50610121610ac3565b34801561026b57600080fd5b506002546102799060ff1681565b6040519015158152602001610150565b34801561029557600080fd5b50610121610ad7565b3480156102aa57600080fd5b506000546040516001600160a01b039091168152602001610150565b3480156102d257600080fd5b506101216102e1366004611cec565b610be5565b3480156102f257600080fd5b50610121610301366004611bd0565b611138565b34801561031257600080fd5b5061023c610321366004611be9565b60066020526000908152604090205481565b34801561033f57600080fd5b5061012161034e366004611bd0565b6112df565b34801561035f57600080fd5b5061023c60035481565b34801561037557600080fd5b50610121610384366004611be9565b6115cb565b34801561039557600080fd5b50610121611641565b60025460ff166103ff5760405162461bcd60e51b815260206004820152602160248201527f6a6f696e20612073657373696f6e2066756e6374696f6e2069732070617573656044820152601960fa1b60648201526084015b60405180910390fd5b6000818152600560205260409020546001600160a01b031633036104655760405162461bcd60e51b815260206004820152601e60248201527f4572726f722c20616c726561647920696e20746869732073657373696f6e000060448201526064016103f6565b34333110156104b65760405162461bcd60e51b815260206004820181905260248201527f4572726f722c20696e737566666963656e74207661756c742062616c616e636560448201526064016103f6565b6000818152600560205260409020600401543410156105175760405162461bcd60e51b815260206004820152601e60248201527f4572726f722c20696e737566666963656e7420616d6f756e742073656e74000060448201526064016103f6565b600160008281526005602052604090206007015460ff16600881111561053f5761053f611c5d565b1461058c5760405162461bcd60e51b815260206004820152601a60248201527f4572726f722c2073657373696f6e20756e726561636861626c6500000000000060448201526064016103f6565b60008181526005602090815260408083206007808201805460ff19166002179055338086529084528285208054600181810183559187528587200187905586865290910180546001600160a01b03191690911790556004909152812042600390910155806105f981611d3b565b6001805460408051426020820152449181019190915260608101849052929450909250906080016040516020818303038152906040528051906020012060001c6106439190611d54565b8154811061065357610653611d76565b60009182526020808320909101548483526004918290526040909220015561067a826116d0565b600083815260056020908152604091829020600201805460ff94909416600160a01b0260ff60a01b1990941693909317909255805184815233928101929092527fa80783b53d1b2057a0c31627ae91183cba1ed5e26a4b1cc8074a90f89c92fa85910160405180910390a160008281526004602052604090205462010000900460ff16610741576000828152600460208190526040822001546107239181901a60f81b846117f8565b6000828152600460205260409020805462ff00001916620100001790555b5060009081526005602052604090206001810154600290910180546001600160a01b0319166001600160a01b03909216919091179055565b6001600160a01b0381166000908152600760209081526040918290208054835181840281018401909452808452606093928301828280156107d957602002820191906000526020600020905b8154815260200190600101908083116107c5575b50505050509050919050565b34333110156108365760405162461bcd60e51b815260206004820181905260248201527f4572726f722c20696e737566666963656e74207661756c742062616c616e636560448201526064016103f6565b6000341161087d5760405162461bcd60e51b81526020600482015260146024820152734572726f722c206d696e696d756d20312057454960601b60448201526064016103f6565b6003805490600061088d83611d3b565b909155505033600081815260076020818152604080842060038054825460018181018555938852858820015580548652600580855283872080546001600160a01b03199081168a1790915582548089526004808852868a208601829055838852868a2080860192909255815490921690991790985581548752838720349089015581548752968452828620426002909101555485529490915290912001805460ff1916828002179055506003546040805191825233602083015234908201527f658891ce811ff307aab5be445fb05fffbcd9a125b10915b1aba719e376c53771906060015b60405180910390a1565b61098461188a565b61098d816118e4565b6109d95760405162461bcd60e51b815260206004820152601d60248201527f4572726f722c206c6f77657263617365206c657474657273206f6e6c7900000060448201526064016103f6565b60018054808201825560009182527fb10e2d527612073b26eecdfd717e6a320cf44b4afac2b0732d9fcbe2b7fa0cf6018290556040517f50f2e462284e93994cad5dff94a7ec49bd0c2ecc0e1760f97ab4119f94088e969190a150565b610a3e61188a565b60025460ff16610a885760405162461bcd60e51b8152602060048201526015602482015274115c9c9bdc8b08105b1c9958591e481c185d5cd959605a1b60448201526064016103f6565b6002805460ff19169055604051600181527fb9a820a5cc41ee812664936fd9296ea10b1ed2543da713ce21dce6196374f98290602001610972565b610acb61188a565b610ad5600061196a565b565b33600081815260066020526040808220805490839055905190929083908381818185875af1925050503d8060008114610b2c576040519150601f19603f3d011682016040523d82523d6000602084013e610b31565b606091505b5050905080610ba85760405162461bcd60e51b815260206004820152603a60248201527f416464726573733a20756e61626c6520746f2073656e642076616c75652c207260448201527f6563697069656e74206d6179206861766520726576657274656400000000000060648201526084016103f6565b60408051338152602081018490527f13b46ae1da3b476d0302ec781f7dd6982727671bc7bc07411d908daeb468751e910160405180910390a15050565b60008181526005602052604090206002015481906001600160a01b03163314610c435760405162461bcd60e51b815260206004820152601060248201526f34b9903737ba103cb7bab9103a3ab93760811b60448201526064016103f6565b610c4c836119ba565b610c985760405162461bcd60e51b815260206004820152601c60248201527f4572726f722c206f6e6c79206c6f77657263617365206c65747465720000000060448201526064016103f6565b600260008381526005602052604090206007015460ff166008811115610cc057610cc0611c5d565b14610d0d5760405162461bcd60e51b815260206004820152601e60248201527f4572726f722c2073657373696f6e206e6f7420696e2070726f6772657373000060448201526064016103f6565b6000828152600560205260409020600101546001600160a01b0316610d745760405162461bcd60e51b815260206004820181905260248201527f4572726f722c20617761697420666f722061207365636f6e6420706c6179657260448201526064016103f6565b6000828152600560205260409020546001600160a01b031633036110355760008281526004602081905260409091200154610db09084846117f8565b600082815260056020818152604080842060018101546002820180546001600160a01b0319166001600160a01b03928316179055600484529482902042600390910155928252915482518681529316908301527faf25da1bf081dfe4bee184c74033eef31f84dd5dd5ec20e84da603183c21c7ef910160405180910390a1600082815260056020818152604080842090920154600491829052919092209091015403610f94576000828152600460205260409020805460ff191660011790819055610100900460ff1615610f1357600082815260056020818152604080842060078101805460ff1916909417909355600483015492546001600160a01b0316845260069091528220805491929091610ec9908490611d8c565b9091555050600082815260056020908152604080832060048101546001909101546001600160a01b0316845260069092528220805491929091610f0d908490611d8c565b90915550505b600082815260046020526040902054610100900460ff16610f9457600082815260056020526040902060078101805460ff1916600317905560040154610f5a906002611d9f565b6000838152600560209081526040808320546001600160a01b03168352600690915281208054909190610f8e908490611d8c565b90915550505b600082815260046020526040902054610100900460ff168015610fc6575060008281526004602052604090205460ff16155b1561103557600082815260056020526040902060078101805460ff191660049081179091550154610ff8906002611d9f565b6000838152600560209081526040808320600101546001600160a01b0316835260069091528120805490919061102f908490611d8c565b90915550505b6000828152600560205260409020600101546001600160a01b0316330361113357600082815260046020819052604090912001546110749084846117f8565b600082815260056020818152604080842080546002820180546001600160a01b0319166001600160a01b0392831617905560048452948290204260039091015592825260019092015482518681529316908301527faf25da1bf081dfe4bee184c74033eef31f84dd5dd5ec20e84da603183c21c7ef910160405180910390a16000828152600560209081526040808320600601546004928390529220015403611133576000828152600460205260409020805461ff0019166101001790555b505050565b6000818152600560205260409020546001600160a01b0316331461119e5760405162461bcd60e51b815260206004820152601760248201527f4572726f722c206e6f7420796f75722073657373696f6e00000000000000000060448201526064016103f6565b600160008281526005602052604090206007015460ff1660088111156111c6576111c6611c5d565b1461121e5760405162461bcd60e51b815260206004820152602260248201527f73657373696f6e206973206e6f7420696e20726561636861626c652073746174604482015261032960f51b60648201526084016103f6565b60008181526004602052604090206002015461123e906201518090611d8c565b421161128c5760405162461bcd60e51b815260206004820152601a60248201527f4572726f722c2054696d654f7574204e6f74205265616368656400000000000060448201526064016103f6565b600081815260056020908152604080832060078101805460ff19166006908117909155600482015491546001600160a01b0316855290925282208054919290916112d7908490611d8c565b909155505050565b6000818152600460205260409020600301546112fe9062015180611d8c565b421161134c5760405162461bcd60e51b815260206004820152601a60248201527f4572726f722c2054696d654f7574204e6f74205265616368656400000000000060448201526064016103f6565b6000818152600560205260409020546001600160a01b0316331480156113955750600081815260056020526040902060018101546002909101546001600160a01b039081169116145b806113e457506000818152600560205260409020600101546001600160a01b0316331480156113e45750600081815260056020526040902080546002909101546001600160a01b039081169116145b6114405760405162461bcd60e51b815260206004820152602760248201527f6f70706f6e656e742068617320706c61796564204f52206e6f7420796f75722060448201526639b2b9b9b4b7b760c91b60648201526084016103f6565b600260008281526005602052604090206007015460ff16600881111561146857611468611c5d565b146114bf5760405162461bcd60e51b815260206004820152602160248201527f4572726f722c2073657373696f6e206973206e6f7420696e2070726f677265736044820152607360f81b60648201526084016103f6565b6000818152600560205260409020546001600160a01b031633036115445760008181526005602052604090206007808201805460ff191690911790556004015461150a906002611d9f565b6000828152600560209081526040808320546001600160a01b0316835260069091528120805490919061153e908490611d8c565b90915550505b6000818152600560205260409020600101546001600160a01b031633036115c857600081815260056020526040902060078101805460ff1916600817905560040154611591906002611d9f565b6000828152600560209081526040808320600101546001600160a01b031683526006909152812080549091906112d7908490611d8c565b50565b6115d361188a565b6001600160a01b0381166116385760405162461bcd60e51b815260206004820152602660248201527f4f776e61626c653a206e6577206f776e657220697320746865207a65726f206160448201526564647265737360d01b60648201526084016103f6565b6115c88161196a565b61164961188a565b60025460ff16156116925760405162461bcd60e51b815260206004820152601360248201527222b93937b9161020b63932b0b23c9037b832b760691b60448201526064016103f6565b6002805460ff19166001179055604051600081527fb9a820a5cc41ee812664936fd9296ea10b1ed2543da713ce21dce6196374f98290602001610972565b60008060008381526005602052604090206007015460ff1660088111156116f9576116f9611c5d565b1415801561172d5750600160008381526005602052604090206007015460ff16600881111561172a5761172a611c5d565b14155b6117925760405162461bcd60e51b815260206004820152603060248201527f4572726f722c20546869732073657373696f6e20646f6573206e6f742068617660448201526f1948185b1c9958591e4818481ddbdc9960821b60648201526084016103f6565b60005b60208160ff161080156117db5750600083815260046020818152604090922001549060ff83169081106117ca576117ca611d76565b1a60f81b6001600160f81b03191615155b156117f257806117ea81611dbe565b915050611795565b92915050565b60005b60208160ff1610801561182f5750838160ff166020811061181e5761181e611d76565b1a60f81b6001600160f81b03191615155b15611884576001600160f81b031983168460ff83166020811061185457611854611d76565b1a60f81b6001600160f81b03191603611872576118728184846119fc565b8061187c81611dbe565b9150506117fb565b50505050565b6000546001600160a01b03163314610ad55760405162461bcd60e51b815260206004820181905260248201527f4f776e61626c653a2063616c6c6572206973206e6f7420746865206f776e657260448201526064016103f6565b6000805b60208160ff1610801561191c5750828160ff166020811061190b5761190b611d76565b1a60f81b6001600160f81b03191615155b1561196157611942838260ff166020811061193957611939611d76565b1a60f81b6119ba565b61194f5750600092915050565b8061195981611dbe565b9150506118e8565b50600192915050565b600080546001600160a01b038381166001600160a01b0319831681178455604051919092169283917f8be0079c531659141344cd1fd0a4f28419497f9722a3daafe3b4186f6b6457e09190a35050565b6000606160f81b6001600160f81b03198316108015906119e85750603d60f91b6001600160f81b0319831611155b6119f457506000919050565b506001919050565b6001600160f81b03196000611a12856008611ddd565b6000848152600460205260409020546001600160f81b0319841660ff9283161c925062010000900416611ab957611a4a856008611ddd565b60008481526005602081905260409091200180548319166001600160f81b0319871660ff939093169290921c919091179055611a87856008611ddd565b600084815260056020526040902060060180548319166001600160f81b0319871660ff939093169290921c9190911790555b600083815260056020526040902080546002909101546001600160a01b039081169116148015611afd575060008381526004602052604090205462010000900460ff165b15611b4057611b0d856008611ddd565b60008481526005602081905260409091200180548319166001600160f81b0319871660ff939093169290921c9190911790555b600083815260056020526040902060018101546002909101546001600160a01b039081169116148015611b87575060008381526004602052604090205462010000900460ff165b15611bc957611b97856008611ddd565b600084815260056020526040902060060180548319166001600160f81b0319871660ff939093169290921c9190911790555b5050505050565b600060208284031215611be257600080fd5b5035919050565b600060208284031215611bfb57600080fd5b81356001600160a01b0381168114611c1257600080fd5b9392505050565b6020808252825182820181905260009190848201906040850190845b81811015611c5157835183529284019291840191600101611c35565b50909695505050505050565b634e487b7160e01b600052602160045260246000fd5b6001600160a01b038a8116825289811660208301528816604082015260ff871660608201526080810186905260a0810185905260c0810184905260e08101839052610120810160098310611cd757634e487b7160e01b600052602160045260246000fd5b826101008301529a9950505050505050505050565b60008060408385031215611cff57600080fd5b82356001600160f81b031981168114611d1757600080fd5b946020939093013593505050565b634e487b7160e01b600052601160045260246000fd5b600060018201611d4d57611d4d611d25565b5060010190565b600082611d7157634e487b7160e01b600052601260045260246000fd5b500690565b634e487b7160e01b600052603260045260246000fd5b808201808211156117f2576117f2611d25565b6000816000190483118215151615611db957611db9611d25565b500290565b600060ff821660ff8103611dd457611dd4611d25565b60010192915050565b600060ff821660ff84168160ff0481118215151615611dfe57611dfe611d25565b02939250505056fea26469706673582212208f7e00513cb20c2d1d8a6571daa7b803210309a264eca23f973f320f3f459cdd64736f6c63430008100033",
  "immutableReferences": {},
  "source": "/// SPDX-License-Identifier: MIT\r\n\r\npragma solidity 0.8.16;\r\n\r\nimport \"../node_modules/@openzeppelin/contracts/access/Ownable.sol\";\r\n\r\n/// @title Penduel\r\n/// @author jw418\r\n/// @notice Versus hangman's game  for test without CHAINLINK vrf v2\r\n/// @dev This contract can cointains exploit, deploy this contract on tesnet only!!\r\ncontract MockPenduel is Ownable {\r\n    bytes32[] _words = [\r\n        bytes32(\"sun\")                            \r\n    ];\r\n    bool public joinSessionFctOpen;\r\n    uint256 public totalCreatedSessions;\r\n    uint256 constant public timeOut = 24 hours;\r\n\r\n    /* Mapping*/\r\n    mapping(uint256 => Sessions) private session; //  mapping an uint(idSession) with a session\r\n    mapping(uint256 => SessionPublic) public sessionPublic;\r\n    mapping(address => uint256) public balance; //  gamers balances\r\n    mapping(address => Player) playerGames; //  attached a gamer addres with his sessions\r\n\r\n    struct Sessions {\r\n        bool playerOneFoundWord;\r\n        bool playerTwoFoundWord;\r\n        bool firstLetterRemplaced;\r\n        uint256 idSession;\r\n        uint256 requestDate;\r\n        uint256 lastMoveDate;\r\n        bytes32 word;\r\n    }\r\n\r\n    struct SessionPublic {\r\n        address payable playerOne;\r\n        address payable playerTwo;\r\n        address mustPlay;\r\n        uint8 wordLegth;\r\n        uint256 idSession;\r\n        uint256 betSize;\r\n        bytes32 playerOneGuess;\r\n        bytes32 playerTwoGuess;\r\n        StateSession state;\r\n    }\r\n\r\n    struct Player {\r\n        uint256[] games;\r\n    }\r\n\r\n    enum StateSession {\r\n        NotCreated,\r\n        Reachable,\r\n        InProgress,\r\n        PlayerOneWin,\r\n        PlayerTwoWin,\r\n        Draw,\r\n        Cancelled,\r\n        POneWinByTimeout,\r\n        PTwoWinByTimeout\r\n    }\r\n\r\n    modifier onlyPlayer(uint256 idSession) {\r\n        require(\r\n            msg.sender == sessionPublic[idSession].mustPlay,\r\n            \"is not your turn\"\r\n        );\r\n        _;\r\n    }\r\n\r\n    /* Events */\r\n    event PlayerWithdraw(address player, uint256 amount);   \r\n    event SessionCreated(uint256 idSession, address playerOne, uint256 betSize);\r\n    event SessionJoined(uint256 idSession, address playerTwo);\r\n    event WordAdded();\r\n    event HasPlayed(uint256 idSession, address player);\r\n    event JoinSessionFctPaused(bool paused);\r\n\r\n    \r\n    /// @notice a withdraw function for players\r\n    function playerWithdraw() external {\r\n        uint256 toSend = balance[msg.sender];\r\n        balance[msg.sender] = 0;\r\n        (bool success, ) = msg.sender.call{value: toSend}(\"\");\r\n        require(\r\n            success,\r\n            \"Address: unable to send value, recipient may have reverted\"\r\n        );\r\n        emit PlayerWithdraw(msg.sender, toSend);\r\n    }\r\n\r\n    /// @param idSession uint256 for identify the session\r\n    /// @notice if the opponent player took too many times for playing you can ask for a win by TimeOut\r\n    function requestWinTimeout(uint256 idSession) external {\r\n        require(\r\n            block.timestamp > (timeOut + session[idSession].lastMoveDate),\r\n            \"Error, TimeOut Not Reached\"\r\n        );\r\n        require(\r\n            (msg.sender == sessionPublic[idSession].playerOne &&\r\n                sessionPublic[idSession].mustPlay ==\r\n                sessionPublic[idSession].playerTwo) ||\r\n                (msg.sender == sessionPublic[idSession].playerTwo &&\r\n                    sessionPublic[idSession].mustPlay ==\r\n                    sessionPublic[idSession].playerOne),\r\n            \"opponent has played OR not your session\"\r\n        );\r\n        require(\r\n            sessionPublic[idSession].state == StateSession.InProgress,\r\n            \"Error, session is not in progress\"\r\n        );\r\n\r\n        if (msg.sender == sessionPublic[idSession].playerOne) {\r\n            sessionPublic[idSession].state = StateSession.POneWinByTimeout;\r\n            balance[sessionPublic[idSession].playerOne] +=\r\n                sessionPublic[idSession].betSize *\r\n                2;\r\n        }\r\n        if (msg.sender == sessionPublic[idSession].playerTwo) {\r\n            sessionPublic[idSession].state = StateSession.PTwoWinByTimeout;\r\n            balance[sessionPublic[idSession].playerTwo] +=\r\n                sessionPublic[idSession].betSize *\r\n                2;\r\n        }\r\n    }\r\n\r\n    /// @param idSession uint256 for identify the session\r\n    /// @notice 24hours after the creation of the game the creator can cancel it if no one join it\r\n    function requestCancelGame(uint256 idSession) external {\r\n        require(\r\n            msg.sender == sessionPublic[idSession].playerOne,\r\n            \"Error, not your session\"\r\n        );\r\n        require(\r\n            sessionPublic[idSession].state == StateSession.Reachable,\r\n            \"session is not in reachable state \"\r\n        );\r\n        require(\r\n            block.timestamp > (session[idSession].requestDate + timeOut),\r\n            \"Error, TimeOut Not Reached\"\r\n        );\r\n\r\n        sessionPublic[idSession].state = StateSession.Cancelled;\r\n        balance[sessionPublic[idSession].playerOne] += sessionPublic[idSession]\r\n            .betSize;\r\n    }\r\n\r\n    /// @param word it is a bytes32\r\n    /// @notice allows the owner to add words to the list for the game\r\n    function addWord(bytes32 word) external onlyOwner {\r\n        require(isLowerCaseWord(word), \"Error, lowercase letters only\");\r\n        _words.push(word);\r\n        emit WordAdded();\r\n    }\r\n\r\n    /// @notice autorised players to use the joinSession Function\r\n    function openJoinSessionFct() external onlyOwner {\r\n        require(!joinSessionFctOpen, \"Error, Already open\");\r\n        joinSessionFctOpen = true;\r\n        emit JoinSessionFctPaused(false);\r\n    }\r\n\r\n    /// @notice unautorised players to use the joinSession Function\r\n    function pausedJoinSessionFct() external onlyOwner {\r\n        require(joinSessionFctOpen, \"Error, Already paused\");\r\n        joinSessionFctOpen = false;\r\n        emit JoinSessionFctPaused(true);\r\n    }\r\n\r\n    /// @notice for create a new game session\r\n    function createSession() external payable {\r\n        require(\r\n            msg.sender.balance >= msg.value,\r\n            \"Error, insufficent vault balance\"\r\n        );\r\n        require(msg.value > 0, \"Error, minimum 1 WEI\");\r\n        totalCreatedSessions++;\r\n        playerGames[msg.sender].games.push(totalCreatedSessions);\r\n        sessionPublic[totalCreatedSessions].playerOne = payable(msg.sender);\r\n        session[totalCreatedSessions].idSession = totalCreatedSessions;\r\n        sessionPublic[totalCreatedSessions].idSession = totalCreatedSessions;\r\n        sessionPublic[totalCreatedSessions].playerOne = payable(msg.sender);\r\n        sessionPublic[totalCreatedSessions].betSize = msg.value;\r\n        session[totalCreatedSessions].requestDate = block.timestamp;\r\n        sessionPublic[totalCreatedSessions].state = StateSession.Reachable;\r\n\r\n        emit SessionCreated(totalCreatedSessions, msg.sender, msg.value);\r\n    }\r\n\r\n    /// @dev this function request for randomness\r\n    /// @notice for join a session already created\r\n    function joinSession(uint256 idSession) external payable {\r\n        require(joinSessionFctOpen, \"join a session function is paused\");\r\n        require(\r\n            msg.sender != sessionPublic[idSession].playerOne,\r\n            \"Error, already in this session\"\r\n        );\r\n        require(\r\n            msg.sender.balance >= msg.value,\r\n            \"Error, insufficent vault balance\"\r\n        );\r\n        require(\r\n            msg.value >= sessionPublic[idSession].betSize,\r\n            \"Error, insufficent amount sent\"\r\n        );\r\n        require(\r\n            sessionPublic[idSession].state == StateSession.Reachable,\r\n            \"Error, session unreachable\"\r\n        );\r\n\r\n        sessionPublic[idSession].state = StateSession.InProgress;\r\n        playerGames[msg.sender].games.push(idSession);\r\n        sessionPublic[idSession].playerTwo = payable(msg.sender);\r\n        session[idSession].lastMoveDate = block.timestamp; // start timeout counter     \r\n\r\n        uint256 randNonce = 0;\r\n        randNonce++;\r\n        session[idSession].word = _words[\r\n            uint256(\r\n                keccak256(\r\n                    abi.encodePacked(\r\n                        block.timestamp,\r\n                        block.difficulty,\r\n                        randNonce\r\n                    )\r\n                )\r\n            ) % _words.length\r\n        ];\r\n        sessionPublic[idSession].wordLegth = getSessionWordLength(idSession);\r\n        emit SessionJoined(idSession, msg.sender);\r\n\r\n        if (!session[idSession].firstLetterRemplaced) {\r\n            compareAndCopy(\r\n                session[idSession].word,\r\n                session[idSession].word[0],\r\n                idSession\r\n            );\r\n            session[idSession].firstLetterRemplaced = true;\r\n        }\r\n        sessionPublic[idSession].mustPlay = sessionPublic[idSession].playerTwo;\r\n    }\r\n\r\n    /// @param idSession uint256 for identify the session\r\n    /// @param letter played in bytes1\r\n    /// @notice the playing function of this dapp\r\n    function play(bytes1 letter, uint256 idSession)\r\n        external\r\n        onlyPlayer(idSession)\r\n    {\r\n        require(isLetter(letter), \"Error, only lowercase letter\");\r\n        require(\r\n            sessionPublic[idSession].state == StateSession.InProgress,\r\n            \"Error, session not in progress\"\r\n        );\r\n        require(\r\n            sessionPublic[idSession].playerTwo != address(0x0),\r\n            \"Error, await for a second player\"\r\n        );\r\n\r\n        // when Player One plays\r\n        if (msg.sender == sessionPublic[idSession].playerOne) {\r\n            compareAndCopy(session[idSession].word, letter, idSession);\r\n            sessionPublic[idSession].mustPlay = sessionPublic[idSession]\r\n                .playerTwo;\r\n            session[idSession].lastMoveDate = block.timestamp;\r\n            emit HasPlayed(idSession, sessionPublic[idSession].playerOne);\r\n\r\n            // Player one Find the word\r\n            if (\r\n                session[idSession].word ==\r\n                sessionPublic[idSession].playerOneGuess\r\n            ) {\r\n                session[idSession].playerOneFoundWord = true;\r\n                // Draw\r\n                if (session[idSession].playerTwoFoundWord) {\r\n                    sessionPublic[idSession].state = StateSession.Draw;\r\n                    balance[\r\n                        sessionPublic[idSession].playerOne\r\n                    ] += sessionPublic[idSession].betSize;\r\n                    balance[\r\n                        sessionPublic[idSession].playerTwo\r\n                    ] += sessionPublic[idSession].betSize;\r\n                }\r\n                // Player one Win\r\n                if (!session[idSession].playerTwoFoundWord) {\r\n                    sessionPublic[idSession].state = StateSession.PlayerOneWin;\r\n                    balance[sessionPublic[idSession].playerOne] +=\r\n                        sessionPublic[idSession].betSize *\r\n                        2;\r\n                }\r\n            }\r\n            // Player Two Win: Player Two find the word and player not found it\r\n            if (\r\n                session[idSession].playerTwoFoundWord &&\r\n                (!session[idSession].playerOneFoundWord)\r\n            ) {\r\n                sessionPublic[idSession].state = StateSession.PlayerTwoWin;\r\n                balance[sessionPublic[idSession].playerTwo] +=\r\n                    sessionPublic[idSession].betSize *\r\n                    2;\r\n            }\r\n        }\r\n\r\n        // when Player two plays\r\n        if (msg.sender == sessionPublic[idSession].playerTwo) {\r\n            compareAndCopy(session[idSession].word, letter, idSession);\r\n            sessionPublic[idSession].mustPlay = sessionPublic[idSession]\r\n                .playerOne;\r\n            session[idSession].lastMoveDate = block.timestamp;\r\n            emit HasPlayed(idSession, sessionPublic[idSession].playerTwo);\r\n\r\n            // Player Two find the world\r\n            if (\r\n                session[idSession].word ==\r\n                sessionPublic[idSession].playerTwoGuess\r\n            ) {\r\n                session[idSession].playerTwoFoundWord = true;\r\n            }\r\n        }\r\n    }\r\n\r\n    /// @param position of the letter to change\r\n    /// @param toInsert letter to copy in bytes1\r\n    /// @param idSession uint256 for identify the session\r\n    /// @notice replaceBytesAtIndex\r\n    function replaceBytesAtIndex(\r\n        uint8 position,\r\n        bytes1 toInsert,\r\n        uint256 idSession\r\n    ) private {\r\n        bytes1 maskBytes = 0xff;\r\n        bytes32 mask = bytes32(maskBytes) >> (position * 8);\r\n\r\n        if (!session[idSession].firstLetterRemplaced) {\r\n            sessionPublic[idSession].playerOneGuess =\r\n                (~mask & sessionPublic[idSession].playerOneGuess) |\r\n                (bytes32(toInsert) >> (position * 8));\r\n            sessionPublic[idSession].playerTwoGuess =\r\n                (~mask & sessionPublic[idSession].playerTwoGuess) |\r\n                (bytes32(toInsert) >> (position * 8));\r\n        }\r\n\r\n        if (\r\n            sessionPublic[idSession].mustPlay ==\r\n            sessionPublic[idSession].playerOne &&\r\n            session[idSession].firstLetterRemplaced\r\n        ) {\r\n            sessionPublic[idSession].playerOneGuess =\r\n                (~mask & sessionPublic[idSession].playerOneGuess) |\r\n                (bytes32(toInsert) >> (position * 8));\r\n        }\r\n        if (\r\n            sessionPublic[idSession].mustPlay ==\r\n            sessionPublic[idSession].playerTwo &&\r\n            session[idSession].firstLetterRemplaced\r\n        ) {\r\n            sessionPublic[idSession].playerTwoGuess =\r\n                (~mask & sessionPublic[idSession].playerTwoGuess) |\r\n                (bytes32(toInsert) >> (position * 8));\r\n        }\r\n    }\r\n\r\n    /// @param word to compare\r\n    /// @param letter to check\r\n    /// @param idSession uint256 for identify the session\r\n    /// @notice compare and copy identical letter\r\n    function compareAndCopy(\r\n        bytes32 word,\r\n        bytes1 letter,\r\n        uint256 idSession\r\n    ) private {\r\n        for (uint8 i = 0; i < 32 && word[i] != 0; i++) {\r\n            if (word[i] == letter) {\r\n                replaceBytesAtIndex(i, letter, idSession);\r\n            }\r\n        }\r\n    }\r\n\r\n    /// @param player address of the player\r\n    /// @notice get the lit of the games for a given player address\r\n    function getPlayerGames(address player)\r\n        external\r\n        view\r\n        returns (uint256[] memory)\r\n    {\r\n        return playerGames[player].games;\r\n    }\r\n\r\n    /// @param idSession uint256 for identify the sesFsion\r\n    /// @notice get the word legth for a given session\r\n    function getSessionWordLength(uint256 idSession)\r\n        private\r\n        view\r\n        returns (uint8)\r\n    {\r\n        require(\r\n            sessionPublic[idSession].state != StateSession.NotCreated &&\r\n                sessionPublic[idSession].state != StateSession.Reachable,\r\n            \"Error, This session does not have already a word\"\r\n        );\r\n        uint8 i = 0;\r\n        while (i < 32 && session[idSession].word[i] != 0) {\r\n            i++;\r\n        }\r\n        return i;\r\n    }\r\n\r\n    /// @param b bytes1 to check if is letter or not\r\n    /// @notice check if is a letter\r\n    function isLetter(bytes1 b) private pure returns (bool) {\r\n        if (!(b >= 0x61 && b <= 0x7A)) {\r\n            //a-z\r\n            return false;\r\n        }\r\n        return true;\r\n    }\r\n\r\n    /// @param word bytes32 check if word is composed of lower case letters\r\n    /// @notice check if is a letter\r\n    function isLowerCaseWord(bytes32 word) private pure returns (bool) {\r\n        for (uint8 i = 0; i < 32 && word[i] != 0; i++) {\r\n            if (!isLetter(word[i])) {\r\n                return false;\r\n            }\r\n        }\r\n        return true;\r\n    }\r\n}\r\n",
  "sourcePath": "C:\\Users\\juwol\\Desktop\\DEV\\Penduel_certif\\Penduel\\contracts\\MockPenduel.sol",
  "compiler": {
    "name": "solc",
    "version": "0.8.16+commit.07a7930e.Emscripten.clang"
  },
  "schemaVersion": "3.4.6",
  "updatedAt": "2022-09-05T01:18:38.132Z",
  "devdoc": {
    "author": "jw418",
    "details": "This contract can cointains exploit, deploy this contract on tesnet only!!",
    "kind": "dev",
    "methods": {
      "addWord(bytes32)": {
        "params": {
          "word": "it is a bytes32"
        }
      },
      "getPlayerGames(address)": {
        "params": {
          "player": "address of the player"
        }
      },
      "joinSession(uint256)": {
        "details": "this function request for randomness"
      },
      "owner()": {
        "details": "Returns the address of the current owner."
      },
      "play(bytes1,uint256)": {
        "params": {
          "idSession": "uint256 for identify the session",
          "letter": "played in bytes1"
        }
      },
      "renounceOwnership()": {
        "details": "Leaves the contract without owner. It will not be possible to call `onlyOwner` functions anymore. Can only be called by the current owner. NOTE: Renouncing ownership will leave the contract without an owner, thereby removing any functionality that is only available to the owner."
      },
      "requestCancelGame(uint256)": {
        "params": {
          "idSession": "uint256 for identify the session"
        }
      },
      "requestWinTimeout(uint256)": {
        "params": {
          "idSession": "uint256 for identify the session"
        }
      },
      "transferOwnership(address)": {
        "details": "Transfers ownership of the contract to a new account (`newOwner`). Can only be called by the current owner."
      }
    },
    "title": "Penduel",
    "version": 1
  },
  "userdoc": {
    "kind": "user",
    "methods": {
      "addWord(bytes32)": {
        "notice": "allows the owner to add words to the list for the game"
      },
      "createSession()": {
        "notice": "for create a new game session"
      },
      "getPlayerGames(address)": {
        "notice": "get the lit of the games for a given player address"
      },
      "joinSession(uint256)": {
        "notice": "for join a session already created"
      },
      "openJoinSessionFct()": {
        "notice": "autorised players to use the joinSession Function"
      },
      "pausedJoinSessionFct()": {
        "notice": "unautorised players to use the joinSession Function"
      },
      "play(bytes1,uint256)": {
        "notice": "the playing function of this dapp"
      },
      "playerWithdraw()": {
        "notice": "a withdraw function for players"
      },
      "requestCancelGame(uint256)": {
        "notice": "24hours after the creation of the game the creator can cancel it if no one join it"
      },
      "requestWinTimeout(uint256)": {
        "notice": "if the opponent player took too many times for playing you can ask for a win by TimeOut"
      }
    },
    "notice": "Versus hangman's game  for test without CHAINLINK vrf v2",
    "version": 1
  }
}