{
  "contractName": "Penduel",
  "abi": [
    {
      "inputs": [
        {
          "internalType": "uint64",
          "name": "subscriptionId",
          "type": "uint64"
        }
      ],
      "stateMutability": "nonpayable",
      "type": "constructor"
    },
    {
      "inputs": [
        {
          "internalType": "address",
          "name": "have",
          "type": "address"
        },
        {
          "internalType": "address",
          "name": "want",
          "type": "address"
        }
      ],
      "name": "OnlyCoordinatorCanFulfill",
      "type": "error"
    },
    {
      "anonymous": false,
      "inputs": [
        {
          "indexed": false,
          "internalType": "uint256",
          "name": "idSession",
          "type": "uint256"
        },
        {
          "indexed": false,
          "internalType": "address",
          "name": "player",
          "type": "address"
        }
      ],
      "name": "HasPlayed",
      "type": "event"
    },
    {
      "anonymous": false,
      "inputs": [
        {
          "indexed": false,
          "internalType": "bool",
          "name": "paused",
          "type": "bool"
        }
      ],
      "name": "JoinSessionFctPaused",
      "type": "event"
    },
    {
      "anonymous": false,
      "inputs": [
        {
          "indexed": true,
          "internalType": "address",
          "name": "previousOwner",
          "type": "address"
        },
        {
          "indexed": true,
          "internalType": "address",
          "name": "newOwner",
          "type": "address"
        }
      ],
      "name": "OwnershipTransferred",
      "type": "event"
    },
    {
      "anonymous": false,
      "inputs": [
        {
          "indexed": false,
          "internalType": "address",
          "name": "player",
          "type": "address"
        },
        {
          "indexed": false,
          "internalType": "uint256",
          "name": "amount",
          "type": "uint256"
        }
      ],
      "name": "PlayerWithdraw",
      "type": "event"
    },
    {
      "anonymous": false,
      "inputs": [
        {
          "indexed": true,
          "internalType": "uint256",
          "name": "requestId",
          "type": "uint256"
        }
      ],
      "name": "RNGFound",
      "type": "event"
    },
    {
      "anonymous": false,
      "inputs": [
        {
          "indexed": true,
          "internalType": "uint256",
          "name": "requestId",
          "type": "uint256"
        },
        {
          "indexed": true,
          "internalType": "uint256",
          "name": "idSession",
          "type": "uint256"
        }
      ],
      "name": "RNGRequested",
      "type": "event"
    },
    {
      "anonymous": false,
      "inputs": [
        {
          "indexed": false,
          "internalType": "uint256[]",
          "name": "randomWords",
          "type": "uint256[]"
        }
      ],
      "name": "RandomWordsTaken",
      "type": "event"
    },
    {
      "anonymous": false,
      "inputs": [
        {
          "indexed": false,
          "internalType": "uint256",
          "name": "idSession",
          "type": "uint256"
        },
        {
          "indexed": false,
          "internalType": "address",
          "name": "playerOne",
          "type": "address"
        },
        {
          "indexed": false,
          "internalType": "uint256",
          "name": "betSize",
          "type": "uint256"
        }
      ],
      "name": "SessionCreated",
      "type": "event"
    },
    {
      "anonymous": false,
      "inputs": [
        {
          "indexed": false,
          "internalType": "uint256",
          "name": "idSession",
          "type": "uint256"
        },
        {
          "indexed": false,
          "internalType": "address",
          "name": "playerTwo",
          "type": "address"
        }
      ],
      "name": "SessionJoined",
      "type": "event"
    },
    {
      "anonymous": false,
      "inputs": [],
      "name": "WordAdded",
      "type": "event"
    },
    {
      "inputs": [
        {
          "internalType": "address",
          "name": "",
          "type": "address"
        }
      ],
      "name": "balance",
      "outputs": [
        {
          "internalType": "uint256",
          "name": "",
          "type": "uint256"
        }
      ],
      "stateMutability": "view",
      "type": "function"
    },
    {
      "inputs": [],
      "name": "joinSessionFctOpen",
      "outputs": [
        {
          "internalType": "bool",
          "name": "",
          "type": "bool"
        }
      ],
      "stateMutability": "view",
      "type": "function"
    },
    {
      "inputs": [],
      "name": "owner",
      "outputs": [
        {
          "internalType": "address",
          "name": "",
          "type": "address"
        }
      ],
      "stateMutability": "view",
      "type": "function"
    },
    {
      "inputs": [
        {
          "internalType": "uint256",
          "name": "requestId",
          "type": "uint256"
        },
        {
          "internalType": "uint256[]",
          "name": "randomWords",
          "type": "uint256[]"
        }
      ],
      "name": "rawFulfillRandomWords",
      "outputs": [],
      "stateMutability": "nonpayable",
      "type": "function"
    },
    {
      "inputs": [],
      "name": "renounceOwnership",
      "outputs": [],
      "stateMutability": "nonpayable",
      "type": "function"
    },
    {
      "inputs": [
        {
          "internalType": "uint256",
          "name": "",
          "type": "uint256"
        }
      ],
      "name": "s_randomWords",
      "outputs": [
        {
          "internalType": "uint256",
          "name": "",
          "type": "uint256"
        }
      ],
      "stateMutability": "view",
      "type": "function"
    },
    {
      "inputs": [],
      "name": "s_subscriptionId",
      "outputs": [
        {
          "internalType": "uint64",
          "name": "",
          "type": "uint64"
        }
      ],
      "stateMutability": "view",
      "type": "function"
    },
    {
      "inputs": [
        {
          "internalType": "uint256",
          "name": "",
          "type": "uint256"
        }
      ],
      "name": "sessionPublic",
      "outputs": [
        {
          "internalType": "address payable",
          "name": "playerOne",
          "type": "address"
        },
        {
          "internalType": "address payable",
          "name": "playerTwo",
          "type": "address"
        },
        {
          "internalType": "address",
          "name": "mustPlay",
          "type": "address"
        },
        {
          "internalType": "uint8",
          "name": "wordLegth",
          "type": "uint8"
        },
        {
          "internalType": "uint256",
          "name": "idSession",
          "type": "uint256"
        },
        {
          "internalType": "uint256",
          "name": "betSize",
          "type": "uint256"
        },
        {
          "internalType": "bytes32",
          "name": "playerOneGuess",
          "type": "bytes32"
        },
        {
          "internalType": "bytes32",
          "name": "playerTwoGuess",
          "type": "bytes32"
        },
        {
          "internalType": "enum Penduel.StateSession",
          "name": "state",
          "type": "uint8"
        }
      ],
      "stateMutability": "view",
      "type": "function"
    },
    {
      "inputs": [],
      "name": "totalCreatedSessions",
      "outputs": [
        {
          "internalType": "uint256",
          "name": "",
          "type": "uint256"
        }
      ],
      "stateMutability": "view",
      "type": "function"
    },
    {
      "inputs": [
        {
          "internalType": "address",
          "name": "newOwner",
          "type": "address"
        }
      ],
      "name": "transferOwnership",
      "outputs": [],
      "stateMutability": "nonpayable",
      "type": "function"
    },
    {
      "inputs": [],
      "name": "playerWithdraw",
      "outputs": [],
      "stateMutability": "nonpayable",
      "type": "function"
    },
    {
      "inputs": [
        {
          "internalType": "uint256",
          "name": "idSession",
          "type": "uint256"
        }
      ],
      "name": "refundRNGnotFound",
      "outputs": [],
      "stateMutability": "nonpayable",
      "type": "function"
    },
    {
      "inputs": [
        {
          "internalType": "uint256",
          "name": "idSession",
          "type": "uint256"
        }
      ],
      "name": "requestWinTimeout",
      "outputs": [],
      "stateMutability": "nonpayable",
      "type": "function"
    },
    {
      "inputs": [
        {
          "internalType": "uint256",
          "name": "idSession",
          "type": "uint256"
        }
      ],
      "name": "requestCancelGame",
      "outputs": [],
      "stateMutability": "nonpayable",
      "type": "function"
    },
    {
      "inputs": [
        {
          "internalType": "bytes32",
          "name": "word",
          "type": "bytes32"
        }
      ],
      "name": "addWord",
      "outputs": [],
      "stateMutability": "nonpayable",
      "type": "function"
    },
    {
      "inputs": [],
      "name": "openJoinSessionFct",
      "outputs": [],
      "stateMutability": "nonpayable",
      "type": "function"
    },
    {
      "inputs": [],
      "name": "pausedJoinSessionFct",
      "outputs": [],
      "stateMutability": "nonpayable",
      "type": "function"
    },
    {
      "inputs": [],
      "name": "createSession",
      "outputs": [],
      "stateMutability": "payable",
      "type": "function"
    },
    {
      "inputs": [
        {
          "internalType": "uint256",
          "name": "idSession",
          "type": "uint256"
        }
      ],
      "name": "joinSession",
      "outputs": [
        {
          "internalType": "uint256",
          "name": "requestId",
          "type": "uint256"
        }
      ],
      "stateMutability": "payable",
      "type": "function"
    },
    {
      "inputs": [
        {
          "internalType": "bytes1",
          "name": "letter",
          "type": "bytes1"
        },
        {
          "internalType": "uint256",
          "name": "idSession",
          "type": "uint256"
        }
      ],
      "name": "play",
      "outputs": [],
      "stateMutability": "nonpayable",
      "type": "function"
    },
    {
      "inputs": [
        {
          "internalType": "address",
          "name": "player",
          "type": "address"
        }
      ],
      "name": "getPlayerGames",
      "outputs": [
        {
          "internalType": "uint256[]",
          "name": "",
          "type": "uint256[]"
        }
      ],
      "stateMutability": "view",
      "type": "function"
    }
  ],
  "bytecode": "0x6101806040526468656c6c6f60d81b60a090815266676f6f6462796560c81b60c0526239bab760e91b60e05267686f6c6c6964617960c01b61010052656265666f726560d01b610120526430b33a32b960d91b61014052661cdc1958da585b60ca1b61016052620000759060059060076200015c565b503480156200008357600080fd5b506040516200266a3803806200266a833981016040819052620000a691620001c3565b736168499c0cffcacd319c818142124b7a15e857ab608052620000c9336200010c565b600180546001600160401b03909216600160a01b026001600160e01b031990921691909117736168499c0cffcacd319c818142124b7a15e857ab179055620001f5565b600080546001600160a01b038381166001600160a01b0319831681178455604051919092169283917f8be0079c531659141344cd1fd0a4f28419497f9722a3daafe3b4186f6b6457e09190a35050565b8280548282559060005260206000209081019282156200019a579160200282015b828111156200019a5782518255916020019190600101906200017d565b50620001a8929150620001ac565b5090565b5b80821115620001a85760008155600101620001ad565b600060208284031215620001d657600080fd5b81516001600160401b0381168114620001ee57600080fd5b9392505050565b6080516124526200021860003960008181610a1a0152610a5c01526124526000f3fe60806040526004361061012a5760003560e01c80638ac00021116100ab578063ed8f75ca1161006f578063ed8f75ca14610395578063eea0e1a9146103b5578063f1c8e98f146103d5578063f2fde38b146103eb578063f6eaffc81461040b578063ff2c22781461042b57600080fd5b80638ac00021146102bf5780638da5cb5b146103005780639a176dd814610328578063cac6875b14610348578063e3d670d71461036857600080fd5b8063587e2d67116100f2578063587e2d67146101cc578063609dbc3f146101e1578063715018a61461026b57806387d010021461028057806388b8c487146102aa57600080fd5b806305991eba1461012f578063129daf84146101555780631cbf1b02146101825780631fe543e31461018c5780632855a6b0146101ac575b600080fd5b61014261013d3660046120b6565b610440565b6040519081526020015b60405180910390f35b34801561016157600080fd5b506101756101703660046120cf565b61080a565b60405161014c91906120ff565b61018a610876565b005b34801561019857600080fd5b5061018a6101a7366004612159565b610a0f565b3480156101b857600080fd5b5061018a6101c73660046120b6565b610a97565b3480156101d857600080fd5b5061018a610b52565b3480156101ed57600080fd5b506102566101fc3660046120b6565b600960205260009081526040902080546001820154600283015460038401546004850154600586015460068701546007909701546001600160a01b03968716979587169685169560ff600160a01b90960486169590911689565b60405161014c99989796959493929190612239565b34801561027757600080fd5b5061018a610bdf565b34801561028c57600080fd5b5060035461029a9060ff1681565b604051901515815260200161014c565b3480156102b657600080fd5b5061018a610bf3565b3480156102cb57600080fd5b506001546102e790600160a01b900467ffffffffffffffff1681565b60405167ffffffffffffffff909116815260200161014c565b34801561030c57600080fd5b506000546040516001600160a01b03909116815260200161014c565b34801561033457600080fd5b5061018a6103433660046122b2565b610d01565b34801561035457600080fd5b5061018a6103633660046120b6565b6112c1565b34801561037457600080fd5b506101426103833660046120cf565b600a6020526000908152604090205481565b3480156103a157600080fd5b5061018a6103b03660046120b6565b611437565b3480156103c157600080fd5b5061018a6103d03660046120b6565b6116f3565b3480156103e157600080fd5b5061014260045481565b3480156103f757600080fd5b5061018a6104063660046120cf565b6118b5565b34801561041757600080fd5b506101426104263660046120b6565b61192b565b34801561043757600080fd5b5061018a61194c565b60035460009060ff1661049a5760405162461bcd60e51b815260206004820181905260248201527f4572726f722c207061737420524e4772657175657374206e6f7420666f756e6460448201526064015b60405180910390fd5b6000828152600960205260409020546001600160a01b031633036105005760405162461bcd60e51b815260206004820152601e60248201527f4572726f722c20616c726561647920696e20746869732073657373696f6e00006044820152606401610491565b34333110156105515760405162461bcd60e51b815260206004820181905260248201527f4572726f722c20696e737566666963656e74207661756c742062616c616e63656044820152606401610491565b6000828152600960205260409020600401543410156105b25760405162461bcd60e51b815260206004820152601e60248201527f4572726f722c20696e737566666963656e7420616d6f756e742073656e7400006044820152606401610491565b600160008381526009602052604090206007015460ff1660088111156105da576105da612223565b146106275760405162461bcd60e51b815260206004820152601a60248201527f4572726f722c2073657373696f6e20756e726561636861626c650000000000006044820152606401610491565b600082815260096020908152604080832060078101805460ff199081166002908117909255600180840180546001600160a01b031990811633908117835560088952878a20429087015591549490950180549095166001600160a01b0390941693909317909355818652600b855283862080549384018155865294849020909101869055600380549094169093558051858152918201929092527fa80783b53d1b2057a0c31627ae91183cba1ed5e26a4b1cc8074a90f89c92fa85910160405180910390a160008281526008602090815260408083206001908101548585526007845282852081905560069093529281902091909155815490516305d3b1d360e41b81527fd89b2bf150e3b9e13446986e571fb9cab24b13cea0a43ea20a6049a85cc807cc6004820152600160a01b820467ffffffffffffffff1660248201526003604482015262030d40606482015260848101929092526001600160a01b031690635d3b1d309060a4016020604051808303816000875af11580156107b1573d6000803e3d6000fd5b505050506040513d601f19601f820116820180604052508101906107d591906122eb565b905081817fa6a4b9afd6bd5d3a182e6808e1e19cf6552989ef205ca02279bce85472b4f85e60405160405180910390a3919050565b6001600160a01b0381166000908152600b602090815260409182902080548351818402810184019094528084526060939283018282801561086a57602002820191906000526020600020905b815481526020019060010190808311610856575b50505050509050919050565b34333110156108c75760405162461bcd60e51b815260206004820181905260248201527f4572726f722c20696e737566666963656e74207661756c742062616c616e63656044820152606401610491565b6000341161090e5760405162461bcd60e51b81526020600482015260146024820152734572726f722c206d696e696d756d20312057454960601b6044820152606401610491565b6004805490600061091e8361231a565b9091555050336000818152600b6020908152604080832060048054825460018181018555938752858720015580548552600980855283862080546001600160a01b03199081168917909155825480885260088088528689208601829055838852868920600381019290925581549092169098179097558154865283862034908301558154865295845282852042600290910155548452939091529020600701805460ff1916828002179055506004546040805191825233602083015234908201527f658891ce811ff307aab5be445fb05fffbcd9a125b10915b1aba719e376c53771906060015b60405180910390a1565b336001600160a01b037f00000000000000000000000000000000000000000000000000000000000000001614610a895760405163073e64fd60e21b81523360048201526001600160a01b037f0000000000000000000000000000000000000000000000000000000000000000166024820152604401610491565b610a9382826119db565b5050565b610a9f611bb4565b610aa881611c0e565b610af45760405162461bcd60e51b815260206004820152601d60248201527f4572726f722c206c6f77657263617365206c657474657273206f6e6c790000006044820152606401610491565b6005805460018101825560009182527f036b6384b5eca791c62761152d0c79bb0604c104a5fb6f4eb0703f3154bb3db0018290556040517f50f2e462284e93994cad5dff94a7ec49bd0c2ecc0e1760f97ab4119f94088e969190a150565b610b5a611bb4565b60035460ff16610ba45760405162461bcd60e51b8152602060048201526015602482015274115c9c9bdc8b08105b1c9958591e481c185d5cd959605a1b6044820152606401610491565b6003805460ff19169055604051600181527fb9a820a5cc41ee812664936fd9296ea10b1ed2543da713ce21dce6196374f98290602001610a05565b610be7611bb4565b610bf16000611c94565b565b336000818152600a6020526040808220805490839055905190929083908381818185875af1925050503d8060008114610c48576040519150601f19603f3d011682016040523d82523d6000602084013e610c4d565b606091505b5050905080610cc45760405162461bcd60e51b815260206004820152603a60248201527f416464726573733a20756e61626c6520746f2073656e642076616c75652c207260448201527f6563697069656e74206d617920686176652072657665727465640000000000006064820152608401610491565b60408051338152602081018490527f13b46ae1da3b476d0302ec781f7dd6982727671bc7bc07411d908daeb468751e910160405180910390a15050565b60008181526009602052604090206002015481906001600160a01b03163314610d5f5760405162461bcd60e51b815260206004820152601060248201526f34b9903737ba103cb7bab9103a3ab93760811b6044820152606401610491565b610d6883611ce4565b610db45760405162461bcd60e51b815260206004820152601c60248201527f4572726f722c206f6e6c79206c6f77657263617365206c6574746572000000006044820152606401610491565b600260008381526009602052604090206007015460ff166008811115610ddc57610ddc612223565b14610e295760405162461bcd60e51b815260206004820152601e60248201527f4572726f722c2073657373696f6e206e6f7420696e2070726f677265737300006044820152606401610491565b6000828152600960205260409020600101546001600160a01b0316610e905760405162461bcd60e51b815260206004820181905260248201527f4572726f722c20617761697420666f722061207365636f6e6420706c617965726044820152606401610491565b600082815260086020526040812060040154901a60f81b6001600160f81b031916600003610f005760405162461bcd60e51b815260206004820152601a60248201527f524e4720776f7264206e6f7420616c726561647920666f756e640000000000006044820152606401610491565b6000828152600960205260409020546001600160a01b031633036111bd57600082815260086020526040902060040154610f3b908484611d26565b600082815260096020818152604080842060018101546002820180546001600160a01b0319166001600160a01b03928316179055600884529482902042600390910155928252915482518681529316908301527faf25da1bf081dfe4bee184c74033eef31f84dd5dd5ec20e84da603183c21c7ef910160405180910390a16000828152600960209081526040808320600501546008909252909120600401540361111c576000828152600860205260409020805460ff191660011790819055610100900460ff161561109b57600082815260096020908152604080832060078101805460ff19166005179055600481015490546001600160a01b03168452600a9092528220805491929091611051908490612349565b9091555050600082815260096020908152604080832060048101546001909101546001600160a01b03168452600a9092528220805491929091611095908490612349565b90915550505b600082815260086020526040902054610100900460ff1661111c57600082815260096020526040902060078101805460ff19166003179055600401546110e290600261235c565b6000838152600960209081526040808320546001600160a01b03168352600a90915281208054909190611116908490612349565b90915550505b600082815260086020526040902054610100900460ff16801561114e575060008281526008602052604090205460ff16155b156111bd57600082815260096020526040902060078101805460ff19166004908117909155015461118090600261235c565b6000838152600960209081526040808320600101546001600160a01b03168352600a909152812080549091906111b7908490612349565b90915550505b6000828152600960205260409020600101546001600160a01b031633036112bc576000828152600860205260409020600401546111fb908484611d26565b600082815260096020818152604080842080546002820180546001600160a01b0319166001600160a01b0392831617905560088452948290204260039091015592825260019092015482518681529316908301527faf25da1bf081dfe4bee184c74033eef31f84dd5dd5ec20e84da603183c21c7ef910160405180910390a1600082815260096020908152604080832060060154600890925290912060040154036112bc576000828152600860205260409020805461ff0019166101001790555b505050565b6000818152600960205260409020546001600160a01b031633146113275760405162461bcd60e51b815260206004820152601760248201527f4572726f722c206e6f7420796f75722073657373696f6e0000000000000000006044820152606401610491565b600160008281526009602052604090206007015460ff16600881111561134f5761134f612223565b146113a75760405162461bcd60e51b815260206004820152602260248201527f73657373696f6e206973206e6f7420696e20726561636861626c652073746174604482015261032960f51b6064820152608401610491565b6000818152600860205260409020600201546113c7906201518090612349565b42116113e55760405162461bcd60e51b81526004016104919061237b565b600081815260096020908152604080832060078101805460ff19166006179055600481015490546001600160a01b03168452600a909252822080549192909161142f908490612349565b909155505050565b6000818152600860205260409020600301546114569062015180612349565b42116114745760405162461bcd60e51b81526004016104919061237b565b6000818152600960205260409020546001600160a01b0316331480156114bd5750600081815260096020526040902060018101546002909101546001600160a01b039081169116145b8061150c57506000818152600960205260409020600101546001600160a01b03163314801561150c5750600081815260096020526040902080546002909101546001600160a01b039081169116145b6115685760405162461bcd60e51b815260206004820152602760248201527f6f70706f6e656e742068617320706c61796564204f52206e6f7420796f75722060448201526639b2b9b9b4b7b760c91b6064820152608401610491565b600260008281526009602052604090206007015460ff16600881111561159057611590612223565b146115e75760405162461bcd60e51b815260206004820152602160248201527f4572726f722c2073657373696f6e206973206e6f7420696e2070726f677265736044820152607360f81b6064820152608401610491565b6000818152600960205260409020546001600160a01b0316330361166c5760008181526009602052604090206007808201805460ff191690911790556004015461163290600261235c565b6000828152600960209081526040808320546001600160a01b03168352600a90915281208054909190611666908490612349565b90915550505b6000818152600960205260409020600101546001600160a01b031633036116f057600081815260096020526040902060078101805460ff19166008179055600401546116b990600261235c565b6000828152600960209081526040808320600101546001600160a01b03168352600a9091528120805490919061142f908490612349565b50565b6000818152600960205260409020546001600160a01b031633148061173157506000818152600960205260409020600101546001600160a01b031633145b61177d5760405162461bcd60e51b815260206004820152601760248201527f4572726f722c204e6f7420796f75722073657373696f6e0000000000000000006044820152606401610491565b6000818152600860205260408120600401546001600160f81b0319911a60f81b16156117eb5760405162461bcd60e51b815260206004820152601d60248201527f4572726f722c20524e4720776f726420616c726561647920666f756e640000006044820152606401610491565b60008181526008602052604090206002015461180990612a30612349565b42116118275760405162461bcd60e51b81526004016104919061237b565b600081815260096020908152604080832060078101805460ff19166006179055600481015490546001600160a01b03168452600a9092528220805491929091611871908490612349565b9091555050600081815260096020908152604080832060048101546001909101546001600160a01b03168452600a909252822080549192909161142f908490612349565b6118bd611bb4565b6001600160a01b0381166119225760405162461bcd60e51b815260206004820152602660248201527f4f776e61626c653a206e6577206f776e657220697320746865207a65726f206160448201526564647265737360d01b6064820152608401610491565b6116f081611c94565b6002818154811061193b57600080fd5b600091825260209091200154905081565b611954611bb4565b60035460ff161561199d5760405162461bcd60e51b815260206004820152601360248201527222b93937b9161020b63932b0b23c9037b832b760691b6044820152606401610491565b6003805460ff19166001179055604051600081527fb9a820a5cc41ee812664936fd9296ea10b1ed2543da713ce21dce6196374f98290602001610a05565b6000600580549050826000815181106119f6576119f6612333565b6020026020010151611a0891906123b2565b905060058181548110611a1d57611a1d612333565b6000918252602080832090910154858352600680835260408085208054865260088552908520600401929092559286905291905254611a5b90611db8565b60008481526007602090815260408083205483526009909152808220600201805460ff94909416600160a01b0260ff60a01b1990941693909317909255905184917fa8e40739d15b1a795084e7aceb618f6570b720eff3825b72abcfcc948cf6509c91a27fe11a34280e4fe3f36870e1b808058087c13155acaecd91f00f88ea0fdd3fff7482604051611aee91906120ff565b60405180910390a16003805460ff191660011790556000838152600660209081526040808320548352600890915290205462010000900460ff16611b8e57600083815260066020818152604080842054808552600883529084206004015487855292909152611b639282901a60f81b90611d26565b600083815260066020908152604080832054835260089091529020805462ff00001916620100001790555b505060009081526006602090815260408083205483526008909152902042600390910155565b6000546001600160a01b03163314610bf15760405162461bcd60e51b815260206004820181905260248201527f4f776e61626c653a2063616c6c6572206973206e6f7420746865206f776e65726044820152606401610491565b6000805b60208160ff16108015611c465750828160ff1660208110611c3557611c35612333565b1a60f81b6001600160f81b03191615155b15611c8b57611c6c838260ff1660208110611c6357611c63612333565b1a60f81b611ce4565b611c795750600092915050565b80611c83816123d4565b915050611c12565b50600192915050565b600080546001600160a01b038381166001600160a01b0319831681178455604051919092169283917f8be0079c531659141344cd1fd0a4f28419497f9722a3daafe3b4186f6b6457e09190a35050565b6000606160f81b6001600160f81b0319831610801590611d125750603d60f91b6001600160f81b0319831611155b611d1e57506000919050565b506001919050565b60005b60208160ff16108015611d5d5750838160ff1660208110611d4c57611d4c612333565b1a60f81b6001600160f81b03191615155b15611db2576001600160f81b031983168460ff831660208110611d8257611d82612333565b1a60f81b6001600160f81b03191603611da057611da0818484611ee4565b80611daa816123d4565b915050611d29565b50505050565b60008060008381526009602052604090206007015460ff166008811115611de157611de1612223565b14158015611e155750600160008381526009602052604090206007015460ff166008811115611e1257611e12612223565b14155b611e7a5760405162461bcd60e51b815260206004820152603060248201527f4572726f722c20546869732073657373696f6e20646f6573206e6f742068617660448201526f1948185b1c9958591e4818481ddbdc9960821b6064820152608401610491565b60005b60208160ff16108015611ec7575060086000848152602001908152602001600020600401548160ff1660208110611eb657611eb6612333565b1a60f81b6001600160f81b03191615155b15611ede5780611ed6816123d4565b915050611e7d565b92915050565b6001600160f81b03196000611efa8560086123f3565b6000848152600860205260409020546001600160f81b0319841660ff9283161c925062010000900416611fa057611f328560086123f3565b600084815260096020526040902060050180548319166001600160f81b0319871660ff939093169290921c919091179055611f6e8560086123f3565b600084815260096020526040902060060180548319166001600160f81b0319871660ff939093169290921c9190911790555b600083815260096020526040902080546002909101546001600160a01b039081169116148015611fe4575060008381526008602052604090205462010000900460ff165b1561202657611ff48560086123f3565b600084815260096020526040902060050180548319166001600160f81b0319871660ff939093169290921c9190911790555b600083815260096020526040902060018101546002909101546001600160a01b03908116911614801561206d575060008381526008602052604090205462010000900460ff165b156120af5761207d8560086123f3565b600084815260096020526040902060060180548319166001600160f81b0319871660ff939093169290921c9190911790555b5050505050565b6000602082840312156120c857600080fd5b5035919050565b6000602082840312156120e157600080fd5b81356001600160a01b03811681146120f857600080fd5b9392505050565b6020808252825182820181905260009190848201906040850190845b818110156121375783518352928401929184019160010161211b565b50909695505050505050565b634e487b7160e01b600052604160045260246000fd5b6000806040838503121561216c57600080fd5b8235915060208084013567ffffffffffffffff8082111561218c57600080fd5b818601915086601f8301126121a057600080fd5b8135818111156121b2576121b2612143565b8060051b604051601f19603f830116810181811085821117156121d7576121d7612143565b6040529182528482019250838101850191898311156121f557600080fd5b938501935b82851015612213578435845293850193928501926121fa565b8096505050505050509250929050565b634e487b7160e01b600052602160045260246000fd5b6001600160a01b038a8116825289811660208301528816604082015260ff871660608201526080810186905260a0810185905260c0810184905260e0810183905261012081016009831061229d57634e487b7160e01b600052602160045260246000fd5b826101008301529a9950505050505050505050565b600080604083850312156122c557600080fd5b82356001600160f81b0319811681146122dd57600080fd5b946020939093013593505050565b6000602082840312156122fd57600080fd5b5051919050565b634e487b7160e01b600052601160045260246000fd5b60006001820161232c5761232c612304565b5060010190565b634e487b7160e01b600052603260045260246000fd5b80820180821115611ede57611ede612304565b600081600019048311821515161561237657612376612304565b500290565b6020808252601a908201527f4572726f722c2054696d654f7574204e6f742052656163686564000000000000604082015260600190565b6000826123cf57634e487b7160e01b600052601260045260246000fd5b500690565b600060ff821660ff81036123ea576123ea612304565b60010192915050565b600060ff821660ff84168160ff048111821515161561241457612414612304565b02939250505056fea2646970667358221220692f3a7f3f47e1b0373ef6f9995fd4a334c66ed1e8b6e38be64d4001e21e095f64736f6c63430008100033",
  "immutableReferences": {
    "2971": [
      {
        "length": 32,
        "start": 2586
      },
      {
        "length": 32,
        "start": 2652
      }
    ]
  },
  "source": "/// SPDX-License-Identifier: MIT\r\n\r\npragma solidity 0.8.16;\r\n\r\nimport \"../node_modules/@openzeppelin/contracts/access/Ownable.sol\";\r\nimport \"../node_modules/@chainlink/contracts/src/v0.8/interfaces/VRFCoordinatorV2Interface.sol\";\r\nimport \"../node_modules/@chainlink/contracts/src/v0.8/VRFConsumerBaseV2.sol\";\r\n\r\n/// @title Penduel\r\n/// @author jw418\r\n/// @notice Versus hangman's game\r\n/// @dev This contract can cointains exploit, deploy this contract on tesnet only!!\r\ncontract Penduel is VRFConsumerBaseV2, Ownable {\r\n    VRFCoordinatorV2Interface COORDINATOR;\r\n\r\n    /* Chainlink's VRF V2  variables */\r\n\r\n    uint16 constant requestConfirmations = 3; // The default is 3, but you can set this higher.\r\n    uint32 constant callbackGasLimit = 2 * (10**5);\r\n    uint32 constant numWords = 1; // Number of random number at each request.\r\n    uint64 public s_subscriptionId; // Your subscription ID for CHAINLINK   // 8023\r\n    uint256[] public s_randomWords; // For the FullFill Fct\r\n    address constant vrfCoordinator = 0x6168499c0cFfCaCD319c818142124B7A15E857ab; // Rinkeby coordinator 30 gwei Key Hash\r\n    bytes32 constant s_keyHash =\r\n        0xd89b2bf150e3b9e13446986e571fb9cab24b13cea0a43ea20a6049a85cc807cc; // 30 gwei Key Hash\r\n\r\n    bool public joinSessionFctOpen;\r\n    uint256 public totalCreatedSessions;\r\n    uint256 constant timeOut = 24 hours;\r\n    bytes32[] _words = [\r\n        bytes32(\"hello\"),\r\n        bytes32(\"goodbye\"),\r\n        bytes32(\"sun\"),\r\n        bytes32(\"holliday\"),\r\n        bytes32(\"before\"),\r\n        bytes32(\"after\"),\r\n        bytes32(\"special\")\r\n    ];\r\n\r\n    /* Mapping*/\r\n    mapping(uint256 => uint256) private reqId; //  associate a request with a game session\r\n    mapping(uint256 => uint256) private reqIdPublic;\r\n    mapping(uint256 => Sessions) private session; //  mapping an uint(idSession) with a session\r\n    mapping(uint256 => SessionPublic) public sessionPublic;\r\n    mapping(address => uint256) public balance; //  gamers balances\r\n    mapping(address => Player) playerGames; //  attached a gamer addres with his sessions\r\n\r\n    struct Sessions {\r\n        bool playerOneFoundWord;\r\n        bool playerTwoFoundWord;\r\n        bool firstLetterRemplaced;\r\n        uint256 idSession;\r\n        uint256 requestDate;\r\n        uint256 lastMoveDate;\r\n        bytes32 word;\r\n    }\r\n\r\n    struct SessionPublic {\r\n        address payable playerOne;\r\n        address payable playerTwo;\r\n        address mustPlay;\r\n        uint8 wordLegth;\r\n        uint256 idSession;\r\n        uint256 betSize;\r\n        bytes32 playerOneGuess;\r\n        bytes32 playerTwoGuess;\r\n        StateSession state;\r\n    }\r\n\r\n    struct Player {\r\n        uint256[] games;\r\n    }\r\n\r\n    enum StateSession {\r\n        NotCreated,\r\n        Reachable,\r\n        InProgress,\r\n        PlayerOneWin,\r\n        PlayerTwoWin,\r\n        Draw,\r\n        Cancelled,\r\n        POneWinByTimeout,\r\n        PTwoWinByTimeout\r\n    }\r\n\r\n    modifier onlyPlayer(uint256 idSession) {\r\n        require(\r\n            msg.sender == sessionPublic[idSession].mustPlay,\r\n            \"is not your turn\"\r\n        );\r\n        _;\r\n    }\r\n\r\n    /* Events */\r\n    event PlayerWithdraw(address player, uint256 amount); // change for playerWithdraw (no deployed)\r\n    // event Received(address indexed sender, uint256 amount);\r\n    event SessionCreated(uint256 idSession, address playerOne, uint256 betSize);\r\n    event SessionJoined(uint256 idSession, address playerTwo);\r\n    event RNGRequested(uint256 indexed requestId, uint256 indexed idSession);\r\n    event RNGFound(uint256 indexed requestId);\r\n    event RandomWordsTaken(uint256[] randomWords);\r\n    event WordAdded();\r\n    event HasPlayed(uint256 idSession, address player);\r\n    event JoinSessionFctPaused(bool paused);\r\n\r\n    /* Constructor*/\r\n    /// @dev go to your chainlink account to see your subcription ID\r\n    /// @dev when the contract is deployed do not forget to add this contract to your consumer\r\n    constructor(uint64 subscriptionId) VRFConsumerBaseV2(vrfCoordinator) {\r\n        COORDINATOR = VRFCoordinatorV2Interface(vrfCoordinator);\r\n        s_subscriptionId = subscriptionId;\r\n    }\r\n\r\n    // /* Allows this contract to receive payments */\r\n    // receive() external payable {\r\n    //     emit Received(msg.sender, msg.value);\r\n    // }\r\n\r\n    /// @notice a withdraw function for players\r\n    function playerWithdraw() external {\r\n        uint256 toSend = balance[msg.sender];\r\n        balance[msg.sender] = 0;\r\n        (bool success, ) = msg.sender.call{value: toSend}(\"\");\r\n        require(\r\n            success,\r\n            \"Address: unable to send value, recipient may have reverted\"\r\n        );\r\n        emit PlayerWithdraw(msg.sender, toSend);\r\n    }\r\n\r\n    /// @param idSession uint256 for identify the session\r\n    /// @notice if chainlink took too many times for given a rng the player can ask for a refund\r\n    function refundRNGnotFound(uint256 idSession) external {\r\n        require(\r\n            msg.sender == sessionPublic[idSession].playerOne ||\r\n                msg.sender == sessionPublic[idSession].playerTwo,\r\n            \"Error, Not your session\"\r\n        );\r\n        require(\r\n            session[idSession].word[0] == \"\",\r\n            \"Error, RNG word already found\"\r\n        );\r\n        require(\r\n            block.timestamp > (session[idSession].requestDate + 3 hours),\r\n            \"Error, TimeOut Not Reached\"\r\n        );\r\n        sessionPublic[idSession].state = StateSession.Cancelled;\r\n        balance[sessionPublic[idSession].playerOne] += sessionPublic[idSession]\r\n            .betSize;\r\n        balance[sessionPublic[idSession].playerTwo] += sessionPublic[idSession]\r\n            .betSize;\r\n    }\r\n\r\n    /// @param idSession uint256 for identify the session\r\n    /// @notice if the opponent player took too many times for playing you can ask for a win by TimeOut\r\n    function requestWinTimeout(uint256 idSession) external {\r\n        require(\r\n            block.timestamp > (timeOut + session[idSession].lastMoveDate),\r\n            \"Error, TimeOut Not Reached\"\r\n        );\r\n        require(\r\n            (msg.sender == sessionPublic[idSession].playerOne &&\r\n                sessionPublic[idSession].mustPlay ==\r\n                sessionPublic[idSession].playerTwo) ||\r\n                (msg.sender == sessionPublic[idSession].playerTwo &&\r\n                    sessionPublic[idSession].mustPlay ==\r\n                    sessionPublic[idSession].playerOne),\r\n            \"opponent has played OR not your session\"\r\n        );\r\n        require(\r\n            sessionPublic[idSession].state == StateSession.InProgress,\r\n            \"Error, session is not in progress\"\r\n        );\r\n\r\n        if (msg.sender == sessionPublic[idSession].playerOne) {\r\n            sessionPublic[idSession].state = StateSession.POneWinByTimeout;\r\n            balance[sessionPublic[idSession].playerOne] +=\r\n                sessionPublic[idSession].betSize *\r\n                2;\r\n        }\r\n        if (msg.sender == sessionPublic[idSession].playerTwo) {\r\n            sessionPublic[idSession].state = StateSession.PTwoWinByTimeout;\r\n            balance[sessionPublic[idSession].playerTwo] +=\r\n                sessionPublic[idSession].betSize *\r\n                2;\r\n        }\r\n    }\r\n\r\n    /// @param idSession uint256 for identify the session\r\n    /// @notice 24hours after the creation of the game the creator can cancel it if no one join it\r\n    function requestCancelGame(uint256 idSession) external {\r\n        require(\r\n            msg.sender == sessionPublic[idSession].playerOne,\r\n            \"Error, not your session\"\r\n        );\r\n        require(\r\n            sessionPublic[idSession].state == StateSession.Reachable,\r\n            \"session is not in reachable state \"\r\n        );\r\n        require(\r\n            block.timestamp > (session[idSession].requestDate + timeOut),\r\n            \"Error, TimeOut Not Reached\"\r\n        );\r\n\r\n        sessionPublic[idSession].state = StateSession.Cancelled;\r\n        balance[sessionPublic[idSession].playerOne] += sessionPublic[idSession]\r\n            .betSize;\r\n    }\r\n\r\n    /// @param word it is a bytes32\r\n    /// @notice allows the owner to add words to the list for the game\r\n    function addWord(bytes32 word) external onlyOwner {\r\n        require(isLowerCaseWord(word), \"Error, lowercase letters only\"); // !! require non dploy\r\n        _words.push(word);\r\n        emit WordAdded();\r\n    }\r\n\r\n    /// @dev first make sure that the contract has been added to the consumers on your chainlik subscription management page\r\n    /// @notice autorised players to use the joinSession Function\r\n    function openJoinSessionFct() external onlyOwner {\r\n        require(!joinSessionFctOpen, \"Error, Already open\");\r\n        joinSessionFctOpen = true;\r\n        emit JoinSessionFctPaused(false);\r\n    }\r\n\r\n    /// @notice unautorised players to use the joinSession Function\r\n    function pausedJoinSessionFct() external onlyOwner {\r\n        require(joinSessionFctOpen, \"Error, Already paused\");\r\n        joinSessionFctOpen = false;\r\n        emit JoinSessionFctPaused(true);\r\n    }\r\n\r\n    /// @notice for create a new game session\r\n    function createSession() external payable {\r\n        require(\r\n            msg.sender.balance >= msg.value,\r\n            \"Error, insufficent vault balance\"\r\n        );\r\n        require(msg.value > 0, \"Error, minimum 1 WEI\");\r\n        totalCreatedSessions++;\r\n        playerGames[msg.sender].games.push(totalCreatedSessions);\r\n        sessionPublic[totalCreatedSessions].playerOne = payable(msg.sender);\r\n        session[totalCreatedSessions].idSession = totalCreatedSessions;\r\n        sessionPublic[totalCreatedSessions].idSession = totalCreatedSessions;\r\n        sessionPublic[totalCreatedSessions].playerOne = payable(msg.sender);\r\n        sessionPublic[totalCreatedSessions].betSize = msg.value;\r\n        session[totalCreatedSessions].requestDate = block.timestamp;\r\n        sessionPublic[totalCreatedSessions].state = StateSession.Reachable;\r\n\r\n        emit SessionCreated(totalCreatedSessions, msg.sender, msg.value);\r\n    }\r\n\r\n    /// @dev this function request for randomness\r\n    /// @notice for join a session already created\r\n    function joinSession(uint256 idSession)\r\n        external\r\n        payable\r\n        returns (uint256 requestId)\r\n    {\r\n        require(joinSessionFctOpen, \"Error, past RNGrequest not found\");\r\n        require(\r\n            msg.sender != sessionPublic[idSession].playerOne,\r\n            \"Error, already in this session\"\r\n        );\r\n        require(\r\n            msg.sender.balance >= msg.value,\r\n            \"Error, insufficent vault balance\"\r\n        );\r\n        require(\r\n            msg.value >= sessionPublic[idSession].betSize,\r\n            \"Error, insufficent amount sent\"\r\n        );\r\n        require(\r\n            sessionPublic[idSession].state == StateSession.Reachable,\r\n            \"Error, session unreachable\"\r\n        );\r\n\r\n        sessionPublic[idSession].state = StateSession.InProgress;\r\n        sessionPublic[idSession].playerTwo = payable(msg.sender);\r\n        session[idSession].requestDate = block.timestamp;\r\n        sessionPublic[idSession].mustPlay = sessionPublic[idSession].playerTwo;\r\n        playerGames[msg.sender].games.push(idSession);\r\n        joinSessionFctOpen = false;\r\n        emit SessionJoined(idSession, msg.sender);\r\n       \r\n        reqIdPublic[requestId] = session[idSession].idSession; // same here with the public part for the front-end\r\n        reqId[requestId] = session[idSession].idSession; // here we mapping request id with a session\r\n         requestId = COORDINATOR.requestRandomWords(\r\n            s_keyHash,\r\n            s_subscriptionId,\r\n            requestConfirmations,\r\n            callbackGasLimit,\r\n            numWords\r\n        );\r\n        emit RNGRequested(requestId, idSession);\r\n    }\r\n\r\n    /// @param requestId uint256 for identify the rng request\r\n    /// @param randomWords is a mandatory arry for this chainlink function\r\n    /// @dev The fulfillRandomWords function must not revert\r\n    /// @notice this function is call by the vrf coordinator and permit to attribute a rng word to the session\r\n    function fulfillRandomWords(uint256 requestId, uint256[] memory randomWords)\r\n        internal\r\n        override\r\n    {\r\n        uint256 value = randomWords[0] % _words.length;\r\n        session[reqId[requestId]].word = _words[value];\r\n        sessionPublic[reqIdPublic[requestId]].wordLegth = getSessionWordLength(\r\n            reqId[requestId]\r\n        );\r\n        // emitting event to signal rng was founded\r\n        emit RNGFound(requestId);\r\n        emit RandomWordsTaken(randomWords);\r\n        joinSessionFctOpen = true;\r\n\r\n        // here we remplaced the first letter\r\n        if (!session[reqId[requestId]].firstLetterRemplaced) {\r\n            compareAndCopy(\r\n                session[reqId[requestId]].word,\r\n                session[reqId[requestId]].word[0],\r\n                reqId[requestId]\r\n            );\r\n            session[reqId[requestId]].firstLetterRemplaced = true;\r\n        }\r\n        session[reqId[requestId]].lastMoveDate = block.timestamp; // start timeout counter\r\n        // rng was founded so we can open the session\r\n    }\r\n\r\n    /// @param idSession uint256 for identify the session\r\n    /// @param letter played in bytes1\r\n    /// @notice the playing function of this dapp\r\n    function play(bytes1 letter, uint256 idSession)\r\n        external\r\n        onlyPlayer(idSession)\r\n    {\r\n        require(isLetter(letter), \"Error, only lowercase letter\");\r\n        require(\r\n            sessionPublic[idSession].state == StateSession.InProgress,\r\n            \"Error, session not in progress\"\r\n        );\r\n        require(\r\n            sessionPublic[idSession].playerTwo != address(0x0),\r\n            \"Error, await for a second player\"\r\n        );\r\n        require(session[idSession].word[0] != \"\", \"RNG word not already found\");\r\n\r\n        // when Player One plays\r\n        if (msg.sender == sessionPublic[idSession].playerOne) {\r\n            compareAndCopy(session[idSession].word, letter, idSession);\r\n            sessionPublic[idSession].mustPlay = sessionPublic[idSession]\r\n                .playerTwo;\r\n            session[idSession].lastMoveDate = block.timestamp;\r\n            emit HasPlayed(idSession, sessionPublic[idSession].playerOne);\r\n\r\n            // Player one Find the word\r\n            if (\r\n                session[idSession].word ==\r\n                sessionPublic[idSession].playerOneGuess\r\n            ) {\r\n                session[idSession].playerOneFoundWord = true;\r\n                // Draw\r\n                if (session[idSession].playerTwoFoundWord) {\r\n                    sessionPublic[idSession].state = StateSession.Draw;\r\n                    balance[\r\n                        sessionPublic[idSession].playerOne\r\n                    ] += sessionPublic[idSession].betSize;\r\n                    balance[\r\n                        sessionPublic[idSession].playerTwo\r\n                    ] += sessionPublic[idSession].betSize;\r\n                }\r\n                // Player one Win\r\n                if (!session[idSession].playerTwoFoundWord) {\r\n                    sessionPublic[idSession].state = StateSession.PlayerOneWin;\r\n                    balance[sessionPublic[idSession].playerOne] +=\r\n                        sessionPublic[idSession].betSize *\r\n                        2;\r\n                }\r\n            }\r\n            // Player Two Win: Player Two find the word and player not found it\r\n            if (\r\n                session[idSession].playerTwoFoundWord &&\r\n                !session[idSession].playerOneFoundWord\r\n            ) {\r\n                sessionPublic[idSession].state = StateSession.PlayerTwoWin;\r\n                balance[sessionPublic[idSession].playerTwo] +=\r\n                    sessionPublic[idSession].betSize *\r\n                    2;\r\n            }\r\n        }\r\n\r\n        // when Player Two plays\r\n        if (msg.sender == sessionPublic[idSession].playerTwo) {\r\n            compareAndCopy(session[idSession].word, letter, idSession);\r\n            sessionPublic[idSession].mustPlay = sessionPublic[idSession]\r\n                .playerOne;\r\n            session[idSession].lastMoveDate = block.timestamp;\r\n            emit HasPlayed(idSession, sessionPublic[idSession].playerTwo);\r\n\r\n            // Player Two find the world\r\n            if (\r\n                session[idSession].word ==\r\n                sessionPublic[idSession].playerTwoGuess\r\n            ) {\r\n                session[idSession].playerTwoFoundWord = true;\r\n            }\r\n        }\r\n    }\r\n\r\n    /// @param position of the letter to change\r\n    /// @param toInsert letter to copy in bytes1\r\n    /// @param idSession uint256 for identify the session\r\n    /// @notice replaceBytesAtIndex\r\n    function replaceBytesAtIndex(\r\n        uint8 position,\r\n        bytes1 toInsert,\r\n        uint256 idSession\r\n    ) private {\r\n        bytes1 maskBytes = 0xff;\r\n        bytes32 mask = bytes32(maskBytes) >> (position * 8);\r\n\r\n        if (!session[idSession].firstLetterRemplaced) {\r\n            sessionPublic[idSession].playerOneGuess =\r\n                (~mask & sessionPublic[idSession].playerOneGuess) |\r\n                (bytes32(toInsert) >> (position * 8));\r\n            sessionPublic[idSession].playerTwoGuess =\r\n                (~mask & sessionPublic[idSession].playerTwoGuess) |\r\n                (bytes32(toInsert) >> (position * 8));\r\n        }\r\n\r\n        if (\r\n            sessionPublic[idSession].mustPlay ==\r\n            sessionPublic[idSession].playerOne &&\r\n            session[idSession].firstLetterRemplaced\r\n        ) {\r\n            sessionPublic[idSession].playerOneGuess =\r\n                (~mask & sessionPublic[idSession].playerOneGuess) |\r\n                (bytes32(toInsert) >> (position * 8));\r\n        }\r\n        if (\r\n            sessionPublic[idSession].mustPlay ==\r\n            sessionPublic[idSession].playerTwo &&\r\n            session[idSession].firstLetterRemplaced\r\n        ) {\r\n            sessionPublic[idSession].playerTwoGuess =\r\n                (~mask & sessionPublic[idSession].playerTwoGuess) |\r\n                (bytes32(toInsert) >> (position * 8));\r\n        }\r\n    }\r\n\r\n    /// @param word to compare\r\n    /// @param letter to check\r\n    /// @param idSession uint256 for identify the session\r\n    /// @notice compare and copy identical letter\r\n    function compareAndCopy(\r\n        bytes32 word,\r\n        bytes1 letter,\r\n        uint256 idSession\r\n    ) private {\r\n        for (uint8 i = 0; i < 32 && word[i] != 0; i++) {\r\n            if (word[i] == letter) {\r\n                replaceBytesAtIndex(i, letter, idSession);\r\n            }\r\n        }\r\n    }\r\n\r\n    /// @param player address of the player\r\n    /// @notice get the lit of the games for a given player address\r\n    function getPlayerGames(address player)\r\n        external\r\n        view\r\n        returns (uint256[] memory)\r\n    {\r\n        return playerGames[player].games;\r\n    }\r\n\r\n    /// @param idSession uint256 for identify the sesFsion\r\n    /// @notice get the word legth for a given session\r\n    function getSessionWordLength(uint256 idSession)\r\n        private\r\n        view\r\n        returns (uint8)\r\n    {\r\n        require(\r\n            sessionPublic[idSession].state != StateSession.NotCreated &&\r\n                sessionPublic[idSession].state != StateSession.Reachable,\r\n            \"Error, This session does not have already a word\"\r\n        );\r\n        uint8 i = 0;\r\n        while (i < 32 && session[idSession].word[i] != 0) {\r\n            i++;\r\n        }\r\n        return i;\r\n    }\r\n\r\n    /// @param b bytes1 to check if is letter or not\r\n    /// @notice check if is a letter\r\n    function isLetter(bytes1 b) private pure returns (bool) {\r\n        if (!(b >= 0x61 && b <= 0x7A)) {\r\n            //a-z\r\n            return false;\r\n        }\r\n        return true;\r\n    }\r\n\r\n    /// !! fonction non-dploy\r\n    /// @param word bytes32 check if word is composed of lower case letters\r\n    /// @notice check if is a letter\r\n    function isLowerCaseWord(bytes32 word) private pure returns (bool) {\r\n        for (uint8 i = 0; i < 32 && word[i] != 0; i++) {\r\n            if (!isLetter(word[i])) {\r\n                return false;\r\n            }\r\n        }\r\n        return true;\r\n    }\r\n}\r\n",
  "sourcePath": "C:\\Users\\juwol\\Desktop\\DEV\\Penduel_certif\\Penduel\\contracts\\Penduel.sol",
  "compiler": {
    "name": "solc",
    "version": "0.8.16+commit.07a7930e.Emscripten.clang"
  },
  "schemaVersion": "3.4.6",
  "updatedAt": "2022-09-05T01:18:38.164Z",
  "devdoc": {
    "author": "jw418",
    "details": "This contract can cointains exploit, deploy this contract on tesnet only!!",
    "kind": "dev",
    "methods": {
      "addWord(bytes32)": {
        "params": {
          "word": "it is a bytes32"
        }
      },
      "constructor": {
        "details": "go to your chainlink account to see your subcription IDwhen the contract is deployed do not forget to add this contract to your consumer"
      },
      "getPlayerGames(address)": {
        "params": {
          "player": "address of the player"
        }
      },
      "joinSession(uint256)": {
        "details": "this function request for randomness"
      },
      "openJoinSessionFct()": {
        "details": "first make sure that the contract has been added to the consumers on your chainlik subscription management page"
      },
      "owner()": {
        "details": "Returns the address of the current owner."
      },
      "play(bytes1,uint256)": {
        "params": {
          "idSession": "uint256 for identify the session",
          "letter": "played in bytes1"
        }
      },
      "refundRNGnotFound(uint256)": {
        "params": {
          "idSession": "uint256 for identify the session"
        }
      },
      "renounceOwnership()": {
        "details": "Leaves the contract without owner. It will not be possible to call `onlyOwner` functions anymore. Can only be called by the current owner. NOTE: Renouncing ownership will leave the contract without an owner, thereby removing any functionality that is only available to the owner."
      },
      "requestCancelGame(uint256)": {
        "params": {
          "idSession": "uint256 for identify the session"
        }
      },
      "requestWinTimeout(uint256)": {
        "params": {
          "idSession": "uint256 for identify the session"
        }
      },
      "transferOwnership(address)": {
        "details": "Transfers ownership of the contract to a new account (`newOwner`). Can only be called by the current owner."
      }
    },
    "title": "Penduel",
    "version": 1
  },
  "userdoc": {
    "kind": "user",
    "methods": {
      "addWord(bytes32)": {
        "notice": "allows the owner to add words to the list for the game"
      },
      "createSession()": {
        "notice": "for create a new game session"
      },
      "getPlayerGames(address)": {
        "notice": "get the lit of the games for a given player address"
      },
      "joinSession(uint256)": {
        "notice": "for join a session already created"
      },
      "openJoinSessionFct()": {
        "notice": "autorised players to use the joinSession Function"
      },
      "pausedJoinSessionFct()": {
        "notice": "unautorised players to use the joinSession Function"
      },
      "play(bytes1,uint256)": {
        "notice": "the playing function of this dapp"
      },
      "playerWithdraw()": {
        "notice": "a withdraw function for players"
      },
      "refundRNGnotFound(uint256)": {
        "notice": "if chainlink took too many times for given a rng the player can ask for a refund"
      },
      "requestCancelGame(uint256)": {
        "notice": "24hours after the creation of the game the creator can cancel it if no one join it"
      },
      "requestWinTimeout(uint256)": {
        "notice": "if the opponent player took too many times for playing you can ask for a win by TimeOut"
      }
    },
    "notice": "Versus hangman's game",
    "version": 1
  }
}